{
  "contractName": "CarDealership",
  "abi": [
    {
      "inputs": [],
      "stateMutability": "nonpayable",
      "type": "constructor"
    },
    {
      "anonymous": false,
      "inputs": [
        {
          "indexed": true,
          "internalType": "address",
          "name": "owner",
          "type": "address"
        },
        {
          "indexed": true,
          "internalType": "address",
          "name": "approved",
          "type": "address"
        },
        {
          "indexed": true,
          "internalType": "uint256",
          "name": "tokenId",
          "type": "uint256"
        }
      ],
      "name": "Approval",
      "type": "event"
    },
    {
      "anonymous": false,
      "inputs": [
        {
          "indexed": true,
          "internalType": "address",
          "name": "owner",
          "type": "address"
        },
        {
          "indexed": true,
          "internalType": "address",
          "name": "operator",
          "type": "address"
        },
        {
          "indexed": false,
          "internalType": "bool",
          "name": "approved",
          "type": "bool"
        }
      ],
      "name": "ApprovalForAll",
      "type": "event"
    },
    {
      "anonymous": false,
      "inputs": [
        {
          "indexed": true,
          "internalType": "address",
          "name": "previousOwner",
          "type": "address"
        },
        {
          "indexed": true,
          "internalType": "address",
          "name": "newOwner",
          "type": "address"
        }
      ],
      "name": "OwnershipTransferred",
      "type": "event"
    },
    {
      "anonymous": false,
      "inputs": [
        {
          "indexed": true,
          "internalType": "address",
          "name": "from",
          "type": "address"
        },
        {
          "indexed": true,
          "internalType": "address",
          "name": "to",
          "type": "address"
        },
        {
          "indexed": true,
          "internalType": "uint256",
          "name": "tokenId",
          "type": "uint256"
        }
      ],
      "name": "Transfer",
      "type": "event"
    },
    {
      "inputs": [
        {
          "internalType": "address",
          "name": "to",
          "type": "address"
        },
        {
          "internalType": "uint256",
          "name": "tokenId",
          "type": "uint256"
        }
      ],
      "name": "approve",
      "outputs": [],
      "stateMutability": "nonpayable",
      "type": "function"
    },
    {
      "inputs": [
        {
          "internalType": "address",
          "name": "owner",
          "type": "address"
        }
      ],
      "name": "balanceOf",
      "outputs": [
        {
          "internalType": "uint256",
          "name": "",
          "type": "uint256"
        }
      ],
      "stateMutability": "view",
      "type": "function",
      "constant": true
    },
    {
      "inputs": [
        {
          "internalType": "uint256",
          "name": "tokenId",
          "type": "uint256"
        }
      ],
      "name": "getApproved",
      "outputs": [
        {
          "internalType": "address",
          "name": "",
          "type": "address"
        }
      ],
      "stateMutability": "view",
      "type": "function",
      "constant": true
    },
    {
      "inputs": [
        {
          "internalType": "address",
          "name": "owner",
          "type": "address"
        },
        {
          "internalType": "address",
          "name": "operator",
          "type": "address"
        }
      ],
      "name": "isApprovedForAll",
      "outputs": [
        {
          "internalType": "bool",
          "name": "",
          "type": "bool"
        }
      ],
      "stateMutability": "view",
      "type": "function",
      "constant": true
    },
    {
      "inputs": [],
      "name": "name",
      "outputs": [
        {
          "internalType": "string",
          "name": "",
          "type": "string"
        }
      ],
      "stateMutability": "view",
      "type": "function",
      "constant": true
    },
    {
      "inputs": [],
      "name": "owner",
      "outputs": [
        {
          "internalType": "address",
          "name": "",
          "type": "address"
        }
      ],
      "stateMutability": "view",
      "type": "function",
      "constant": true
    },
    {
      "inputs": [
        {
          "internalType": "uint256",
          "name": "tokenId",
          "type": "uint256"
        }
      ],
      "name": "ownerOf",
      "outputs": [
        {
          "internalType": "address",
          "name": "",
          "type": "address"
        }
      ],
      "stateMutability": "view",
      "type": "function",
      "constant": true
    },
    {
      "inputs": [],
      "name": "renounceOwnership",
      "outputs": [],
      "stateMutability": "nonpayable",
      "type": "function"
    },
    {
      "inputs": [
        {
          "internalType": "address",
          "name": "from",
          "type": "address"
        },
        {
          "internalType": "address",
          "name": "to",
          "type": "address"
        },
        {
          "internalType": "uint256",
          "name": "tokenId",
          "type": "uint256"
        }
      ],
      "name": "safeTransferFrom",
      "outputs": [],
      "stateMutability": "nonpayable",
      "type": "function"
    },
    {
      "inputs": [
        {
          "internalType": "address",
          "name": "from",
          "type": "address"
        },
        {
          "internalType": "address",
          "name": "to",
          "type": "address"
        },
        {
          "internalType": "uint256",
          "name": "tokenId",
          "type": "uint256"
        },
        {
          "internalType": "bytes",
          "name": "data",
          "type": "bytes"
        }
      ],
      "name": "safeTransferFrom",
      "outputs": [],
      "stateMutability": "nonpayable",
      "type": "function"
    },
    {
      "inputs": [
        {
          "internalType": "address",
          "name": "operator",
          "type": "address"
        },
        {
          "internalType": "bool",
          "name": "approved",
          "type": "bool"
        }
      ],
      "name": "setApprovalForAll",
      "outputs": [],
      "stateMutability": "nonpayable",
      "type": "function"
    },
    {
      "inputs": [
        {
          "internalType": "bytes4",
          "name": "interfaceId",
          "type": "bytes4"
        }
      ],
      "name": "supportsInterface",
      "outputs": [
        {
          "internalType": "bool",
          "name": "",
          "type": "bool"
        }
      ],
      "stateMutability": "view",
      "type": "function",
      "constant": true
    },
    {
      "inputs": [],
      "name": "symbol",
      "outputs": [
        {
          "internalType": "string",
          "name": "",
          "type": "string"
        }
      ],
      "stateMutability": "view",
      "type": "function",
      "constant": true
    },
    {
      "inputs": [
        {
          "internalType": "uint256",
          "name": "index",
          "type": "uint256"
        }
      ],
      "name": "tokenByIndex",
      "outputs": [
        {
          "internalType": "uint256",
          "name": "",
          "type": "uint256"
        }
      ],
      "stateMutability": "view",
      "type": "function",
      "constant": true
    },
    {
      "inputs": [
        {
          "internalType": "address",
          "name": "owner",
          "type": "address"
        },
        {
          "internalType": "uint256",
          "name": "index",
          "type": "uint256"
        }
      ],
      "name": "tokenOfOwnerByIndex",
      "outputs": [
        {
          "internalType": "uint256",
          "name": "",
          "type": "uint256"
        }
      ],
      "stateMutability": "view",
      "type": "function",
      "constant": true
    },
    {
      "inputs": [
        {
          "internalType": "uint256",
          "name": "tokenId",
          "type": "uint256"
        }
      ],
      "name": "tokenURI",
      "outputs": [
        {
          "internalType": "string",
          "name": "",
          "type": "string"
        }
      ],
      "stateMutability": "view",
      "type": "function",
      "constant": true
    },
    {
      "inputs": [],
      "name": "totalSupply",
      "outputs": [
        {
          "internalType": "uint256",
          "name": "",
          "type": "uint256"
        }
      ],
      "stateMutability": "view",
      "type": "function",
      "constant": true
    },
    {
      "inputs": [
        {
          "internalType": "address",
          "name": "from",
          "type": "address"
        },
        {
          "internalType": "address",
          "name": "to",
          "type": "address"
        },
        {
          "internalType": "uint256",
          "name": "tokenId",
          "type": "uint256"
        }
      ],
      "name": "transferFrom",
      "outputs": [],
      "stateMutability": "nonpayable",
      "type": "function"
    },
    {
      "inputs": [
        {
          "internalType": "address",
          "name": "newOwner",
          "type": "address"
        }
      ],
      "name": "transferOwnership",
      "outputs": [],
      "stateMutability": "nonpayable",
      "type": "function"
    },
    {
      "inputs": [
        {
          "internalType": "address",
          "name": "_owner",
          "type": "address"
        },
        {
          "internalType": "string",
          "name": "_licensePlate",
          "type": "string"
        },
        {
          "internalType": "string",
          "name": "_brand",
          "type": "string"
        }
      ],
      "name": "mintCar",
      "outputs": [
        {
          "internalType": "uint256",
          "name": "",
          "type": "uint256"
        }
      ],
      "stateMutability": "nonpayable",
      "type": "function"
    },
    {
      "inputs": [
        {
          "internalType": "uint256",
          "name": "_tokenId",
          "type": "uint256"
        }
      ],
      "name": "getCar",
      "outputs": [
        {
          "internalType": "string",
          "name": "",
          "type": "string"
        },
        {
          "internalType": "string",
          "name": "",
          "type": "string"
        }
      ],
      "stateMutability": "view",
      "type": "function",
      "constant": true
    },
    {
      "inputs": [
        {
          "internalType": "address",
          "name": "_owner",
          "type": "address"
        }
      ],
      "name": "getCarsByOwner",
      "outputs": [
        {
          "components": [
            {
              "internalType": "string",
              "name": "licensePlate",
              "type": "string"
            },
            {
              "internalType": "string",
              "name": "brand",
              "type": "string"
            }
          ],
          "internalType": "struct CarDealership.Car[]",
          "name": "",
          "type": "tuple[]"
        }
      ],
      "stateMutability": "view",
      "type": "function",
      "constant": true
    },
    {
      "inputs": [],
      "name": "testFunction",
      "outputs": [
        {
          "internalType": "string",
          "name": "",
          "type": "string"
        }
      ],
      "stateMutability": "pure",
      "type": "function",
      "constant": true
    }
  ],
  "bytecode": "0x60806040523480156200001157600080fd5b506040518060400160405280600981526020017f636172546f6b656e7300000000000000000000000000000000000000000000008152506040518060400160405280600381526020017f43415200000000000000000000000000000000000000000000000000000000008152506200009e62000092620000ca60201b60201c565b620000d260201b60201c565b8160019081620000af919062000410565b508060029081620000c1919062000410565b505050620004f7565b600033905090565b60008060009054906101000a900473ffffffffffffffffffffffffffffffffffffffff169050816000806101000a81548173ffffffffffffffffffffffffffffffffffffffff021916908373ffffffffffffffffffffffffffffffffffffffff1602179055508173ffffffffffffffffffffffffffffffffffffffff168173ffffffffffffffffffffffffffffffffffffffff167f8be0079c531659141344cd1fd0a4f28419497f9722a3daafe3b4186f6b6457e060405160405180910390a35050565b600081519050919050565b7f4e487b7100000000000000000000000000000000000000000000000000000000600052604160045260246000fd5b7f4e487b7100000000000000000000000000000000000000000000000000000000600052602260045260246000fd5b600060028204905060018216806200021857607f821691505b6020821081036200022e576200022d620001d0565b5b50919050565b60008190508160005260206000209050919050565b60006020601f8301049050919050565b600082821b905092915050565b600060088302620002987fffffffffffffffffffffffffffffffffffffffffffffffffffffffffffffffff8262000259565b620002a4868362000259565b95508019841693508086168417925050509392505050565b6000819050919050565b6000819050919050565b6000620002f1620002eb620002e584620002bc565b620002c6565b620002bc565b9050919050565b6000819050919050565b6200030d83620002d0565b620003256200031c82620002f8565b84845462000266565b825550505050565b600090565b6200033c6200032d565b6200034981848462000302565b505050565b5b8181101562000371576200036560008262000332565b6001810190506200034f565b5050565b601f821115620003c0576200038a8162000234565b620003958462000249565b81016020851015620003a5578190505b620003bd620003b48562000249565b8301826200034e565b50505b505050565b600082821c905092915050565b6000620003e560001984600802620003c5565b1980831691505092915050565b6000620004008383620003d2565b9150826002028217905092915050565b6200041b8262000196565b67ffffffffffffffff811115620004375762000436620001a1565b5b620004438254620001ff565b6200045082828562000375565b600060209050601f83116001811462000488576000841562000473578287015190505b6200047f8582620003f2565b865550620004ef565b601f198416620004988662000234565b60005b82811015620004c2578489015182556001820191506020850194506020810190506200049b565b86831015620004e25784890151620004de601f891682620003d2565b8355505b6001600288020188555050505b505050505050565b613ca180620005076000396000f3fe608060405234801561001057600080fd5b506004361061014d5760003560e01c80636352211e116100c3578063b88d4fde1161007c578063b88d4fde146103c5578063c75bb4f4146103e1578063c87b56dd14610411578063e16b4a9b14610441578063e985e9c51461045f578063f2fde38b1461048f5761014d565b80636352211e1461030357806370a0823114610333578063715018a6146103635780638da5cb5b1461036d57806395d89b411461038b578063a22cb465146103a95761014d565b806323b872dd1161011557806323b872dd1461020a5780632f745c591461022657806342842e0e146102565780634f6ccce71461027257806356a072ed146102a25780635e8be190146102d25761014d565b806301ffc9a71461015257806306fdde0314610182578063081812fc146101a0578063095ea7b3146101d057806318160ddd146101ec575b600080fd5b61016c60048036038101906101679190612621565b6104ab565b6040516101799190612669565b60405180910390f35b61018a610525565b6040516101979190612714565b60405180910390f35b6101ba60048036038101906101b5919061276c565b6105b7565b6040516101c791906127da565b60405180910390f35b6101ea60048036038101906101e59190612821565b6105fd565b005b6101f4610714565b6040516102019190612870565b60405180910390f35b610224600480360381019061021f919061288b565b610721565b005b610240600480360381019061023b9190612821565b610781565b60405161024d9190612870565b60405180910390f35b610270600480360381019061026b919061288b565b610826565b005b61028c6004803603810190610287919061276c565b610846565b6040516102999190612870565b60405180910390f35b6102bc60048036038101906102b79190612a13565b6108b7565b6040516102c99190612870565b60405180910390f35b6102ec60048036038101906102e7919061276c565b61093d565b6040516102fa929190612a9e565b60405180910390f35b61031d6004803603810190610318919061276c565b610ae2565b60405161032a91906127da565b60405180910390f35b61034d60048036038101906103489190612ad5565b610b68565b60405161035a9190612870565b60405180910390f35b61036b610c1f565b005b610375610c33565b60405161038291906127da565b60405180910390f35b610393610c5c565b6040516103a09190612714565b60405180910390f35b6103c360048036038101906103be9190612b2e565b610cee565b005b6103df60048036038101906103da9190612c0f565b610d04565b005b6103fb60048036038101906103f69190612ad5565b610d66565b6040516104089190612de2565b60405180910390f35b61042b6004803603810190610426919061276c565b610f65565b6040516104389190612714565b60405180910390f35b610449610fcd565b6040516104569190612714565b60405180910390f35b61047960048036038101906104749190612e04565b61100a565b6040516104869190612669565b60405180910390f35b6104a960048036038101906104a49190612ad5565b61109e565b005b60007f780e9d63000000000000000000000000000000000000000000000000000000007bffffffffffffffffffffffffffffffffffffffffffffffffffffffff1916827bffffffffffffffffffffffffffffffffffffffffffffffffffffffff1916148061051e575061051d82611121565b5b9050919050565b60606001805461053490612e73565b80601f016020809104026020016040519081016040528092919081815260200182805461056090612e73565b80156105ad5780601f10610582576101008083540402835291602001916105ad565b820191906000526020600020905b81548152906001019060200180831161059057829003601f168201915b5050505050905090565b60006105c282611203565b6005600083815260200190815260200160002060009054906101000a900473ffffffffffffffffffffffffffffffffffffffff169050919050565b600061060882610ae2565b90508073ffffffffffffffffffffffffffffffffffffffff168373ffffffffffffffffffffffffffffffffffffffff1603610678576040517f08c379a000000000000000000000000000000000000000000000000000000000815260040161066f90612f16565b60405180910390fd5b8073ffffffffffffffffffffffffffffffffffffffff1661069761124e565b73ffffffffffffffffffffffffffffffffffffffff1614806106c657506106c5816106c061124e565b61100a565b5b610705576040517f08c379a00000000000000000000000000000000000000000000000000000000081526004016106fc90612fa8565b60405180910390fd5b61070f8383611256565b505050565b6000600980549050905090565b61073261072c61124e565b8261130f565b610771576040517f08c379a00000000000000000000000000000000000000000000000000000000081526004016107689061303a565b60405180910390fd5b61077c8383836113a4565b505050565b600061078c83610b68565b82106107cd576040517f08c379a00000000000000000000000000000000000000000000000000000000081526004016107c4906130cc565b60405180910390fd5b600760008473ffffffffffffffffffffffffffffffffffffffff1673ffffffffffffffffffffffffffffffffffffffff168152602001908152602001600020600083815260200190815260200160002054905092915050565b61084183838360405180602001604052806000815250610d04565b505050565b6000610850610714565b8210610891576040517f08c379a00000000000000000000000000000000000000000000000000000000081526004016108889061315e565b60405180910390fd5b600982815481106108a5576108a461317e565b5b90600052602060002001549050919050565b60006108c3600b61169d565b60006108cf600b6116b3565b90506108db85826116c1565b604051806040016040528085815260200184815250600c600083815260200190815260200160002060008201518160000190816109189190613359565b50602082015181600101908161092e9190613359565b50905050809150509392505050565b606080610949836116df565b610988576040517f08c379a000000000000000000000000000000000000000000000000000000000815260040161097f90613477565b60405180910390fd5b6000600c60008581526020019081526020016000206040518060400160405290816000820180546109b890612e73565b80601f01602080910402602001604051908101604052809291908181526020018280546109e490612e73565b8015610a315780601f10610a0657610100808354040283529160200191610a31565b820191906000526020600020905b815481529060010190602001808311610a1457829003601f168201915b50505050508152602001600182018054610a4a90612e73565b80601f0160208091040260200160405190810160405280929190818152602001828054610a7690612e73565b8015610ac35780601f10610a9857610100808354040283529160200191610ac3565b820191906000526020600020905b815481529060010190602001808311610aa657829003601f168201915b5050505050815250509050806000015181602001519250925050915091565b600080610aee83611720565b9050600073ffffffffffffffffffffffffffffffffffffffff168173ffffffffffffffffffffffffffffffffffffffff1603610b5f576040517f08c379a0000000000000000000000000000000000000000000000000000000008152600401610b56906134e3565b60405180910390fd5b80915050919050565b60008073ffffffffffffffffffffffffffffffffffffffff168273ffffffffffffffffffffffffffffffffffffffff1603610bd8576040517f08c379a0000000000000000000000000000000000000000000000000000000008152600401610bcf90613575565b60405180910390fd5b600460008373ffffffffffffffffffffffffffffffffffffffff1673ffffffffffffffffffffffffffffffffffffffff168152602001908152602001600020549050919050565b610c2761175d565b610c3160006117db565b565b60008060009054906101000a900473ffffffffffffffffffffffffffffffffffffffff16905090565b606060028054610c6b90612e73565b80601f0160208091040260200160405190810160405280929190818152602001828054610c9790612e73565b8015610ce45780601f10610cb957610100808354040283529160200191610ce4565b820191906000526020600020905b815481529060010190602001808311610cc757829003601f168201915b5050505050905090565b610d00610cf961124e565b838361189f565b5050565b610d15610d0f61124e565b8361130f565b610d54576040517f08c379a0000000000000000000000000000000000000000000000000000000008152600401610d4b9061303a565b60405180910390fd5b610d6084848484611a0b565b50505050565b60606000610d7383610b68565b905060008167ffffffffffffffff811115610d9157610d906128e8565b5b604051908082528060200260200182016040528015610dca57816020015b610db761259b565b815260200190600190039081610daf5790505b50905060005b82811015610f5a576000610de48683610781565b9050600c6000828152602001908152602001600020604051806040016040529081600082018054610e1490612e73565b80601f0160208091040260200160405190810160405280929190818152602001828054610e4090612e73565b8015610e8d5780601f10610e6257610100808354040283529160200191610e8d565b820191906000526020600020905b815481529060010190602001808311610e7057829003601f168201915b50505050508152602001600182018054610ea690612e73565b80601f0160208091040260200160405190810160405280929190818152602001828054610ed290612e73565b8015610f1f5780601f10610ef457610100808354040283529160200191610f1f565b820191906000526020600020905b815481529060010190602001808311610f0257829003601f168201915b505050505081525050838381518110610f3b57610f3a61317e565b5b6020026020010181905250508080610f52906135c4565b915050610dd0565b508092505050919050565b6060610f7082611203565b6000610f7a611a67565b90506000815111610f9a5760405180602001604052806000815250610fc5565b80610fa484611a7e565b604051602001610fb5929190613648565b6040516020818303038152906040525b915050919050565b60606040518060400160405280601581526020017f54455354494e47204946205448495320574f524b530000000000000000000000815250905090565b6000600660008473ffffffffffffffffffffffffffffffffffffffff1673ffffffffffffffffffffffffffffffffffffffff16815260200190815260200160002060008373ffffffffffffffffffffffffffffffffffffffff1673ffffffffffffffffffffffffffffffffffffffff16815260200190815260200160002060009054906101000a900460ff16905092915050565b6110a661175d565b600073ffffffffffffffffffffffffffffffffffffffff168173ffffffffffffffffffffffffffffffffffffffff1603611115576040517f08c379a000000000000000000000000000000000000000000000000000000000815260040161110c906136de565b60405180910390fd5b61111e816117db565b50565b60007f80ac58cd000000000000000000000000000000000000000000000000000000007bffffffffffffffffffffffffffffffffffffffffffffffffffffffff1916827bffffffffffffffffffffffffffffffffffffffffffffffffffffffff191614806111ec57507f5b5e139f000000000000000000000000000000000000000000000000000000007bffffffffffffffffffffffffffffffffffffffffffffffffffffffff1916827bffffffffffffffffffffffffffffffffffffffffffffffffffffffff1916145b806111fc57506111fb82611b4c565b5b9050919050565b61120c816116df565b61124b576040517f08c379a0000000000000000000000000000000000000000000000000000000008152600401611242906134e3565b60405180910390fd5b50565b600033905090565b816005600083815260200190815260200160002060006101000a81548173ffffffffffffffffffffffffffffffffffffffff021916908373ffffffffffffffffffffffffffffffffffffffff160217905550808273ffffffffffffffffffffffffffffffffffffffff166112c983610ae2565b73ffffffffffffffffffffffffffffffffffffffff167f8c5be1e5ebec7d5bd14f71427d1e84f3dd0314c0f7b2291e5b200ac8c7c3b92560405160405180910390a45050565b60008061131b83610ae2565b90508073ffffffffffffffffffffffffffffffffffffffff168473ffffffffffffffffffffffffffffffffffffffff16148061135d575061135c818561100a565b5b8061139b57508373ffffffffffffffffffffffffffffffffffffffff16611383846105b7565b73ffffffffffffffffffffffffffffffffffffffff16145b91505092915050565b8273ffffffffffffffffffffffffffffffffffffffff166113c482610ae2565b73ffffffffffffffffffffffffffffffffffffffff161461141a576040517f08c379a000000000000000000000000000000000000000000000000000000000815260040161141190613770565b60405180910390fd5b600073ffffffffffffffffffffffffffffffffffffffff168273ffffffffffffffffffffffffffffffffffffffff1603611489576040517f08c379a000000000000000000000000000000000000000000000000000000000815260040161148090613802565b60405180910390fd5b6114968383836001611bb6565b8273ffffffffffffffffffffffffffffffffffffffff166114b682610ae2565b73ffffffffffffffffffffffffffffffffffffffff161461150c576040517f08c379a000000000000000000000000000000000000000000000000000000000815260040161150390613770565b60405180910390fd5b6005600082815260200190815260200160002060006101000a81549073ffffffffffffffffffffffffffffffffffffffff02191690556001600460008573ffffffffffffffffffffffffffffffffffffffff1673ffffffffffffffffffffffffffffffffffffffff168152602001908152602001600020600082825403925050819055506001600460008473ffffffffffffffffffffffffffffffffffffffff1673ffffffffffffffffffffffffffffffffffffffff16815260200190815260200160002060008282540192505081905550816003600083815260200190815260200160002060006101000a81548173ffffffffffffffffffffffffffffffffffffffff021916908373ffffffffffffffffffffffffffffffffffffffff160217905550808273ffffffffffffffffffffffffffffffffffffffff168473ffffffffffffffffffffffffffffffffffffffff167fddf252ad1be2c89b69c2b068fc378daa952ba7f163c4a11628f55a4df523b3ef60405160405180910390a46116988383836001611d14565b505050565b6001816000016000828254019250508190555050565b600081600001549050919050565b6116db828260405180602001604052806000815250611d1a565b5050565b60008073ffffffffffffffffffffffffffffffffffffffff1661170183611720565b73ffffffffffffffffffffffffffffffffffffffff1614159050919050565b60006003600083815260200190815260200160002060009054906101000a900473ffffffffffffffffffffffffffffffffffffffff169050919050565b61176561124e565b73ffffffffffffffffffffffffffffffffffffffff16611783610c33565b73ffffffffffffffffffffffffffffffffffffffff16146117d9576040517f08c379a00000000000000000000000000000000000000000000000000000000081526004016117d09061386e565b60405180910390fd5b565b60008060009054906101000a900473ffffffffffffffffffffffffffffffffffffffff169050816000806101000a81548173ffffffffffffffffffffffffffffffffffffffff021916908373ffffffffffffffffffffffffffffffffffffffff1602179055508173ffffffffffffffffffffffffffffffffffffffff168173ffffffffffffffffffffffffffffffffffffffff167f8be0079c531659141344cd1fd0a4f28419497f9722a3daafe3b4186f6b6457e060405160405180910390a35050565b8173ffffffffffffffffffffffffffffffffffffffff168373ffffffffffffffffffffffffffffffffffffffff160361190d576040517f08c379a0000000000000000000000000000000000000000000000000000000008152600401611904906138da565b60405180910390fd5b80600660008573ffffffffffffffffffffffffffffffffffffffff1673ffffffffffffffffffffffffffffffffffffffff16815260200190815260200160002060008473ffffffffffffffffffffffffffffffffffffffff1673ffffffffffffffffffffffffffffffffffffffff16815260200190815260200160002060006101000a81548160ff0219169083151502179055508173ffffffffffffffffffffffffffffffffffffffff168373ffffffffffffffffffffffffffffffffffffffff167f17307eab39ab6107e8899845ad3d59bd9653f200f220920489ca2b5937696c31836040516119fe9190612669565b60405180910390a3505050565b611a168484846113a4565b611a2284848484611d75565b611a61576040517f08c379a0000000000000000000000000000000000000000000000000000000008152600401611a589061396c565b60405180910390fd5b50505050565b606060405180602001604052806000815250905090565b606060006001611a8d84611efc565b01905060008167ffffffffffffffff811115611aac57611aab6128e8565b5b6040519080825280601f01601f191660200182016040528015611ade5781602001600182028036833780820191505090505b509050600082602001820190505b600115611b41578080600190039150507f3031323334353637383961626364656600000000000000000000000000000000600a86061a8153600a8581611b3557611b3461398c565b5b04945060008503611aec575b819350505050919050565b60007f01ffc9a7000000000000000000000000000000000000000000000000000000007bffffffffffffffffffffffffffffffffffffffffffffffffffffffff1916827bffffffffffffffffffffffffffffffffffffffffffffffffffffffff1916149050919050565b611bc28484848461204f565b6001811115611c06576040517f08c379a0000000000000000000000000000000000000000000000000000000008152600401611bfd90613a2d565b60405180910390fd5b6000829050600073ffffffffffffffffffffffffffffffffffffffff168573ffffffffffffffffffffffffffffffffffffffff1603611c4d57611c4881612055565b611c8c565b8373ffffffffffffffffffffffffffffffffffffffff168573ffffffffffffffffffffffffffffffffffffffff1614611c8b57611c8a858261209e565b5b5b600073ffffffffffffffffffffffffffffffffffffffff168473ffffffffffffffffffffffffffffffffffffffff1603611cce57611cc98161220b565b611d0d565b8473ffffffffffffffffffffffffffffffffffffffff168473ffffffffffffffffffffffffffffffffffffffff1614611d0c57611d0b84826122dc565b5b5b5050505050565b50505050565b611d24838361235b565b611d316000848484611d75565b611d70576040517f08c379a0000000000000000000000000000000000000000000000000000000008152600401611d679061396c565b60405180910390fd5b505050565b6000611d968473ffffffffffffffffffffffffffffffffffffffff16612578565b15611eef578373ffffffffffffffffffffffffffffffffffffffff1663150b7a02611dbf61124e565b8786866040518563ffffffff1660e01b8152600401611de19493929190613aa2565b6020604051808303816000875af1925050508015611e1d57506040513d601f19601f82011682018060405250810190611e1a9190613b03565b60015b611e9f573d8060008114611e4d576040519150601f19603f3d011682016040523d82523d6000602084013e611e52565b606091505b506000815103611e97576040517f08c379a0000000000000000000000000000000000000000000000000000000008152600401611e8e9061396c565b60405180910390fd5b805181602001fd5b63150b7a0260e01b7bffffffffffffffffffffffffffffffffffffffffffffffffffffffff1916817bffffffffffffffffffffffffffffffffffffffffffffffffffffffff191614915050611ef4565b600190505b949350505050565b600080600090507a184f03e93ff9f4daa797ed6e38ed64bf6a1f0100000000000000008310611f5a577a184f03e93ff9f4daa797ed6e38ed64bf6a1f0100000000000000008381611f5057611f4f61398c565b5b0492506040810190505b6d04ee2d6d415b85acef81000000008310611f97576d04ee2d6d415b85acef81000000008381611f8d57611f8c61398c565b5b0492506020810190505b662386f26fc100008310611fc657662386f26fc100008381611fbc57611fbb61398c565b5b0492506010810190505b6305f5e1008310611fef576305f5e1008381611fe557611fe461398c565b5b0492506008810190505b612710831061201457612710838161200a5761200961398c565b5b0492506004810190505b60648310612037576064838161202d5761202c61398c565b5b0492506002810190505b600a8310612046576001810190505b80915050919050565b50505050565b600980549050600a600083815260200190815260200160002081905550600981908060018154018082558091505060019003906000526020600020016000909190919091505550565b600060016120ab84610b68565b6120b59190613b30565b905060006008600084815260200190815260200160002054905081811461219a576000600760008673ffffffffffffffffffffffffffffffffffffffff1673ffffffffffffffffffffffffffffffffffffffff168152602001908152602001600020600084815260200190815260200160002054905080600760008773ffffffffffffffffffffffffffffffffffffffff1673ffffffffffffffffffffffffffffffffffffffff168152602001908152602001600020600084815260200190815260200160002081905550816008600083815260200190815260200160002081905550505b6008600084815260200190815260200160002060009055600760008573ffffffffffffffffffffffffffffffffffffffff1673ffffffffffffffffffffffffffffffffffffffff16815260200190815260200160002060008381526020019081526020016000206000905550505050565b6000600160098054905061221f9190613b30565b90506000600a600084815260200190815260200160002054905060006009838154811061224f5761224e61317e565b5b9060005260206000200154905080600983815481106122715761227061317e565b5b906000526020600020018190555081600a600083815260200190815260200160002081905550600a60008581526020019081526020016000206000905560098054806122c0576122bf613b64565b5b6001900381819060005260206000200160009055905550505050565b60006122e783610b68565b905081600760008573ffffffffffffffffffffffffffffffffffffffff1673ffffffffffffffffffffffffffffffffffffffff168152602001908152602001600020600083815260200190815260200160002081905550806008600084815260200190815260200160002081905550505050565b600073ffffffffffffffffffffffffffffffffffffffff168273ffffffffffffffffffffffffffffffffffffffff16036123ca576040517f08c379a00000000000000000000000000000000000000000000000000000000081526004016123c190613bdf565b60405180910390fd5b6123d3816116df565b15612413576040517f08c379a000000000000000000000000000000000000000000000000000000000815260040161240a90613c4b565b60405180910390fd5b612421600083836001611bb6565b61242a816116df565b1561246a576040517f08c379a000000000000000000000000000000000000000000000000000000000815260040161246190613c4b565b60405180910390fd5b6001600460008473ffffffffffffffffffffffffffffffffffffffff1673ffffffffffffffffffffffffffffffffffffffff16815260200190815260200160002060008282540192505081905550816003600083815260200190815260200160002060006101000a81548173ffffffffffffffffffffffffffffffffffffffff021916908373ffffffffffffffffffffffffffffffffffffffff160217905550808273ffffffffffffffffffffffffffffffffffffffff16600073ffffffffffffffffffffffffffffffffffffffff167fddf252ad1be2c89b69c2b068fc378daa952ba7f163c4a11628f55a4df523b3ef60405160405180910390a4612574600083836001611d14565b5050565b6000808273ffffffffffffffffffffffffffffffffffffffff163b119050919050565b604051806040016040528060608152602001606081525090565b6000604051905090565b600080fd5b600080fd5b60007fffffffff0000000000000000000000000000000000000000000000000000000082169050919050565b6125fe816125c9565b811461260957600080fd5b50565b60008135905061261b816125f5565b92915050565b600060208284031215612637576126366125bf565b5b60006126458482850161260c565b91505092915050565b60008115159050919050565b6126638161264e565b82525050565b600060208201905061267e600083018461265a565b92915050565b600081519050919050565b600082825260208201905092915050565b60005b838110156126be5780820151818401526020810190506126a3565b60008484015250505050565b6000601f19601f8301169050919050565b60006126e682612684565b6126f0818561268f565b93506127008185602086016126a0565b612709816126ca565b840191505092915050565b6000602082019050818103600083015261272e81846126db565b905092915050565b6000819050919050565b61274981612736565b811461275457600080fd5b50565b60008135905061276681612740565b92915050565b600060208284031215612782576127816125bf565b5b600061279084828501612757565b91505092915050565b600073ffffffffffffffffffffffffffffffffffffffff82169050919050565b60006127c482612799565b9050919050565b6127d4816127b9565b82525050565b60006020820190506127ef60008301846127cb565b92915050565b6127fe816127b9565b811461280957600080fd5b50565b60008135905061281b816127f5565b92915050565b60008060408385031215612838576128376125bf565b5b60006128468582860161280c565b925050602061285785828601612757565b9150509250929050565b61286a81612736565b82525050565b60006020820190506128856000830184612861565b92915050565b6000806000606084860312156128a4576128a36125bf565b5b60006128b28682870161280c565b93505060206128c38682870161280c565b92505060406128d486828701612757565b9150509250925092565b600080fd5b600080fd5b7f4e487b7100000000000000000000000000000000000000000000000000000000600052604160045260246000fd5b612920826126ca565b810181811067ffffffffffffffff8211171561293f5761293e6128e8565b5b80604052505050565b60006129526125b5565b905061295e8282612917565b919050565b600067ffffffffffffffff82111561297e5761297d6128e8565b5b612987826126ca565b9050602081019050919050565b82818337600083830152505050565b60006129b66129b184612963565b612948565b9050828152602081018484840111156129d2576129d16128e3565b5b6129dd848285612994565b509392505050565b600082601f8301126129fa576129f96128de565b5b8135612a0a8482602086016129a3565b91505092915050565b600080600060608486031215612a2c57612a2b6125bf565b5b6000612a3a8682870161280c565b935050602084013567ffffffffffffffff811115612a5b57612a5a6125c4565b5b612a67868287016129e5565b925050604084013567ffffffffffffffff811115612a8857612a876125c4565b5b612a94868287016129e5565b9150509250925092565b60006040820190508181036000830152612ab881856126db565b90508181036020830152612acc81846126db565b90509392505050565b600060208284031215612aeb57612aea6125bf565b5b6000612af98482850161280c565b91505092915050565b612b0b8161264e565b8114612b1657600080fd5b50565b600081359050612b2881612b02565b92915050565b60008060408385031215612b4557612b446125bf565b5b6000612b538582860161280c565b9250506020612b6485828601612b19565b9150509250929050565b600067ffffffffffffffff821115612b8957612b886128e8565b5b612b92826126ca565b9050602081019050919050565b6000612bb2612bad84612b6e565b612948565b905082815260208101848484011115612bce57612bcd6128e3565b5b612bd9848285612994565b509392505050565b600082601f830112612bf657612bf56128de565b5b8135612c06848260208601612b9f565b91505092915050565b60008060008060808587031215612c2957612c286125bf565b5b6000612c378782880161280c565b9450506020612c488782880161280c565b9350506040612c5987828801612757565b925050606085013567ffffffffffffffff811115612c7a57612c796125c4565b5b612c8687828801612be1565b91505092959194509250565b600081519050919050565b600082825260208201905092915050565b6000819050602082019050919050565b600082825260208201905092915050565b6000612cda82612684565b612ce48185612cbe565b9350612cf48185602086016126a0565b612cfd816126ca565b840191505092915050565b60006040830160008301518482036000860152612d258282612ccf565b91505060208301518482036020860152612d3f8282612ccf565b9150508091505092915050565b6000612d588383612d08565b905092915050565b6000602082019050919050565b6000612d7882612c92565b612d828185612c9d565b935083602082028501612d9485612cae565b8060005b85811015612dd05784840389528151612db18582612d4c565b9450612dbc83612d60565b925060208a01995050600181019050612d98565b50829750879550505050505092915050565b60006020820190508181036000830152612dfc8184612d6d565b905092915050565b60008060408385031215612e1b57612e1a6125bf565b5b6000612e298582860161280c565b9250506020612e3a8582860161280c565b9150509250929050565b7f4e487b7100000000000000000000000000000000000000000000000000000000600052602260045260246000fd5b60006002820490506001821680612e8b57607f821691505b602082108103612e9e57612e9d612e44565b5b50919050565b7f4552433732313a20617070726f76616c20746f2063757272656e74206f776e6560008201527f7200000000000000000000000000000000000000000000000000000000000000602082015250565b6000612f0060218361268f565b9150612f0b82612ea4565b604082019050919050565b60006020820190508181036000830152612f2f81612ef3565b9050919050565b7f4552433732313a20617070726f76652063616c6c6572206973206e6f7420746f60008201527f6b656e206f776e6572206f7220617070726f76656420666f7220616c6c000000602082015250565b6000612f92603d8361268f565b9150612f9d82612f36565b604082019050919050565b60006020820190508181036000830152612fc181612f85565b9050919050565b7f4552433732313a2063616c6c6572206973206e6f7420746f6b656e206f776e6560008201527f72206f7220617070726f76656400000000000000000000000000000000000000602082015250565b6000613024602d8361268f565b915061302f82612fc8565b604082019050919050565b6000602082019050818103600083015261305381613017565b9050919050565b7f455243373231456e756d657261626c653a206f776e657220696e646578206f7560008201527f74206f6620626f756e6473000000000000000000000000000000000000000000602082015250565b60006130b6602b8361268f565b91506130c18261305a565b604082019050919050565b600060208201905081810360008301526130e5816130a9565b9050919050565b7f455243373231456e756d657261626c653a20676c6f62616c20696e646578206f60008201527f7574206f6620626f756e64730000000000000000000000000000000000000000602082015250565b6000613148602c8361268f565b9150613153826130ec565b604082019050919050565b600060208201905081810360008301526131778161313b565b9050919050565b7f4e487b7100000000000000000000000000000000000000000000000000000000600052603260045260246000fd5b60008190508160005260206000209050919050565b60006020601f8301049050919050565b600082821b905092915050565b60006008830261320f7fffffffffffffffffffffffffffffffffffffffffffffffffffffffffffffffff826131d2565b61321986836131d2565b95508019841693508086168417925050509392505050565b6000819050919050565b600061325661325161324c84612736565b613231565b612736565b9050919050565b6000819050919050565b6132708361323b565b61328461327c8261325d565b8484546131df565b825550505050565b600090565b61329961328c565b6132a4818484613267565b505050565b5b818110156132c8576132bd600082613291565b6001810190506132aa565b5050565b601f82111561330d576132de816131ad565b6132e7846131c2565b810160208510156132f6578190505b61330a613302856131c2565b8301826132a9565b50505b505050565b600082821c905092915050565b600061333060001984600802613312565b1980831691505092915050565b6000613349838361331f565b9150826002028217905092915050565b61336282612684565b67ffffffffffffffff81111561337b5761337a6128e8565b5b6133858254612e73565b6133908282856132cc565b600060209050601f8311600181146133c357600084156133b1578287015190505b6133bb858261333d565b865550613423565b601f1984166133d1866131ad565b60005b828110156133f9578489015182556001820191506020850194506020810190506133d4565b868310156134165784890151613412601f89168261331f565b8355505b6001600288020188555050505b505050505050565b7f43617220646f6573206e6f742065786973740000000000000000000000000000600082015250565b600061346160128361268f565b915061346c8261342b565b602082019050919050565b6000602082019050818103600083015261349081613454565b9050919050565b7f4552433732313a20696e76616c696420746f6b656e2049440000000000000000600082015250565b60006134cd60188361268f565b91506134d882613497565b602082019050919050565b600060208201905081810360008301526134fc816134c0565b9050919050565b7f4552433732313a2061646472657373207a65726f206973206e6f74206120766160008201527f6c6964206f776e65720000000000000000000000000000000000000000000000602082015250565b600061355f60298361268f565b915061356a82613503565b604082019050919050565b6000602082019050818103600083015261358e81613552565b9050919050565b7f4e487b7100000000000000000000000000000000000000000000000000000000600052601160045260246000fd5b60006135cf82612736565b91507fffffffffffffffffffffffffffffffffffffffffffffffffffffffffffffffff820361360157613600613595565b5b600182019050919050565b600081905092915050565b600061362282612684565b61362c818561360c565b935061363c8185602086016126a0565b80840191505092915050565b60006136548285613617565b91506136608284613617565b91508190509392505050565b7f4f776e61626c653a206e6577206f776e657220697320746865207a65726f206160008201527f6464726573730000000000000000000000000000000000000000000000000000602082015250565b60006136c860268361268f565b91506136d38261366c565b604082019050919050565b600060208201905081810360008301526136f7816136bb565b9050919050565b7f4552433732313a207472616e736665722066726f6d20696e636f72726563742060008201527f6f776e6572000000000000000000000000000000000000000000000000000000602082015250565b600061375a60258361268f565b9150613765826136fe565b604082019050919050565b600060208201905081810360008301526137898161374d565b9050919050565b7f4552433732313a207472616e7366657220746f20746865207a65726f2061646460008201527f7265737300000000000000000000000000000000000000000000000000000000602082015250565b60006137ec60248361268f565b91506137f782613790565b604082019050919050565b6000602082019050818103600083015261381b816137df565b9050919050565b7f4f776e61626c653a2063616c6c6572206973206e6f7420746865206f776e6572600082015250565b600061385860208361268f565b915061386382613822565b602082019050919050565b600060208201905081810360008301526138878161384b565b9050919050565b7f4552433732313a20617070726f766520746f2063616c6c657200000000000000600082015250565b60006138c460198361268f565b91506138cf8261388e565b602082019050919050565b600060208201905081810360008301526138f3816138b7565b9050919050565b7f4552433732313a207472616e7366657220746f206e6f6e20455243373231526560008201527f63656976657220696d706c656d656e7465720000000000000000000000000000602082015250565b600061395660328361268f565b9150613961826138fa565b604082019050919050565b6000602082019050818103600083015261398581613949565b9050919050565b7f4e487b7100000000000000000000000000000000000000000000000000000000600052601260045260246000fd5b7f455243373231456e756d657261626c653a20636f6e736563757469766520747260008201527f616e7366657273206e6f7420737570706f727465640000000000000000000000602082015250565b6000613a1760358361268f565b9150613a22826139bb565b604082019050919050565b60006020820190508181036000830152613a4681613a0a565b9050919050565b600081519050919050565b600082825260208201905092915050565b6000613a7482613a4d565b613a7e8185613a58565b9350613a8e8185602086016126a0565b613a97816126ca565b840191505092915050565b6000608082019050613ab760008301876127cb565b613ac460208301866127cb565b613ad16040830185612861565b8181036060830152613ae38184613a69565b905095945050505050565b600081519050613afd816125f5565b92915050565b600060208284031215613b1957613b186125bf565b5b6000613b2784828501613aee565b91505092915050565b6000613b3b82612736565b9150613b4683612736565b9250828203905081811115613b5e57613b5d613595565b5b92915050565b7f4e487b7100000000000000000000000000000000000000000000000000000000600052603160045260246000fd5b7f4552433732313a206d696e7420746f20746865207a65726f2061646472657373600082015250565b6000613bc960208361268f565b9150613bd482613b93565b602082019050919050565b60006020820190508181036000830152613bf881613bbc565b9050919050565b7f4552433732313a20746f6b656e20616c7265616479206d696e74656400000000600082015250565b6000613c35601c8361268f565b9150613c4082613bff565b602082019050919050565b60006020820190508181036000830152613c6481613c28565b905091905056fea2646970667358221220f4fabf3c81aa8ac95b33558c8903337706817c5755e35e8955ca580c140e9a9664736f6c63430008110033",
  "immutableReferences": {},
  "source": "// SPDX-License-Identifier: MIT\npragma solidity >=0.8.0 <0.9.0;\n\nimport \"../node_modules/@openzeppelin/contracts/token/ERC721/ERC721.sol\";\nimport \"../node_modules/@openzeppelin/contracts/access/Ownable.sol\";\nimport \"../node_modules/@openzeppelin/contracts/utils/Counters.sol\";\nimport \"../node_modules/@openzeppelin/contracts/token/ERC721/extensions/ERC721Enumerable.sol\";\n\ncontract CarDealership is Ownable, ERC721Enumerable {\n  using Counters for Counters.Counter;\n  Counters.Counter private _tokenIdCounter;\n\n  constructor() ERC721(\"carTokens\", \"CAR\") {}\n\n  struct Car {\n    string licensePlate;\n    string brand;\n  }\n\n  mapping(uint256 => Car) private cars;\n\n  function mintCar(address _owner, string memory _licensePlate, string memory _brand) public returns (uint256) {\n    _tokenIdCounter.increment();\n\n    uint256 newCarId = _tokenIdCounter.current();\n    _safeMint(_owner, newCarId);\n\n    cars[newCarId] = Car(_licensePlate, _brand);\n\n    return newCarId;\n  }\n\n  function getCar(uint256 _tokenId) public view returns (string memory, string memory) {\n    require(_exists(_tokenId), \"Car does not exist\");\n\n    Car memory car = cars[_tokenId];\n\n    return (car.licensePlate, car.brand);\n  }\n\n  function getCarsByOwner(address _owner) public view returns (Car[] memory) {\n    uint256 tokenCount = balanceOf(_owner);\n    Car[] memory _cars = new Car[](tokenCount);\n\n    for (uint256 i = 0; i < tokenCount; i++) {\n      uint256 _tokenId = tokenOfOwnerByIndex(_owner, i);\n      _cars[i] = cars[_tokenId];\n    }\n\n    return _cars;\n  }\n\n  function testFunction() public pure returns (string memory) {\n    return \"TESTING IF THIS WORKS\";\n  }\n}",
  "sourcePath": "/Users/dennismoes/car-dealership/contract/contracts/CarDealership.sol",
  "compiler": {
    "name": "solc",
    "version": "0.8.17+commit.8df45f5f.Emscripten.clang"
  },
  "schemaVersion": "3.4.11",
  "updatedAt": "2023-03-10T09:33:53.561Z",
  "networkType": "ethereum",
  "devdoc": {
    "kind": "dev",
    "methods": {
      "approve(address,uint256)": {
        "details": "See {IERC721-approve}."
      },
      "balanceOf(address)": {
        "details": "See {IERC721-balanceOf}."
      },
      "getApproved(uint256)": {
        "details": "See {IERC721-getApproved}."
      },
      "isApprovedForAll(address,address)": {
        "details": "See {IERC721-isApprovedForAll}."
      },
      "name()": {
        "details": "See {IERC721Metadata-name}."
      },
      "owner()": {
        "details": "Returns the address of the current owner."
      },
      "ownerOf(uint256)": {
        "details": "See {IERC721-ownerOf}."
      },
      "renounceOwnership()": {
        "details": "Leaves the contract without owner. It will not be possible to call `onlyOwner` functions anymore. Can only be called by the current owner. NOTE: Renouncing ownership will leave the contract without an owner, thereby removing any functionality that is only available to the owner."
      },
      "safeTransferFrom(address,address,uint256)": {
        "details": "See {IERC721-safeTransferFrom}."
      },
      "safeTransferFrom(address,address,uint256,bytes)": {
        "details": "See {IERC721-safeTransferFrom}."
      },
      "setApprovalForAll(address,bool)": {
        "details": "See {IERC721-setApprovalForAll}."
      },
      "supportsInterface(bytes4)": {
        "details": "See {IERC165-supportsInterface}."
      },
      "symbol()": {
        "details": "See {IERC721Metadata-symbol}."
      },
      "tokenByIndex(uint256)": {
        "details": "See {IERC721Enumerable-tokenByIndex}."
      },
      "tokenOfOwnerByIndex(address,uint256)": {
        "details": "See {IERC721Enumerable-tokenOfOwnerByIndex}."
      },
      "tokenURI(uint256)": {
        "details": "See {IERC721Metadata-tokenURI}."
      },
      "totalSupply()": {
        "details": "See {IERC721Enumerable-totalSupply}."
      },
      "transferFrom(address,address,uint256)": {
        "details": "See {IERC721-transferFrom}."
      },
      "transferOwnership(address)": {
        "details": "Transfers ownership of the contract to a new account (`newOwner`). Can only be called by the current owner."
      }
    },
    "version": 1
  },
  "userdoc": {
    "kind": "user",
    "methods": {},
    "version": 1
  }
}