{
  "contractName": "CarDealership",
  "abi": [
    {
      "inputs": [],
      "stateMutability": "nonpayable",
      "type": "constructor"
    },
    {
      "anonymous": false,
      "inputs": [
        {
          "indexed": true,
          "internalType": "address",
          "name": "owner",
          "type": "address"
        },
        {
          "indexed": true,
          "internalType": "address",
          "name": "approved",
          "type": "address"
        },
        {
          "indexed": true,
          "internalType": "uint256",
          "name": "tokenId",
          "type": "uint256"
        }
      ],
      "name": "Approval",
      "type": "event"
    },
    {
      "anonymous": false,
      "inputs": [
        {
          "indexed": true,
          "internalType": "address",
          "name": "owner",
          "type": "address"
        },
        {
          "indexed": true,
          "internalType": "address",
          "name": "operator",
          "type": "address"
        },
        {
          "indexed": false,
          "internalType": "bool",
          "name": "approved",
          "type": "bool"
        }
      ],
      "name": "ApprovalForAll",
      "type": "event"
    },
    {
      "anonymous": false,
      "inputs": [
        {
          "indexed": true,
          "internalType": "uint256",
          "name": "tokenId",
          "type": "uint256"
        },
        {
          "indexed": true,
          "internalType": "address",
          "name": "buyer",
          "type": "address"
        },
        {
          "indexed": false,
          "internalType": "uint256",
          "name": "price",
          "type": "uint256"
        }
      ],
      "name": "CarSold",
      "type": "event"
    },
    {
      "anonymous": false,
      "inputs": [
        {
          "indexed": true,
          "internalType": "address",
          "name": "previousOwner",
          "type": "address"
        },
        {
          "indexed": true,
          "internalType": "address",
          "name": "newOwner",
          "type": "address"
        }
      ],
      "name": "OwnershipTransferred",
      "type": "event"
    },
    {
      "anonymous": false,
      "inputs": [
        {
          "indexed": true,
          "internalType": "address",
          "name": "from",
          "type": "address"
        },
        {
          "indexed": true,
          "internalType": "address",
          "name": "to",
          "type": "address"
        },
        {
          "indexed": true,
          "internalType": "uint256",
          "name": "tokenId",
          "type": "uint256"
        }
      ],
      "name": "Transfer",
      "type": "event"
    },
    {
      "stateMutability": "payable",
      "type": "fallback",
      "payable": true
    },
    {
      "inputs": [
        {
          "internalType": "address",
          "name": "to",
          "type": "address"
        },
        {
          "internalType": "uint256",
          "name": "tokenId",
          "type": "uint256"
        }
      ],
      "name": "approve",
      "outputs": [],
      "stateMutability": "nonpayable",
      "type": "function"
    },
    {
      "inputs": [
        {
          "internalType": "address",
          "name": "owner",
          "type": "address"
        }
      ],
      "name": "balanceOf",
      "outputs": [
        {
          "internalType": "uint256",
          "name": "",
          "type": "uint256"
        }
      ],
      "stateMutability": "view",
      "type": "function",
      "constant": true
    },
    {
      "inputs": [
        {
          "internalType": "uint256",
          "name": "tokenId",
          "type": "uint256"
        }
      ],
      "name": "getApproved",
      "outputs": [
        {
          "internalType": "address",
          "name": "",
          "type": "address"
        }
      ],
      "stateMutability": "view",
      "type": "function",
      "constant": true
    },
    {
      "inputs": [
        {
          "internalType": "address",
          "name": "owner",
          "type": "address"
        },
        {
          "internalType": "address",
          "name": "operator",
          "type": "address"
        }
      ],
      "name": "isApprovedForAll",
      "outputs": [
        {
          "internalType": "bool",
          "name": "",
          "type": "bool"
        }
      ],
      "stateMutability": "view",
      "type": "function",
      "constant": true
    },
    {
      "inputs": [],
      "name": "name",
      "outputs": [
        {
          "internalType": "string",
          "name": "",
          "type": "string"
        }
      ],
      "stateMutability": "view",
      "type": "function",
      "constant": true
    },
    {
      "inputs": [],
      "name": "owner",
      "outputs": [
        {
          "internalType": "address",
          "name": "",
          "type": "address"
        }
      ],
      "stateMutability": "view",
      "type": "function",
      "constant": true
    },
    {
      "inputs": [
        {
          "internalType": "uint256",
          "name": "tokenId",
          "type": "uint256"
        }
      ],
      "name": "ownerOf",
      "outputs": [
        {
          "internalType": "address",
          "name": "",
          "type": "address"
        }
      ],
      "stateMutability": "view",
      "type": "function",
      "constant": true
    },
    {
      "inputs": [],
      "name": "renounceOwnership",
      "outputs": [],
      "stateMutability": "nonpayable",
      "type": "function"
    },
    {
      "inputs": [
        {
          "internalType": "address",
          "name": "from",
          "type": "address"
        },
        {
          "internalType": "address",
          "name": "to",
          "type": "address"
        },
        {
          "internalType": "uint256",
          "name": "tokenId",
          "type": "uint256"
        }
      ],
      "name": "safeTransferFrom",
      "outputs": [],
      "stateMutability": "nonpayable",
      "type": "function"
    },
    {
      "inputs": [
        {
          "internalType": "address",
          "name": "from",
          "type": "address"
        },
        {
          "internalType": "address",
          "name": "to",
          "type": "address"
        },
        {
          "internalType": "uint256",
          "name": "tokenId",
          "type": "uint256"
        },
        {
          "internalType": "bytes",
          "name": "data",
          "type": "bytes"
        }
      ],
      "name": "safeTransferFrom",
      "outputs": [],
      "stateMutability": "nonpayable",
      "type": "function"
    },
    {
      "inputs": [
        {
          "internalType": "address",
          "name": "operator",
          "type": "address"
        },
        {
          "internalType": "bool",
          "name": "approved",
          "type": "bool"
        }
      ],
      "name": "setApprovalForAll",
      "outputs": [],
      "stateMutability": "nonpayable",
      "type": "function"
    },
    {
      "inputs": [
        {
          "internalType": "bytes4",
          "name": "interfaceId",
          "type": "bytes4"
        }
      ],
      "name": "supportsInterface",
      "outputs": [
        {
          "internalType": "bool",
          "name": "",
          "type": "bool"
        }
      ],
      "stateMutability": "view",
      "type": "function",
      "constant": true
    },
    {
      "inputs": [],
      "name": "symbol",
      "outputs": [
        {
          "internalType": "string",
          "name": "",
          "type": "string"
        }
      ],
      "stateMutability": "view",
      "type": "function",
      "constant": true
    },
    {
      "inputs": [
        {
          "internalType": "uint256",
          "name": "index",
          "type": "uint256"
        }
      ],
      "name": "tokenByIndex",
      "outputs": [
        {
          "internalType": "uint256",
          "name": "",
          "type": "uint256"
        }
      ],
      "stateMutability": "view",
      "type": "function",
      "constant": true
    },
    {
      "inputs": [
        {
          "internalType": "address",
          "name": "owner",
          "type": "address"
        },
        {
          "internalType": "uint256",
          "name": "index",
          "type": "uint256"
        }
      ],
      "name": "tokenOfOwnerByIndex",
      "outputs": [
        {
          "internalType": "uint256",
          "name": "",
          "type": "uint256"
        }
      ],
      "stateMutability": "view",
      "type": "function",
      "constant": true
    },
    {
      "inputs": [
        {
          "internalType": "uint256",
          "name": "tokenId",
          "type": "uint256"
        }
      ],
      "name": "tokenURI",
      "outputs": [
        {
          "internalType": "string",
          "name": "",
          "type": "string"
        }
      ],
      "stateMutability": "view",
      "type": "function",
      "constant": true
    },
    {
      "inputs": [],
      "name": "totalSupply",
      "outputs": [
        {
          "internalType": "uint256",
          "name": "",
          "type": "uint256"
        }
      ],
      "stateMutability": "view",
      "type": "function",
      "constant": true
    },
    {
      "inputs": [
        {
          "internalType": "address",
          "name": "from",
          "type": "address"
        },
        {
          "internalType": "address",
          "name": "to",
          "type": "address"
        },
        {
          "internalType": "uint256",
          "name": "tokenId",
          "type": "uint256"
        }
      ],
      "name": "transferFrom",
      "outputs": [],
      "stateMutability": "nonpayable",
      "type": "function"
    },
    {
      "inputs": [
        {
          "internalType": "address",
          "name": "newOwner",
          "type": "address"
        }
      ],
      "name": "transferOwnership",
      "outputs": [],
      "stateMutability": "nonpayable",
      "type": "function"
    },
    {
      "stateMutability": "payable",
      "type": "receive",
      "payable": true
    },
    {
      "inputs": [
        {
          "internalType": "address",
          "name": "_owner",
          "type": "address"
        },
        {
          "internalType": "string",
          "name": "_licensePlate",
          "type": "string"
        },
        {
          "internalType": "string",
          "name": "_chassisNumber",
          "type": "string"
        },
        {
          "internalType": "string",
          "name": "_brand",
          "type": "string"
        },
        {
          "internalType": "string",
          "name": "_carType",
          "type": "string"
        },
        {
          "internalType": "string",
          "name": "_colour",
          "type": "string"
        },
        {
          "internalType": "uint256",
          "name": "_mileage",
          "type": "uint256"
        },
        {
          "internalType": "uint256",
          "name": "_price",
          "type": "uint256"
        },
        {
          "internalType": "string",
          "name": "_metadataUri",
          "type": "string"
        }
      ],
      "name": "mintCar",
      "outputs": [
        {
          "internalType": "uint256",
          "name": "",
          "type": "uint256"
        }
      ],
      "stateMutability": "nonpayable",
      "type": "function"
    },
    {
      "inputs": [
        {
          "internalType": "uint256",
          "name": "_tokenId",
          "type": "uint256"
        }
      ],
      "name": "buyCar",
      "outputs": [],
      "stateMutability": "payable",
      "type": "function",
      "payable": true
    },
    {
      "inputs": [
        {
          "internalType": "uint256",
          "name": "_tokenId",
          "type": "uint256"
        }
      ],
      "name": "cancelCarOrder",
      "outputs": [],
      "stateMutability": "nonpayable",
      "type": "function"
    },
    {
      "inputs": [
        {
          "internalType": "uint256",
          "name": "_tokenId",
          "type": "uint256"
        }
      ],
      "name": "retrieveCar",
      "outputs": [],
      "stateMutability": "payable",
      "type": "function",
      "payable": true
    },
    {
      "inputs": [
        {
          "internalType": "uint256",
          "name": "_tokenId",
          "type": "uint256"
        }
      ],
      "name": "getCarByToken",
      "outputs": [
        {
          "components": [
            {
              "internalType": "address",
              "name": "owner",
              "type": "address"
            },
            {
              "internalType": "uint256",
              "name": "tokenId",
              "type": "uint256"
            },
            {
              "internalType": "string",
              "name": "licensePlate",
              "type": "string"
            },
            {
              "internalType": "string",
              "name": "chassisNumber",
              "type": "string"
            },
            {
              "internalType": "string",
              "name": "brand",
              "type": "string"
            },
            {
              "internalType": "string",
              "name": "carType",
              "type": "string"
            },
            {
              "internalType": "string",
              "name": "colour",
              "type": "string"
            },
            {
              "internalType": "uint256",
              "name": "mileage",
              "type": "uint256"
            },
            {
              "internalType": "bool",
              "name": "sold",
              "type": "bool"
            },
            {
              "internalType": "address",
              "name": "buyer",
              "type": "address"
            },
            {
              "internalType": "uint256",
              "name": "price",
              "type": "uint256"
            },
            {
              "internalType": "string",
              "name": "metadataUri",
              "type": "string"
            }
          ],
          "internalType": "struct CarDealership.Car",
          "name": "",
          "type": "tuple"
        }
      ],
      "stateMutability": "view",
      "type": "function",
      "constant": true
    },
    {
      "inputs": [
        {
          "internalType": "address",
          "name": "_owner",
          "type": "address"
        }
      ],
      "name": "getCarsByOwner",
      "outputs": [
        {
          "components": [
            {
              "internalType": "address",
              "name": "owner",
              "type": "address"
            },
            {
              "internalType": "uint256",
              "name": "tokenId",
              "type": "uint256"
            },
            {
              "internalType": "string",
              "name": "licensePlate",
              "type": "string"
            },
            {
              "internalType": "string",
              "name": "chassisNumber",
              "type": "string"
            },
            {
              "internalType": "string",
              "name": "brand",
              "type": "string"
            },
            {
              "internalType": "string",
              "name": "carType",
              "type": "string"
            },
            {
              "internalType": "string",
              "name": "colour",
              "type": "string"
            },
            {
              "internalType": "uint256",
              "name": "mileage",
              "type": "uint256"
            },
            {
              "internalType": "bool",
              "name": "sold",
              "type": "bool"
            },
            {
              "internalType": "address",
              "name": "buyer",
              "type": "address"
            },
            {
              "internalType": "uint256",
              "name": "price",
              "type": "uint256"
            },
            {
              "internalType": "string",
              "name": "metadataUri",
              "type": "string"
            }
          ],
          "internalType": "struct CarDealership.Car[]",
          "name": "",
          "type": "tuple[]"
        }
      ],
      "stateMutability": "view",
      "type": "function",
      "constant": true
    },
    {
      "inputs": [],
      "name": "getAllCars",
      "outputs": [
        {
          "components": [
            {
              "internalType": "address",
              "name": "owner",
              "type": "address"
            },
            {
              "internalType": "uint256",
              "name": "tokenId",
              "type": "uint256"
            },
            {
              "internalType": "string",
              "name": "licensePlate",
              "type": "string"
            },
            {
              "internalType": "string",
              "name": "chassisNumber",
              "type": "string"
            },
            {
              "internalType": "string",
              "name": "brand",
              "type": "string"
            },
            {
              "internalType": "string",
              "name": "carType",
              "type": "string"
            },
            {
              "internalType": "string",
              "name": "colour",
              "type": "string"
            },
            {
              "internalType": "uint256",
              "name": "mileage",
              "type": "uint256"
            },
            {
              "internalType": "bool",
              "name": "sold",
              "type": "bool"
            },
            {
              "internalType": "address",
              "name": "buyer",
              "type": "address"
            },
            {
              "internalType": "uint256",
              "name": "price",
              "type": "uint256"
            },
            {
              "internalType": "string",
              "name": "metadataUri",
              "type": "string"
            }
          ],
          "internalType": "struct CarDealership.Car[]",
          "name": "",
          "type": "tuple[]"
        }
      ],
      "stateMutability": "view",
      "type": "function",
      "constant": true
    },
    {
      "inputs": [
        {
          "internalType": "uint256",
          "name": "_tokenId",
          "type": "uint256"
        },
        {
          "internalType": "uint256",
          "name": "_mileage",
          "type": "uint256"
        }
      ],
      "name": "changeMileage",
      "outputs": [
        {
          "components": [
            {
              "internalType": "address",
              "name": "owner",
              "type": "address"
            },
            {
              "internalType": "uint256",
              "name": "tokenId",
              "type": "uint256"
            },
            {
              "internalType": "string",
              "name": "licensePlate",
              "type": "string"
            },
            {
              "internalType": "string",
              "name": "chassisNumber",
              "type": "string"
            },
            {
              "internalType": "string",
              "name": "brand",
              "type": "string"
            },
            {
              "internalType": "string",
              "name": "carType",
              "type": "string"
            },
            {
              "internalType": "string",
              "name": "colour",
              "type": "string"
            },
            {
              "internalType": "uint256",
              "name": "mileage",
              "type": "uint256"
            },
            {
              "internalType": "bool",
              "name": "sold",
              "type": "bool"
            },
            {
              "internalType": "address",
              "name": "buyer",
              "type": "address"
            },
            {
              "internalType": "uint256",
              "name": "price",
              "type": "uint256"
            },
            {
              "internalType": "string",
              "name": "metadataUri",
              "type": "string"
            }
          ],
          "internalType": "struct CarDealership.Car",
          "name": "",
          "type": "tuple"
        }
      ],
      "stateMutability": "nonpayable",
      "type": "function"
    }
  ],
  "bytecode": "0x60806040523480156200001157600080fd5b506040518060400160405280600981526020017f636172546f6b656e7300000000000000000000000000000000000000000000008152506040518060400160405280600381526020017f43415200000000000000000000000000000000000000000000000000000000008152506200009e62000092620000ca60201b60201c565b620000d260201b60201c565b8160019081620000af919062000410565b508060029081620000c1919062000410565b505050620004f7565b600033905090565b60008060009054906101000a900473ffffffffffffffffffffffffffffffffffffffff169050816000806101000a81548173ffffffffffffffffffffffffffffffffffffffff021916908373ffffffffffffffffffffffffffffffffffffffff1602179055508173ffffffffffffffffffffffffffffffffffffffff168173ffffffffffffffffffffffffffffffffffffffff167f8be0079c531659141344cd1fd0a4f28419497f9722a3daafe3b4186f6b6457e060405160405180910390a35050565b600081519050919050565b7f4e487b7100000000000000000000000000000000000000000000000000000000600052604160045260246000fd5b7f4e487b7100000000000000000000000000000000000000000000000000000000600052602260045260246000fd5b600060028204905060018216806200021857607f821691505b6020821081036200022e576200022d620001d0565b5b50919050565b60008190508160005260206000209050919050565b60006020601f8301049050919050565b600082821b905092915050565b600060088302620002987fffffffffffffffffffffffffffffffffffffffffffffffffffffffffffffffff8262000259565b620002a4868362000259565b95508019841693508086168417925050509392505050565b6000819050919050565b6000819050919050565b6000620002f1620002eb620002e584620002bc565b620002c6565b620002bc565b9050919050565b6000819050919050565b6200030d83620002d0565b620003256200031c82620002f8565b84845462000266565b825550505050565b600090565b6200033c6200032d565b6200034981848462000302565b505050565b5b8181101562000371576200036560008262000332565b6001810190506200034f565b5050565b601f821115620003c0576200038a8162000234565b620003958462000249565b81016020851015620003a5578190505b620003bd620003b48562000249565b8301826200034e565b50505b505050565b600082821c905092915050565b6000620003e560001984600802620003c5565b1980831691505092915050565b6000620004008383620003d2565b9150826002028217905092915050565b6200041b8262000196565b67ffffffffffffffff811115620004375762000436620001a1565b5b620004438254620001ff565b6200045082828562000375565b600060209050601f83116001811462000488576000841562000473578287015190505b6200047f8582620003f2565b865550620004ef565b601f198416620004988662000234565b60005b82811015620004c2578489015182556001820191506020850194506020810190506200049b565b86831015620004e25784890151620004de601f891682620003d2565b8355505b6001600288020188555050505b505050505050565b615f4e80620005076000396000f3fe6080604052600436106101a05760003560e01c80636c231060116100ec578063abfe5d571161008a578063c75bb4f411610064578063c75bb4f4146105ea578063c87b56dd14610627578063e985e9c514610664578063f2fde38b146106a1576101a7565b8063abfe5d5714610559578063b88d4fde14610584578063c68c758a146105ad576101a7565b80638da5cb5b116100c65780638da5cb5b1461049d5780638f5f8a0c146104c857806395d89b4114610505578063a22cb46514610530576101a7565b80636c2310601461042d57806370a0823114610449578063715018a614610486576101a7565b806323b872dd1161015957806342842e0e1161013357806342842e0e146103615780634f6ccce71461038a5780634fef82fc146103c75780636352211e146103f0576101a7565b806323b872dd146102df5780632f745c59146103085780633c54d98014610345576101a7565b806301ffc9a7146101a957806306fdde03146101e6578063081812fc14610211578063095ea7b31461024e57806311f9d2221461027757806318160ddd146102b4576101a7565b366101a757005b005b3480156101b557600080fd5b506101d060048036038101906101cb91906144fc565b6106ca565b6040516101dd9190614544565b60405180910390f35b3480156101f257600080fd5b506101fb610744565b60405161020891906145ef565b60405180910390f35b34801561021d57600080fd5b5061023860048036038101906102339190614647565b6107d6565b60405161024591906146b5565b60405180910390f35b34801561025a57600080fd5b50610275600480360381019061027091906146fc565b61081c565b005b34801561028357600080fd5b5061029e6004803603810190610299919061473c565b610933565b6040516102ab919061491a565b60405180910390f35b3480156102c057600080fd5b506102c9610e43565b6040516102d6919061494b565b60405180910390f35b3480156102eb57600080fd5b5061030660048036038101906103019190614966565b610e50565b005b34801561031457600080fd5b5061032f600480360381019061032a91906146fc565b610eb0565b60405161033c919061494b565b60405180910390f35b61035f600480360381019061035a9190614647565b610f55565b005b34801561036d57600080fd5b5061038860048036038101906103839190614966565b61132d565b005b34801561039657600080fd5b506103b160048036038101906103ac9190614647565b61134d565b6040516103be919061494b565b60405180910390f35b3480156103d357600080fd5b506103ee60048036038101906103e99190614647565b6113be565b005b3480156103fc57600080fd5b5061041760048036038101906104129190614647565b611724565b60405161042491906146b5565b60405180910390f35b61044760048036038101906104429190614647565b6117aa565b005b34801561045557600080fd5b50610470600480360381019061046b91906149b9565b611a99565b60405161047d919061494b565b60405180910390f35b34801561049257600080fd5b5061049b611b50565b005b3480156104a957600080fd5b506104b2611b64565b6040516104bf91906146b5565b60405180910390f35b3480156104d457600080fd5b506104ef60048036038101906104ea9190614b1b565b611b8d565b6040516104fc919061494b565b60405180910390f35b34801561051157600080fd5b5061051a611dae565b60405161052791906145ef565b60405180910390f35b34801561053c57600080fd5b5061055760048036038101906105529190614cb9565b611e40565b005b34801561056557600080fd5b5061056e611e56565b60405161057b9190614ee2565b60405180910390f35b34801561059057600080fd5b506105ab60048036038101906105a69190614fa5565b612379565b005b3480156105b957600080fd5b506105d460048036038101906105cf9190614647565b6123db565b6040516105e1919061491a565b60405180910390f35b3480156105f657600080fd5b50610611600480360381019061060c91906149b9565b6128db565b60405161061e9190614ee2565b60405180910390f35b34801561063357600080fd5b5061064e60048036038101906106499190614647565b612e08565b60405161065b91906145ef565b60405180910390f35b34801561067057600080fd5b5061068b60048036038101906106869190615028565b612e70565b6040516106989190614544565b60405180910390f35b3480156106ad57600080fd5b506106c860048036038101906106c391906149b9565b612f04565b005b60007f780e9d63000000000000000000000000000000000000000000000000000000007bffffffffffffffffffffffffffffffffffffffffffffffffffffffff1916827bffffffffffffffffffffffffffffffffffffffffffffffffffffffff1916148061073d575061073c82612f87565b5b9050919050565b60606001805461075390615097565b80601f016020809104026020016040519081016040528092919081815260200182805461077f90615097565b80156107cc5780601f106107a1576101008083540402835291602001916107cc565b820191906000526020600020905b8154815290600101906020018083116107af57829003601f168201915b5050505050905090565b60006107e182613069565b6005600083815260200190815260200160002060009054906101000a900473ffffffffffffffffffffffffffffffffffffffff169050919050565b600061082782611724565b90508073ffffffffffffffffffffffffffffffffffffffff168373ffffffffffffffffffffffffffffffffffffffff1603610897576040517f08c379a000000000000000000000000000000000000000000000000000000000815260040161088e9061513a565b60405180910390fd5b8073ffffffffffffffffffffffffffffffffffffffff166108b66130b4565b73ffffffffffffffffffffffffffffffffffffffff1614806108e557506108e4816108df6130b4565b612e70565b5b610924576040517f08c379a000000000000000000000000000000000000000000000000000000000815260040161091b906151cc565b60405180910390fd5b61092e83836130bc565b505050565b61093b614401565b61094483613175565b6040518060400160405280600d81526020017f436172206e6f7420666f756e6400000000000000000000000000000000000000815250906109bb576040517f08c379a00000000000000000000000000000000000000000000000000000000081526004016109b291906145ef565b60405180910390fd5b506000600c6000858152602001908152602001600020905082816007018190555080604051806101800160405290816000820160009054906101000a900473ffffffffffffffffffffffffffffffffffffffff1673ffffffffffffffffffffffffffffffffffffffff1673ffffffffffffffffffffffffffffffffffffffff16815260200160018201548152602001600282018054610a5990615097565b80601f0160208091040260200160405190810160405280929190818152602001828054610a8590615097565b8015610ad25780601f10610aa757610100808354040283529160200191610ad2565b820191906000526020600020905b815481529060010190602001808311610ab557829003601f168201915b50505050508152602001600382018054610aeb90615097565b80601f0160208091040260200160405190810160405280929190818152602001828054610b1790615097565b8015610b645780601f10610b3957610100808354040283529160200191610b64565b820191906000526020600020905b815481529060010190602001808311610b4757829003601f168201915b50505050508152602001600482018054610b7d90615097565b80601f0160208091040260200160405190810160405280929190818152602001828054610ba990615097565b8015610bf65780601f10610bcb57610100808354040283529160200191610bf6565b820191906000526020600020905b815481529060010190602001808311610bd957829003601f168201915b50505050508152602001600582018054610c0f90615097565b80601f0160208091040260200160405190810160405280929190818152602001828054610c3b90615097565b8015610c885780601f10610c5d57610100808354040283529160200191610c88565b820191906000526020600020905b815481529060010190602001808311610c6b57829003601f168201915b50505050508152602001600682018054610ca190615097565b80601f0160208091040260200160405190810160405280929190818152602001828054610ccd90615097565b8015610d1a5780601f10610cef57610100808354040283529160200191610d1a565b820191906000526020600020905b815481529060010190602001808311610cfd57829003601f168201915b50505050508152602001600782015481526020016008820160009054906101000a900460ff161515151581526020016008820160019054906101000a900473ffffffffffffffffffffffffffffffffffffffff1673ffffffffffffffffffffffffffffffffffffffff1673ffffffffffffffffffffffffffffffffffffffff16815260200160098201548152602001600a82018054610db890615097565b80601f0160208091040260200160405190810160405280929190818152602001828054610de490615097565b8015610e315780601f10610e0657610100808354040283529160200191610e31565b820191906000526020600020905b815481529060010190602001808311610e1457829003601f168201915b50505050508152505091505092915050565b6000600980549050905090565b610e61610e5b6130b4565b826131b6565b610ea0576040517f08c379a0000000000000000000000000000000000000000000000000000000008152600401610e979061525e565b60405180910390fd5b610eab83838361324b565b505050565b6000610ebb83611a99565b8210610efc576040517f08c379a0000000000000000000000000000000000000000000000000000000008152600401610ef3906152f0565b60405180910390fd5b600760008473ffffffffffffffffffffffffffffffffffffffff1673ffffffffffffffffffffffffffffffffffffffff168152602001908152602001600020600083815260200190815260200160002054905092915050565b610f5e81613175565b6040518060400160405280600d81526020017f436172206e6f7420666f756e640000000000000000000000000000000000000081525090610fd5576040517f08c379a0000000000000000000000000000000000000000000000000000000008152600401610fcc91906145ef565b60405180910390fd5b506000600c600083815260200190815260200160002090508060080160009054906101000a900460ff166040518060400160405280601d81526020017f5468652063617220686173206e6f74206265656e20736f6c642079657400000081525090611076576040517f08c379a000000000000000000000000000000000000000000000000000000000815260040161106d91906145ef565b60405180910390fd5b508060080160019054906101000a900473ffffffffffffffffffffffffffffffffffffffff1673ffffffffffffffffffffffffffffffffffffffff163373ffffffffffffffffffffffffffffffffffffffff1614604051806060016040528060248152602001615eac6024913990611124576040517f08c379a000000000000000000000000000000000000000000000000000000000815260040161111b91906145ef565b60405180910390fd5b50600061113083611724565b905060008260080160019054906101000a900473ffffffffffffffffffffffffffffffffffffffff1690506000670de0b6b3a76400008460090154611175919061533f565b905060008373ffffffffffffffffffffffffffffffffffffffff168260405161119d906153b2565b60006040518083038185875af1925050503d80600081146111da576040519150601f19603f3d011682016040523d82523d6000602084013e6111df565b606091505b50509050806040518060400160405280601881526020017f4661696c656420746f207472616e7366657220657468657200000000000000008152509061125b576040517f08c379a000000000000000000000000000000000000000000000000000000000815260040161125291906145ef565b60405180910390fd5b5061127784848860405180602001604052806000815250613544565b60008560080160006101000a81548160ff02191690831515021790555060008560080160016101000a81548173ffffffffffffffffffffffffffffffffffffffff021916908373ffffffffffffffffffffffffffffffffffffffff16021790555060008560090181905550828560000160006101000a81548173ffffffffffffffffffffffffffffffffffffffff021916908373ffffffffffffffffffffffffffffffffffffffff160217905550505050505050565b61134883838360405180602001604052806000815250612379565b505050565b6000611357610e43565b8210611398576040517f08c379a000000000000000000000000000000000000000000000000000000000815260040161138f90615439565b60405180910390fd5b600982815481106113ac576113ab615459565b5b90600052602060002001549050919050565b6113c781613175565b6040518060400160405280600d81526020017f436172206e6f7420666f756e64000000000000000000000000000000000000008152509061143e576040517f08c379a000000000000000000000000000000000000000000000000000000000815260040161143591906145ef565b60405180910390fd5b506000600c600083815260200190815260200160002090508060080160009054906101000a900460ff166040518060400160405280601d81526020017f5468652063617220686173206e6f74206265656e20736f6c6420796574000000815250906114df576040517f08c379a00000000000000000000000000000000000000000000000000000000081526004016114d691906145ef565b60405180910390fd5b508060080160019054906101000a900473ffffffffffffffffffffffffffffffffffffffff1673ffffffffffffffffffffffffffffffffffffffff163373ffffffffffffffffffffffffffffffffffffffff1614604051806060016040528060248152602001615ef5602491399061158d576040517f08c379a000000000000000000000000000000000000000000000000000000000815260040161158491906145ef565b60405180910390fd5b506000670de0b6b3a764000082600901546115a8919061533f565b905060008260080160019054906101000a900473ffffffffffffffffffffffffffffffffffffffff1673ffffffffffffffffffffffffffffffffffffffff16826040516115f4906153b2565b60006040518083038185875af1925050503d8060008114611631576040519150601f19603f3d011682016040523d82523d6000602084013e611636565b606091505b50509050806040518060400160405280601881526020017f4661696c656420746f207472616e736665722065746865720000000000000000815250906116b2576040517f08c379a00000000000000000000000000000000000000000000000000000000081526004016116a991906145ef565b60405180910390fd5b5060008360080160006101000a81548160ff02191690831515021790555060008360080160016101000a81548173ffffffffffffffffffffffffffffffffffffffff021916908373ffffffffffffffffffffffffffffffffffffffff1602179055506000836009018190555050505050565b600080611730836135a0565b9050600073ffffffffffffffffffffffffffffffffffffffff168173ffffffffffffffffffffffffffffffffffffffff16036117a1576040517f08c379a0000000000000000000000000000000000000000000000000000000008152600401611798906154d4565b60405180910390fd5b80915050919050565b6117b381613175565b6040518060400160405280600d81526020017f436172206e6f7420666f756e64000000000000000000000000000000000000008152509061182a576040517f08c379a000000000000000000000000000000000000000000000000000000000815260040161182191906145ef565b60405180910390fd5b506000600c60008381526020019081526020016000209050600061184d83611724565b90503373ffffffffffffffffffffffffffffffffffffffff168173ffffffffffffffffffffffffffffffffffffffff1614156040518060400160405280601b81526020017f596f752063616e6e6f742062757920796f7572206f776e206361720000000000815250906118f6576040517f08c379a00000000000000000000000000000000000000000000000000000000081526004016118ed91906145ef565b60405180910390fd5b508160080160009054906101000a900460ff16156040518060400160405280601d81526020017f546865206361722068617320616c7265616479206265656e20736f6c6400000081525090611981576040517f08c379a000000000000000000000000000000000000000000000000000000000815260040161197891906145ef565b60405180910390fd5b508160090154341015604051806060016040528060258152602001615ed060259139906119e4576040517f08c379a00000000000000000000000000000000000000000000000000000000081526004016119db91906145ef565b60405180910390fd5b5060018260080160006101000a81548160ff021916908315150217905550338260080160016101000a81548173ffffffffffffffffffffffffffffffffffffffff021916908373ffffffffffffffffffffffffffffffffffffffff1602179055503373ffffffffffffffffffffffffffffffffffffffff16837f9d90e6b7483b210fb2eb1814d730195955d020389f316a5127d8f07d6fe61c8b34604051611a8c919061494b565b60405180910390a3505050565b60008073ffffffffffffffffffffffffffffffffffffffff168273ffffffffffffffffffffffffffffffffffffffff1603611b09576040517f08c379a0000000000000000000000000000000000000000000000000000000008152600401611b0090615566565b60405180910390fd5b600460008373ffffffffffffffffffffffffffffffffffffffff1673ffffffffffffffffffffffffffffffffffffffff168152602001908152602001600020549050919050565b611b586135dd565b611b62600061365b565b565b60008060009054906101000a900473ffffffffffffffffffffffffffffffffffffffff16905090565b6000611b99600b61371f565b6000611ba5600b613735565b9050611bb18b82613743565b6040518061018001604052808c73ffffffffffffffffffffffffffffffffffffffff1681526020018281526020018b81526020018a8152602001898152602001888152602001878152602001868152602001600015158152602001600073ffffffffffffffffffffffffffffffffffffffff16815260200185815260200184815250600c600083815260200190815260200160002060008201518160000160006101000a81548173ffffffffffffffffffffffffffffffffffffffff021916908373ffffffffffffffffffffffffffffffffffffffff160217905550602082015181600101556040820151816002019081611cac9190615732565b506060820151816003019081611cc29190615732565b506080820151816004019081611cd89190615732565b5060a0820151816005019081611cee9190615732565b5060c0820151816006019081611d049190615732565b5060e082015181600701556101008201518160080160006101000a81548160ff0219169083151502179055506101208201518160080160016101000a81548173ffffffffffffffffffffffffffffffffffffffff021916908373ffffffffffffffffffffffffffffffffffffffff160217905550610140820151816009015561016082015181600a019081611d999190615732565b50905050809150509998505050505050505050565b606060028054611dbd90615097565b80601f0160208091040260200160405190810160405280929190818152602001828054611de990615097565b8015611e365780601f10611e0b57610100808354040283529160200191611e36565b820191906000526020600020905b815481529060010190602001808311611e1957829003601f168201915b5050505050905090565b611e52611e4b6130b4565b8383613761565b5050565b60606000611e62610e43565b905060008167ffffffffffffffff811115611e8057611e7f6149f0565b5b604051908082528060200260200182016040528015611eb957816020015b611ea6614401565b815260200190600190039081611e9e5790505b50905060005b8281101561237057600c6000611ed48361134d565b8152602001908152602001600020604051806101800160405290816000820160009054906101000a900473ffffffffffffffffffffffffffffffffffffffff1673ffffffffffffffffffffffffffffffffffffffff1673ffffffffffffffffffffffffffffffffffffffff16815260200160018201548152602001600282018054611f5e90615097565b80601f0160208091040260200160405190810160405280929190818152602001828054611f8a90615097565b8015611fd75780601f10611fac57610100808354040283529160200191611fd7565b820191906000526020600020905b815481529060010190602001808311611fba57829003601f168201915b50505050508152602001600382018054611ff090615097565b80601f016020809104026020016040519081016040528092919081815260200182805461201c90615097565b80156120695780601f1061203e57610100808354040283529160200191612069565b820191906000526020600020905b81548152906001019060200180831161204c57829003601f168201915b5050505050815260200160048201805461208290615097565b80601f01602080910402602001604051908101604052809291908181526020018280546120ae90615097565b80156120fb5780601f106120d0576101008083540402835291602001916120fb565b820191906000526020600020905b8154815290600101906020018083116120de57829003601f168201915b5050505050815260200160058201805461211490615097565b80601f016020809104026020016040519081016040528092919081815260200182805461214090615097565b801561218d5780601f106121625761010080835404028352916020019161218d565b820191906000526020600020905b81548152906001019060200180831161217057829003601f168201915b505050505081526020016006820180546121a690615097565b80601f01602080910402602001604051908101604052809291908181526020018280546121d290615097565b801561221f5780601f106121f45761010080835404028352916020019161221f565b820191906000526020600020905b81548152906001019060200180831161220257829003601f168201915b50505050508152602001600782015481526020016008820160009054906101000a900460ff161515151581526020016008820160019054906101000a900473ffffffffffffffffffffffffffffffffffffffff1673ffffffffffffffffffffffffffffffffffffffff1673ffffffffffffffffffffffffffffffffffffffff16815260200160098201548152602001600a820180546122bd90615097565b80601f01602080910402602001604051908101604052809291908181526020018280546122e990615097565b80156123365780601f1061230b57610100808354040283529160200191612336565b820191906000526020600020905b81548152906001019060200180831161231957829003601f168201915b50505050508152505082828151811061235257612351615459565b5b6020026020010181905250808061236890615804565b915050611ebf565b50809250505090565b61238a6123846130b4565b836131b6565b6123c9576040517f08c379a00000000000000000000000000000000000000000000000000000000081526004016123c09061525e565b60405180910390fd5b6123d584848484613544565b50505050565b6123e3614401565b6123ec82613175565b6040518060400160405280600d81526020017f436172206e6f7420666f756e640000000000000000000000000000000000000081525090612463576040517f08c379a000000000000000000000000000000000000000000000000000000000815260040161245a91906145ef565b60405180910390fd5b50600c6000838152602001908152602001600020604051806101800160405290816000820160009054906101000a900473ffffffffffffffffffffffffffffffffffffffff1673ffffffffffffffffffffffffffffffffffffffff1673ffffffffffffffffffffffffffffffffffffffff168152602001600182015481526020016002820180546124f390615097565b80601f016020809104026020016040519081016040528092919081815260200182805461251f90615097565b801561256c5780601f106125415761010080835404028352916020019161256c565b820191906000526020600020905b81548152906001019060200180831161254f57829003601f168201915b5050505050815260200160038201805461258590615097565b80601f01602080910402602001604051908101604052809291908181526020018280546125b190615097565b80156125fe5780601f106125d3576101008083540402835291602001916125fe565b820191906000526020600020905b8154815290600101906020018083116125e157829003601f168201915b5050505050815260200160048201805461261790615097565b80601f016020809104026020016040519081016040528092919081815260200182805461264390615097565b80156126905780601f1061266557610100808354040283529160200191612690565b820191906000526020600020905b81548152906001019060200180831161267357829003601f168201915b505050505081526020016005820180546126a990615097565b80601f01602080910402602001604051908101604052809291908181526020018280546126d590615097565b80156127225780601f106126f757610100808354040283529160200191612722565b820191906000526020600020905b81548152906001019060200180831161270557829003601f168201915b5050505050815260200160068201805461273b90615097565b80601f016020809104026020016040519081016040528092919081815260200182805461276790615097565b80156127b45780601f10612789576101008083540402835291602001916127b4565b820191906000526020600020905b81548152906001019060200180831161279757829003601f168201915b50505050508152602001600782015481526020016008820160009054906101000a900460ff161515151581526020016008820160019054906101000a900473ffffffffffffffffffffffffffffffffffffffff1673ffffffffffffffffffffffffffffffffffffffff1673ffffffffffffffffffffffffffffffffffffffff16815260200160098201548152602001600a8201805461285290615097565b80601f016020809104026020016040519081016040528092919081815260200182805461287e90615097565b80156128cb5780601f106128a0576101008083540402835291602001916128cb565b820191906000526020600020905b8154815290600101906020018083116128ae57829003601f168201915b5050505050815250509050919050565b606060006128e883611a99565b905060008167ffffffffffffffff811115612906576129056149f0565b5b60405190808252806020026020018201604052801561293f57816020015b61292c614401565b8152602001906001900390816129245790505b50905060005b82811015612dfd5760006129598683610eb0565b9050600c6000828152602001908152602001600020604051806101800160405290816000820160009054906101000a900473ffffffffffffffffffffffffffffffffffffffff1673ffffffffffffffffffffffffffffffffffffffff1673ffffffffffffffffffffffffffffffffffffffff168152602001600182015481526020016002820180546129ea90615097565b80601f0160208091040260200160405190810160405280929190818152602001828054612a1690615097565b8015612a635780601f10612a3857610100808354040283529160200191612a63565b820191906000526020600020905b815481529060010190602001808311612a4657829003601f168201915b50505050508152602001600382018054612a7c90615097565b80601f0160208091040260200160405190810160405280929190818152602001828054612aa890615097565b8015612af55780601f10612aca57610100808354040283529160200191612af5565b820191906000526020600020905b815481529060010190602001808311612ad857829003601f168201915b50505050508152602001600482018054612b0e90615097565b80601f0160208091040260200160405190810160405280929190818152602001828054612b3a90615097565b8015612b875780601f10612b5c57610100808354040283529160200191612b87565b820191906000526020600020905b815481529060010190602001808311612b6a57829003601f168201915b50505050508152602001600582018054612ba090615097565b80601f0160208091040260200160405190810160405280929190818152602001828054612bcc90615097565b8015612c195780601f10612bee57610100808354040283529160200191612c19565b820191906000526020600020905b815481529060010190602001808311612bfc57829003601f168201915b50505050508152602001600682018054612c3290615097565b80601f0160208091040260200160405190810160405280929190818152602001828054612c5e90615097565b8015612cab5780601f10612c8057610100808354040283529160200191612cab565b820191906000526020600020905b815481529060010190602001808311612c8e57829003601f168201915b50505050508152602001600782015481526020016008820160009054906101000a900460ff161515151581526020016008820160019054906101000a900473ffffffffffffffffffffffffffffffffffffffff1673ffffffffffffffffffffffffffffffffffffffff1673ffffffffffffffffffffffffffffffffffffffff16815260200160098201548152602001600a82018054612d4990615097565b80601f0160208091040260200160405190810160405280929190818152602001828054612d7590615097565b8015612dc25780601f10612d9757610100808354040283529160200191612dc2565b820191906000526020600020905b815481529060010190602001808311612da557829003601f168201915b505050505081525050838381518110612dde57612ddd615459565b5b6020026020010181905250508080612df590615804565b915050612945565b508092505050919050565b6060612e1382613069565b6000612e1d6138cd565b90506000815111612e3d5760405180602001604052806000815250612e68565b80612e47846138e4565b604051602001612e58929190615888565b6040516020818303038152906040525b915050919050565b6000600660008473ffffffffffffffffffffffffffffffffffffffff1673ffffffffffffffffffffffffffffffffffffffff16815260200190815260200160002060008373ffffffffffffffffffffffffffffffffffffffff1673ffffffffffffffffffffffffffffffffffffffff16815260200190815260200160002060009054906101000a900460ff16905092915050565b612f0c6135dd565b600073ffffffffffffffffffffffffffffffffffffffff168173ffffffffffffffffffffffffffffffffffffffff1603612f7b576040517f08c379a0000000000000000000000000000000000000000000000000000000008152600401612f729061591e565b60405180910390fd5b612f848161365b565b50565b60007f80ac58cd000000000000000000000000000000000000000000000000000000007bffffffffffffffffffffffffffffffffffffffffffffffffffffffff1916827bffffffffffffffffffffffffffffffffffffffffffffffffffffffff1916148061305257507f5b5e139f000000000000000000000000000000000000000000000000000000007bffffffffffffffffffffffffffffffffffffffffffffffffffffffff1916827bffffffffffffffffffffffffffffffffffffffffffffffffffffffff1916145b806130625750613061826139b2565b5b9050919050565b61307281613175565b6130b1576040517f08c379a00000000000000000000000000000000000000000000000000000000081526004016130a8906154d4565b60405180910390fd5b50565b600033905090565b816005600083815260200190815260200160002060006101000a81548173ffffffffffffffffffffffffffffffffffffffff021916908373ffffffffffffffffffffffffffffffffffffffff160217905550808273ffffffffffffffffffffffffffffffffffffffff1661312f83611724565b73ffffffffffffffffffffffffffffffffffffffff167f8c5be1e5ebec7d5bd14f71427d1e84f3dd0314c0f7b2291e5b200ac8c7c3b92560405160405180910390a45050565b60008073ffffffffffffffffffffffffffffffffffffffff16613197836135a0565b73ffffffffffffffffffffffffffffffffffffffff1614159050919050565b6000806131c283611724565b90508073ffffffffffffffffffffffffffffffffffffffff168473ffffffffffffffffffffffffffffffffffffffff16148061320457506132038185612e70565b5b8061324257508373ffffffffffffffffffffffffffffffffffffffff1661322a846107d6565b73ffffffffffffffffffffffffffffffffffffffff16145b91505092915050565b8273ffffffffffffffffffffffffffffffffffffffff1661326b82611724565b73ffffffffffffffffffffffffffffffffffffffff16146132c1576040517f08c379a00000000000000000000000000000000000000000000000000000000081526004016132b8906159b0565b60405180910390fd5b600073ffffffffffffffffffffffffffffffffffffffff168273ffffffffffffffffffffffffffffffffffffffff1603613330576040517f08c379a000000000000000000000000000000000000000000000000000000000815260040161332790615a42565b60405180910390fd5b61333d8383836001613a1c565b8273ffffffffffffffffffffffffffffffffffffffff1661335d82611724565b73ffffffffffffffffffffffffffffffffffffffff16146133b3576040517f08c379a00000000000000000000000000000000000000000000000000000000081526004016133aa906159b0565b60405180910390fd5b6005600082815260200190815260200160002060006101000a81549073ffffffffffffffffffffffffffffffffffffffff02191690556001600460008573ffffffffffffffffffffffffffffffffffffffff1673ffffffffffffffffffffffffffffffffffffffff168152602001908152602001600020600082825403925050819055506001600460008473ffffffffffffffffffffffffffffffffffffffff1673ffffffffffffffffffffffffffffffffffffffff16815260200190815260200160002060008282540192505081905550816003600083815260200190815260200160002060006101000a81548173ffffffffffffffffffffffffffffffffffffffff021916908373ffffffffffffffffffffffffffffffffffffffff160217905550808273ffffffffffffffffffffffffffffffffffffffff168473ffffffffffffffffffffffffffffffffffffffff167fddf252ad1be2c89b69c2b068fc378daa952ba7f163c4a11628f55a4df523b3ef60405160405180910390a461353f8383836001613b7a565b505050565b61354f84848461324b565b61355b84848484613b80565b61359a576040517f08c379a000000000000000000000000000000000000000000000000000000000815260040161359190615ad4565b60405180910390fd5b50505050565b60006003600083815260200190815260200160002060009054906101000a900473ffffffffffffffffffffffffffffffffffffffff169050919050565b6135e56130b4565b73ffffffffffffffffffffffffffffffffffffffff16613603611b64565b73ffffffffffffffffffffffffffffffffffffffff1614613659576040517f08c379a000000000000000000000000000000000000000000000000000000000815260040161365090615b40565b60405180910390fd5b565b60008060009054906101000a900473ffffffffffffffffffffffffffffffffffffffff169050816000806101000a81548173ffffffffffffffffffffffffffffffffffffffff021916908373ffffffffffffffffffffffffffffffffffffffff1602179055508173ffffffffffffffffffffffffffffffffffffffff168173ffffffffffffffffffffffffffffffffffffffff167f8be0079c531659141344cd1fd0a4f28419497f9722a3daafe3b4186f6b6457e060405160405180910390a35050565b6001816000016000828254019250508190555050565b600081600001549050919050565b61375d828260405180602001604052806000815250613d07565b5050565b8173ffffffffffffffffffffffffffffffffffffffff168373ffffffffffffffffffffffffffffffffffffffff16036137cf576040517f08c379a00000000000000000000000000000000000000000000000000000000081526004016137c690615bac565b60405180910390fd5b80600660008573ffffffffffffffffffffffffffffffffffffffff1673ffffffffffffffffffffffffffffffffffffffff16815260200190815260200160002060008473ffffffffffffffffffffffffffffffffffffffff1673ffffffffffffffffffffffffffffffffffffffff16815260200190815260200160002060006101000a81548160ff0219169083151502179055508173ffffffffffffffffffffffffffffffffffffffff168373ffffffffffffffffffffffffffffffffffffffff167f17307eab39ab6107e8899845ad3d59bd9653f200f220920489ca2b5937696c31836040516138c09190614544565b60405180910390a3505050565b606060405180602001604052806000815250905090565b6060600060016138f384613d62565b01905060008167ffffffffffffffff811115613912576139116149f0565b5b6040519080825280601f01601f1916602001820160405280156139445781602001600182028036833780820191505090505b509050600082602001820190505b6001156139a7578080600190039150507f3031323334353637383961626364656600000000000000000000000000000000600a86061a8153600a858161399b5761399a615bcc565b5b04945060008503613952575b819350505050919050565b60007f01ffc9a7000000000000000000000000000000000000000000000000000000007bffffffffffffffffffffffffffffffffffffffffffffffffffffffff1916827bffffffffffffffffffffffffffffffffffffffffffffffffffffffff1916149050919050565b613a2884848484613eb5565b6001811115613a6c576040517f08c379a0000000000000000000000000000000000000000000000000000000008152600401613a6390615c6d565b60405180910390fd5b6000829050600073ffffffffffffffffffffffffffffffffffffffff168573ffffffffffffffffffffffffffffffffffffffff1603613ab357613aae81613ebb565b613af2565b8373ffffffffffffffffffffffffffffffffffffffff168573ffffffffffffffffffffffffffffffffffffffff1614613af157613af08582613f04565b5b5b600073ffffffffffffffffffffffffffffffffffffffff168473ffffffffffffffffffffffffffffffffffffffff1603613b3457613b2f81614071565b613b73565b8473ffffffffffffffffffffffffffffffffffffffff168473ffffffffffffffffffffffffffffffffffffffff1614613b7257613b718482614142565b5b5b5050505050565b50505050565b6000613ba18473ffffffffffffffffffffffffffffffffffffffff166141c1565b15613cfa578373ffffffffffffffffffffffffffffffffffffffff1663150b7a02613bca6130b4565b8786866040518563ffffffff1660e01b8152600401613bec9493929190615ce2565b6020604051808303816000875af1925050508015613c2857506040513d601f19601f82011682018060405250810190613c259190615d43565b60015b613caa573d8060008114613c58576040519150601f19603f3d011682016040523d82523d6000602084013e613c5d565b606091505b506000815103613ca2576040517f08c379a0000000000000000000000000000000000000000000000000000000008152600401613c9990615ad4565b60405180910390fd5b805181602001fd5b63150b7a0260e01b7bffffffffffffffffffffffffffffffffffffffffffffffffffffffff1916817bffffffffffffffffffffffffffffffffffffffffffffffffffffffff191614915050613cff565b600190505b949350505050565b613d1183836141e4565b613d1e6000848484613b80565b613d5d576040517f08c379a0000000000000000000000000000000000000000000000000000000008152600401613d5490615ad4565b60405180910390fd5b505050565b600080600090507a184f03e93ff9f4daa797ed6e38ed64bf6a1f0100000000000000008310613dc0577a184f03e93ff9f4daa797ed6e38ed64bf6a1f0100000000000000008381613db657613db5615bcc565b5b0492506040810190505b6d04ee2d6d415b85acef81000000008310613dfd576d04ee2d6d415b85acef81000000008381613df357613df2615bcc565b5b0492506020810190505b662386f26fc100008310613e2c57662386f26fc100008381613e2257613e21615bcc565b5b0492506010810190505b6305f5e1008310613e55576305f5e1008381613e4b57613e4a615bcc565b5b0492506008810190505b6127108310613e7a576127108381613e7057613e6f615bcc565b5b0492506004810190505b60648310613e9d5760648381613e9357613e92615bcc565b5b0492506002810190505b600a8310613eac576001810190505b80915050919050565b50505050565b600980549050600a600083815260200190815260200160002081905550600981908060018154018082558091505060019003906000526020600020016000909190919091505550565b60006001613f1184611a99565b613f1b9190615d70565b9050600060086000848152602001908152602001600020549050818114614000576000600760008673ffffffffffffffffffffffffffffffffffffffff1673ffffffffffffffffffffffffffffffffffffffff168152602001908152602001600020600084815260200190815260200160002054905080600760008773ffffffffffffffffffffffffffffffffffffffff1673ffffffffffffffffffffffffffffffffffffffff168152602001908152602001600020600084815260200190815260200160002081905550816008600083815260200190815260200160002081905550505b6008600084815260200190815260200160002060009055600760008573ffffffffffffffffffffffffffffffffffffffff1673ffffffffffffffffffffffffffffffffffffffff16815260200190815260200160002060008381526020019081526020016000206000905550505050565b600060016009805490506140859190615d70565b90506000600a60008481526020019081526020016000205490506000600983815481106140b5576140b4615459565b5b9060005260206000200154905080600983815481106140d7576140d6615459565b5b906000526020600020018190555081600a600083815260200190815260200160002081905550600a600085815260200190815260200160002060009055600980548061412657614125615da4565b5b6001900381819060005260206000200160009055905550505050565b600061414d83611a99565b905081600760008573ffffffffffffffffffffffffffffffffffffffff1673ffffffffffffffffffffffffffffffffffffffff168152602001908152602001600020600083815260200190815260200160002081905550806008600084815260200190815260200160002081905550505050565b6000808273ffffffffffffffffffffffffffffffffffffffff163b119050919050565b600073ffffffffffffffffffffffffffffffffffffffff168273ffffffffffffffffffffffffffffffffffffffff1603614253576040517f08c379a000000000000000000000000000000000000000000000000000000000815260040161424a90615e1f565b60405180910390fd5b61425c81613175565b1561429c576040517f08c379a000000000000000000000000000000000000000000000000000000000815260040161429390615e8b565b60405180910390fd5b6142aa600083836001613a1c565b6142b381613175565b156142f3576040517f08c379a00000000000000000000000000000000000000000000000000000000081526004016142ea90615e8b565b60405180910390fd5b6001600460008473ffffffffffffffffffffffffffffffffffffffff1673ffffffffffffffffffffffffffffffffffffffff16815260200190815260200160002060008282540192505081905550816003600083815260200190815260200160002060006101000a81548173ffffffffffffffffffffffffffffffffffffffff021916908373ffffffffffffffffffffffffffffffffffffffff160217905550808273ffffffffffffffffffffffffffffffffffffffff16600073ffffffffffffffffffffffffffffffffffffffff167fddf252ad1be2c89b69c2b068fc378daa952ba7f163c4a11628f55a4df523b3ef60405160405180910390a46143fd600083836001613b7a565b5050565b604051806101800160405280600073ffffffffffffffffffffffffffffffffffffffff16815260200160008152602001606081526020016060815260200160608152602001606081526020016060815260200160008152602001600015158152602001600073ffffffffffffffffffffffffffffffffffffffff16815260200160008152602001606081525090565b6000604051905090565b600080fd5b600080fd5b60007fffffffff0000000000000000000000000000000000000000000000000000000082169050919050565b6144d9816144a4565b81146144e457600080fd5b50565b6000813590506144f6816144d0565b92915050565b6000602082840312156145125761451161449a565b5b6000614520848285016144e7565b91505092915050565b60008115159050919050565b61453e81614529565b82525050565b60006020820190506145596000830184614535565b92915050565b600081519050919050565b600082825260208201905092915050565b60005b8381101561459957808201518184015260208101905061457e565b60008484015250505050565b6000601f19601f8301169050919050565b60006145c18261455f565b6145cb818561456a565b93506145db81856020860161457b565b6145e4816145a5565b840191505092915050565b6000602082019050818103600083015261460981846145b6565b905092915050565b6000819050919050565b61462481614611565b811461462f57600080fd5b50565b6000813590506146418161461b565b92915050565b60006020828403121561465d5761465c61449a565b5b600061466b84828501614632565b91505092915050565b600073ffffffffffffffffffffffffffffffffffffffff82169050919050565b600061469f82614674565b9050919050565b6146af81614694565b82525050565b60006020820190506146ca60008301846146a6565b92915050565b6146d981614694565b81146146e457600080fd5b50565b6000813590506146f6816146d0565b92915050565b600080604083850312156147135761471261449a565b5b6000614721858286016146e7565b925050602061473285828601614632565b9150509250929050565b600080604083850312156147535761475261449a565b5b600061476185828601614632565b925050602061477285828601614632565b9150509250929050565b61478581614694565b82525050565b61479481614611565b82525050565b600082825260208201905092915050565b60006147b68261455f565b6147c0818561479a565b93506147d081856020860161457b565b6147d9816145a5565b840191505092915050565b6147ed81614529565b82525050565b60006101808301600083015161480c600086018261477c565b50602083015161481f602086018261478b565b506040830151848203604086015261483782826147ab565b9150506060830151848203606086015261485182826147ab565b9150506080830151848203608086015261486b82826147ab565b91505060a083015184820360a086015261488582826147ab565b91505060c083015184820360c086015261489f82826147ab565b91505060e08301516148b460e086018261478b565b506101008301516148c96101008601826147e4565b506101208301516148de61012086018261477c565b506101408301516148f361014086018261478b565b5061016083015184820361016086015261490d82826147ab565b9150508091505092915050565b6000602082019050818103600083015261493481846147f3565b905092915050565b61494581614611565b82525050565b6000602082019050614960600083018461493c565b92915050565b60008060006060848603121561497f5761497e61449a565b5b600061498d868287016146e7565b935050602061499e868287016146e7565b92505060406149af86828701614632565b9150509250925092565b6000602082840312156149cf576149ce61449a565b5b60006149dd848285016146e7565b91505092915050565b600080fd5b600080fd5b7f4e487b7100000000000000000000000000000000000000000000000000000000600052604160045260246000fd5b614a28826145a5565b810181811067ffffffffffffffff82111715614a4757614a466149f0565b5b80604052505050565b6000614a5a614490565b9050614a668282614a1f565b919050565b600067ffffffffffffffff821115614a8657614a856149f0565b5b614a8f826145a5565b9050602081019050919050565b82818337600083830152505050565b6000614abe614ab984614a6b565b614a50565b905082815260208101848484011115614ada57614ad96149eb565b5b614ae5848285614a9c565b509392505050565b600082601f830112614b0257614b016149e6565b5b8135614b12848260208601614aab565b91505092915050565b60008060008060008060008060006101208a8c031215614b3e57614b3d61449a565b5b6000614b4c8c828d016146e7565b99505060208a013567ffffffffffffffff811115614b6d57614b6c61449f565b5b614b798c828d01614aed565b98505060408a013567ffffffffffffffff811115614b9a57614b9961449f565b5b614ba68c828d01614aed565b97505060608a013567ffffffffffffffff811115614bc757614bc661449f565b5b614bd38c828d01614aed565b96505060808a013567ffffffffffffffff811115614bf457614bf361449f565b5b614c008c828d01614aed565b95505060a08a013567ffffffffffffffff811115614c2157614c2061449f565b5b614c2d8c828d01614aed565b94505060c0614c3e8c828d01614632565b93505060e0614c4f8c828d01614632565b9250506101008a013567ffffffffffffffff811115614c7157614c7061449f565b5b614c7d8c828d01614aed565b9150509295985092959850929598565b614c9681614529565b8114614ca157600080fd5b50565b600081359050614cb381614c8d565b92915050565b60008060408385031215614cd057614ccf61449a565b5b6000614cde858286016146e7565b9250506020614cef85828601614ca4565b9150509250929050565b600081519050919050565b600082825260208201905092915050565b6000819050602082019050919050565b600061018083016000830151614d3e600086018261477c565b506020830151614d51602086018261478b565b5060408301518482036040860152614d6982826147ab565b91505060608301518482036060860152614d8382826147ab565b91505060808301518482036080860152614d9d82826147ab565b91505060a083015184820360a0860152614db782826147ab565b91505060c083015184820360c0860152614dd182826147ab565b91505060e0830151614de660e086018261478b565b50610100830151614dfb6101008601826147e4565b50610120830151614e1061012086018261477c565b50610140830151614e2561014086018261478b565b50610160830151848203610160860152614e3f82826147ab565b9150508091505092915050565b6000614e588383614d25565b905092915050565b6000602082019050919050565b6000614e7882614cf9565b614e828185614d04565b935083602082028501614e9485614d15565b8060005b85811015614ed05784840389528151614eb18582614e4c565b9450614ebc83614e60565b925060208a01995050600181019050614e98565b50829750879550505050505092915050565b60006020820190508181036000830152614efc8184614e6d565b905092915050565b600067ffffffffffffffff821115614f1f57614f1e6149f0565b5b614f28826145a5565b9050602081019050919050565b6000614f48614f4384614f04565b614a50565b905082815260208101848484011115614f6457614f636149eb565b5b614f6f848285614a9c565b509392505050565b600082601f830112614f8c57614f8b6149e6565b5b8135614f9c848260208601614f35565b91505092915050565b60008060008060808587031215614fbf57614fbe61449a565b5b6000614fcd878288016146e7565b9450506020614fde878288016146e7565b9350506040614fef87828801614632565b925050606085013567ffffffffffffffff8111156150105761500f61449f565b5b61501c87828801614f77565b91505092959194509250565b6000806040838503121561503f5761503e61449a565b5b600061504d858286016146e7565b925050602061505e858286016146e7565b9150509250929050565b7f4e487b7100000000000000000000000000000000000000000000000000000000600052602260045260246000fd5b600060028204905060018216806150af57607f821691505b6020821081036150c2576150c1615068565b5b50919050565b7f4552433732313a20617070726f76616c20746f2063757272656e74206f776e6560008201527f7200000000000000000000000000000000000000000000000000000000000000602082015250565b600061512460218361456a565b915061512f826150c8565b604082019050919050565b6000602082019050818103600083015261515381615117565b9050919050565b7f4552433732313a20617070726f76652063616c6c6572206973206e6f7420746f60008201527f6b656e206f776e6572206f7220617070726f76656420666f7220616c6c000000602082015250565b60006151b6603d8361456a565b91506151c18261515a565b604082019050919050565b600060208201905081810360008301526151e5816151a9565b9050919050565b7f4552433732313a2063616c6c6572206973206e6f7420746f6b656e206f776e6560008201527f72206f7220617070726f76656400000000000000000000000000000000000000602082015250565b6000615248602d8361456a565b9150615253826151ec565b604082019050919050565b600060208201905081810360008301526152778161523b565b9050919050565b7f455243373231456e756d657261626c653a206f776e657220696e646578206f7560008201527f74206f6620626f756e6473000000000000000000000000000000000000000000602082015250565b60006152da602b8361456a565b91506152e58261527e565b604082019050919050565b60006020820190508181036000830152615309816152cd565b9050919050565b7f4e487b7100000000000000000000000000000000000000000000000000000000600052601160045260246000fd5b600061534a82614611565b915061535583614611565b925082820261536381614611565b9150828204841483151761537a57615379615310565b5b5092915050565b600081905092915050565b50565b600061539c600083615381565b91506153a78261538c565b600082019050919050565b60006153bd8261538f565b9150819050919050565b7f455243373231456e756d657261626c653a20676c6f62616c20696e646578206f60008201527f7574206f6620626f756e64730000000000000000000000000000000000000000602082015250565b6000615423602c8361456a565b915061542e826153c7565b604082019050919050565b6000602082019050818103600083015261545281615416565b9050919050565b7f4e487b7100000000000000000000000000000000000000000000000000000000600052603260045260246000fd5b7f4552433732313a20696e76616c696420746f6b656e2049440000000000000000600082015250565b60006154be60188361456a565b91506154c982615488565b602082019050919050565b600060208201905081810360008301526154ed816154b1565b9050919050565b7f4552433732313a2061646472657373207a65726f206973206e6f74206120766160008201527f6c6964206f776e65720000000000000000000000000000000000000000000000602082015250565b600061555060298361456a565b915061555b826154f4565b604082019050919050565b6000602082019050818103600083015261557f81615543565b9050919050565b60008190508160005260206000209050919050565b60006020601f8301049050919050565b600082821b905092915050565b6000600883026155e87fffffffffffffffffffffffffffffffffffffffffffffffffffffffffffffffff826155ab565b6155f286836155ab565b95508019841693508086168417925050509392505050565b6000819050919050565b600061562f61562a61562584614611565b61560a565b614611565b9050919050565b6000819050919050565b61564983615614565b61565d61565582615636565b8484546155b8565b825550505050565b600090565b615672615665565b61567d818484615640565b505050565b5b818110156156a15761569660008261566a565b600181019050615683565b5050565b601f8211156156e6576156b781615586565b6156c08461559b565b810160208510156156cf578190505b6156e36156db8561559b565b830182615682565b50505b505050565b600082821c905092915050565b6000615709600019846008026156eb565b1980831691505092915050565b600061572283836156f8565b9150826002028217905092915050565b61573b8261455f565b67ffffffffffffffff811115615754576157536149f0565b5b61575e8254615097565b6157698282856156a5565b600060209050601f83116001811461579c576000841561578a578287015190505b6157948582615716565b8655506157fc565b601f1984166157aa86615586565b60005b828110156157d2578489015182556001820191506020850194506020810190506157ad565b868310156157ef57848901516157eb601f8916826156f8565b8355505b6001600288020188555050505b505050505050565b600061580f82614611565b91507fffffffffffffffffffffffffffffffffffffffffffffffffffffffffffffffff820361584157615840615310565b5b600182019050919050565b600081905092915050565b60006158628261455f565b61586c818561584c565b935061587c81856020860161457b565b80840191505092915050565b60006158948285615857565b91506158a08284615857565b91508190509392505050565b7f4f776e61626c653a206e6577206f776e657220697320746865207a65726f206160008201527f6464726573730000000000000000000000000000000000000000000000000000602082015250565b600061590860268361456a565b9150615913826158ac565b604082019050919050565b60006020820190508181036000830152615937816158fb565b9050919050565b7f4552433732313a207472616e736665722066726f6d20696e636f72726563742060008201527f6f776e6572000000000000000000000000000000000000000000000000000000602082015250565b600061599a60258361456a565b91506159a58261593e565b604082019050919050565b600060208201905081810360008301526159c98161598d565b9050919050565b7f4552433732313a207472616e7366657220746f20746865207a65726f2061646460008201527f7265737300000000000000000000000000000000000000000000000000000000602082015250565b6000615a2c60248361456a565b9150615a37826159d0565b604082019050919050565b60006020820190508181036000830152615a5b81615a1f565b9050919050565b7f4552433732313a207472616e7366657220746f206e6f6e20455243373231526560008201527f63656976657220696d706c656d656e7465720000000000000000000000000000602082015250565b6000615abe60328361456a565b9150615ac982615a62565b604082019050919050565b60006020820190508181036000830152615aed81615ab1565b9050919050565b7f4f776e61626c653a2063616c6c6572206973206e6f7420746865206f776e6572600082015250565b6000615b2a60208361456a565b9150615b3582615af4565b602082019050919050565b60006020820190508181036000830152615b5981615b1d565b9050919050565b7f4552433732313a20617070726f766520746f2063616c6c657200000000000000600082015250565b6000615b9660198361456a565b9150615ba182615b60565b602082019050919050565b60006020820190508181036000830152615bc581615b89565b9050919050565b7f4e487b7100000000000000000000000000000000000000000000000000000000600052601260045260246000fd5b7f455243373231456e756d657261626c653a20636f6e736563757469766520747260008201527f616e7366657273206e6f7420737570706f727465640000000000000000000000602082015250565b6000615c5760358361456a565b9150615c6282615bfb565b604082019050919050565b60006020820190508181036000830152615c8681615c4a565b9050919050565b600081519050919050565b600082825260208201905092915050565b6000615cb482615c8d565b615cbe8185615c98565b9350615cce81856020860161457b565b615cd7816145a5565b840191505092915050565b6000608082019050615cf760008301876146a6565b615d0460208301866146a6565b615d11604083018561493c565b8181036060830152615d238184615ca9565b905095945050505050565b600081519050615d3d816144d0565b92915050565b600060208284031215615d5957615d5861449a565b5b6000615d6784828501615d2e565b91505092915050565b6000615d7b82614611565b9150615d8683614611565b9250828203905081811115615d9e57615d9d615310565b5b92915050565b7f4e487b7100000000000000000000000000000000000000000000000000000000600052603160045260246000fd5b7f4552433732313a206d696e7420746f20746865207a65726f2061646472657373600082015250565b6000615e0960208361456a565b9150615e1482615dd3565b602082019050919050565b60006020820190508181036000830152615e3881615dfc565b9050919050565b7f4552433732313a20746f6b656e20616c7265616479206d696e74656400000000600082015250565b6000615e75601c8361456a565b9150615e8082615e3f565b602082019050919050565b60006020820190508181036000830152615ea481615e68565b905091905056fe4f6e6c79207468652062757965722063616e207265747269657665207468697320636172496e73756666696369656e742066756e647320666f7220627579696e6720746865206361724f6e6c79207468652062757965722063616e2063616e63656c2074686973206f72646572a264697066735822122011f2d5178e400da88f81058d60ad6cf26f8a8b49ab2a97124174d7dbd9f0845e64736f6c63430008110033",
  "immutableReferences": {},
  "source": "// SPDX-License-Identifier: MIT\npragma solidity >=0.8.0 <0.9.0;\n\nimport \"../node_modules/@openzeppelin/contracts/token/ERC721/ERC721.sol\";\nimport \"../node_modules/@openzeppelin/contracts/access/Ownable.sol\";\nimport \"../node_modules/@openzeppelin/contracts/utils/Counters.sol\";\nimport \"../node_modules/@openzeppelin/contracts/token/ERC721/extensions/ERC721Enumerable.sol\";\n\ncontract CarDealership is Ownable, ERC721Enumerable {\n  using Counters for Counters.Counter;\n  Counters.Counter private _tokenIdCounter;\n\n  constructor() ERC721(\"carTokens\", \"CAR\") {}\n\n  receive() external payable {}\n\n  fallback() external payable {}\n\n  string constant CAR_DOES_NOT_EXIST = \"Car not found\";\n  string constant CANT_BUY_OWN_CAR = \"You cannot buy your own car\";\n  string constant CAR_ALREADY_SOLD = \"The car has already been sold\";\n  string constant INSUFFICIENT_FUNDS = \"Insufficient funds for buying the car\";\n  string constant CAR_NOT_SOLD = \"The car has not been sold yet\";\n  string constant ONLY_BUYER = \"Only the buyer can retrieve this car\";\n  string constant FAILED_TO_SENT_ETHER = \"Failed to transfer ether\";\n  string constant ONLY_BUYER_CANCEL = \"Only the buyer can cancel this order\";\n\n  struct Car {\n    // The license plate, chassis number, brand, type, and colour of the car\n    address owner;\n    uint256 tokenId;\n    string licensePlate;\n    string chassisNumber;\n    string brand;\n    string carType;\n    string colour;\n    uint256 mileage;\n    bool sold;\n    address buyer;\n    uint256 price;\n    string metadataUri;\n  }\n\n  mapping(uint256 => Car) private cars;\n\n  event CarSold(uint256 indexed tokenId, address indexed buyer, uint256 price);\n\n  function mintCar(\n    address _owner,\n    string memory _licensePlate,\n    string memory _chassisNumber,\n    string memory _brand,\n    string memory _carType,\n    string memory _colour,\n    uint256 _mileage,\n    uint256 _price,\n    string memory _metadataUri\n  ) public returns (uint256) {\n    _tokenIdCounter.increment();\n\n    uint256 newCarId = _tokenIdCounter.current();\n    _safeMint(_owner, newCarId);\n\n    cars[newCarId] = Car(_owner, newCarId, _licensePlate, _chassisNumber, _brand, _carType, _colour, _mileage, false, address(0), _price, _metadataUri);\n\n    return newCarId;\n  }\n\n  /// @notice Allows a user to buy a car with a given token ID.\n  /// @param _tokenId the ID of the car being purchased\n  /// @dev Requires that the car with the given token exists, is not already sold, and that the buyer is not the owner of the car\n  function buyCar(uint256 _tokenId) public payable {\n    require(_exists(_tokenId), CAR_DOES_NOT_EXIST);\n    Car storage _car = cars[_tokenId];\n\n    address _owner = ownerOf(_tokenId);\n    require(_owner != msg.sender, CANT_BUY_OWN_CAR);\n    require(!_car.sold, CAR_ALREADY_SOLD);\n    require(msg.value >= _car.price, INSUFFICIENT_FUNDS);\n\n    _car.sold = true;\n    _car.buyer = msg.sender;\n    // TODO: Change so that the money will be set on the contract as a broker\n\n    emit CarSold(_tokenId, msg.sender, msg.value);\n  }\n\n  /// @notice Allows the buyer to cancel an order and get the money back\n  /// @param _tokenId the ID of the car being purchased\n  function cancelCarOrder(uint256 _tokenId) public {\n  // TODO: After cancelation check what happens with the money\n    require(_exists(_tokenId), CAR_DOES_NOT_EXIST);\n    Car storage _car = cars[_tokenId];\n    require(_car.sold, CAR_NOT_SOLD);\n    require(msg.sender == _car.buyer, ONLY_BUYER_CANCEL);\n\n    uint256 _price = _car.price * 1 ether;\n\n    // Transfer the money back to the buyer\n    (bool _sent, ) = payable(_car.buyer).call{value: _price}(\"\");\n    require(_sent, FAILED_TO_SENT_ETHER);\n\n    // Reset the car's sold status, buyer, price, and owner\n    _car.sold = false;\n    _car.buyer = address(0);\n    _car.price = 0;\n  }\n\n  /// @notice Allows the buyer to retrieve the purchased car.\n  /// @param _tokenId The ID of the car to retrieve\n  function retrieveCar(uint256 _tokenId) public payable {\n    // Check if the car exists\n    require(_exists(_tokenId), CAR_DOES_NOT_EXIST);\n    // Retrieve the car and check the sold status and the buyer\n    Car storage _car = cars[_tokenId];\n    require(_car.sold, CAR_NOT_SOLD);\n    require(msg.sender == _car.buyer, ONLY_BUYER);\n\n    address _owner = ownerOf(_tokenId);\n    address _buyer = _car.buyer;\n\n    // Get the price of the car in WEI\n    uint256 _price = _car.price * 1 ether;\n\n    // Transfer the price of the car to the original owner\n    (bool sent, ) = payable(_owner).call{value: _price}(\"\");\n    require(sent, FAILED_TO_SENT_ETHER);\n\n    // Transfer the ownership of the car to the buyer\n    _safeTransfer(_owner, _buyer, _tokenId, \"\");\n\n    // Reset the car's sold status, buyer, price, and owner\n    _car.sold = false;\n    _car.buyer = address(0);\n    _car.price = 0;\n    _car.owner = _buyer;\n  }\n\n  /// @notice Get the car data associated with the given token ID\n  /// @dev This function is view-only and does not modify the blockchain state\n  /// @param _tokenId The ID of the car to retrieve\n  /// @return Car The Car associated with the token\n  function getCarByToken(uint256 _tokenId) public view returns (Car memory) {\n    require(_exists(_tokenId), CAR_DOES_NOT_EXIST);\n\n    return cars[_tokenId];\n  }\n\n  /// @notice Return an array of all the cars owned by a given address\n  /// @param _owner The address of the owner\n  /// @return Car[] A array containing all the cars owned by the given address\n  function getCarsByOwner(address _owner) public view returns (Car[] memory) {\n    // Get the number of tokens owned by the address\n    uint256 tokenCount = balanceOf(_owner);\n\n    // Create a new array to hold the cars with the amount of token\n    Car[] memory _cars = new Car[](tokenCount);\n\n    for (uint256 i = 0; i < tokenCount; i++) {\n      // Get the tokenID by the owner and index\n      uint256 _tokenId = tokenOfOwnerByIndex(_owner, i);\n      _cars[i] = cars[_tokenId];\n    }\n\n    return _cars;\n  }\n\n  /// @notice Returns an array of all the cars in the contract\n  /// @return Car[] An array of all the cars in the contract\n  function getAllCars() public view returns (Car[] memory) {\n    uint256 _tokenCount = totalSupply();\n    Car[] memory _cars = new Car[](_tokenCount);\n\n    for (uint256 i = 0; i < _tokenCount; i++) {\n      // Get the car at the current index and add it to the array\n      _cars[i] = cars[tokenByIndex(i)];\n    }\n\n    return _cars;\n  }\n\n  /// @notice Allows the owner of a car to change its mileage\n  /// @param _tokenId The ID of the car to retrieve\n  /// @param _mileage The new mileage of the car\n  /// @return The updated Car object\n  function changeMileage(uint256 _tokenId, uint256 _mileage) public returns (Car memory) {\n    require(_exists(_tokenId), CAR_DOES_NOT_EXIST);\n    Car storage _car = cars[_tokenId];\n    _car.mileage = _mileage;\n    return _car;\n  }\n}\n",
  "sourcePath": "/Users/dennismoes/car-dealership/contract/contracts/CarDealership.sol",
  "compiler": {
    "name": "solc",
    "version": "0.8.17+commit.8df45f5f.Emscripten.clang"
  },
  "schemaVersion": "3.4.11",
  "updatedAt": "2023-03-13T10:18:38.232Z",
  "networkType": "ethereum",
  "devdoc": {
    "kind": "dev",
    "methods": {
      "approve(address,uint256)": {
        "details": "See {IERC721-approve}."
      },
      "balanceOf(address)": {
        "details": "See {IERC721-balanceOf}."
      },
      "buyCar(uint256)": {
        "details": "Requires that the car with the given token exists, is not already sold, and that the buyer is not the owner of the car",
        "params": {
          "_tokenId": "the ID of the car being purchased"
        }
      },
      "cancelCarOrder(uint256)": {
        "params": {
          "_tokenId": "the ID of the car being purchased"
        }
      },
      "changeMileage(uint256,uint256)": {
        "params": {
          "_mileage": "The new mileage of the car",
          "_tokenId": "The ID of the car to retrieve"
        },
        "returns": {
          "_0": "The updated Car object"
        }
      },
      "getAllCars()": {
        "returns": {
          "_0": "Car[] An array of all the cars in the contract"
        }
      },
      "getApproved(uint256)": {
        "details": "See {IERC721-getApproved}."
      },
      "getCarByToken(uint256)": {
        "details": "This function is view-only and does not modify the blockchain state",
        "params": {
          "_tokenId": "The ID of the car to retrieve"
        },
        "returns": {
          "_0": "Car The Car associated with the token"
        }
      },
      "getCarsByOwner(address)": {
        "params": {
          "_owner": "The address of the owner"
        },
        "returns": {
          "_0": "Car[] A array containing all the cars owned by the given address"
        }
      },
      "isApprovedForAll(address,address)": {
        "details": "See {IERC721-isApprovedForAll}."
      },
      "name()": {
        "details": "See {IERC721Metadata-name}."
      },
      "owner()": {
        "details": "Returns the address of the current owner."
      },
      "ownerOf(uint256)": {
        "details": "See {IERC721-ownerOf}."
      },
      "renounceOwnership()": {
        "details": "Leaves the contract without owner. It will not be possible to call `onlyOwner` functions anymore. Can only be called by the current owner. NOTE: Renouncing ownership will leave the contract without an owner, thereby removing any functionality that is only available to the owner."
      },
      "retrieveCar(uint256)": {
        "params": {
          "_tokenId": "The ID of the car to retrieve"
        }
      },
      "safeTransferFrom(address,address,uint256)": {
        "details": "See {IERC721-safeTransferFrom}."
      },
      "safeTransferFrom(address,address,uint256,bytes)": {
        "details": "See {IERC721-safeTransferFrom}."
      },
      "setApprovalForAll(address,bool)": {
        "details": "See {IERC721-setApprovalForAll}."
      },
      "supportsInterface(bytes4)": {
        "details": "See {IERC165-supportsInterface}."
      },
      "symbol()": {
        "details": "See {IERC721Metadata-symbol}."
      },
      "tokenByIndex(uint256)": {
        "details": "See {IERC721Enumerable-tokenByIndex}."
      },
      "tokenOfOwnerByIndex(address,uint256)": {
        "details": "See {IERC721Enumerable-tokenOfOwnerByIndex}."
      },
      "tokenURI(uint256)": {
        "details": "See {IERC721Metadata-tokenURI}."
      },
      "totalSupply()": {
        "details": "See {IERC721Enumerable-totalSupply}."
      },
      "transferFrom(address,address,uint256)": {
        "details": "See {IERC721-transferFrom}."
      },
      "transferOwnership(address)": {
        "details": "Transfers ownership of the contract to a new account (`newOwner`). Can only be called by the current owner."
      }
    },
    "version": 1
  },
  "userdoc": {
    "kind": "user",
    "methods": {
      "buyCar(uint256)": {
        "notice": "Allows a user to buy a car with a given token ID."
      },
      "cancelCarOrder(uint256)": {
        "notice": "Allows the buyer to cancel an order and get the money back"
      },
      "changeMileage(uint256,uint256)": {
        "notice": "Allows the owner of a car to change its mileage"
      },
      "getAllCars()": {
        "notice": "Returns an array of all the cars in the contract"
      },
      "getCarByToken(uint256)": {
        "notice": "Get the car data associated with the given token ID"
      },
      "getCarsByOwner(address)": {
        "notice": "Return an array of all the cars owned by a given address"
      },
      "retrieveCar(uint256)": {
        "notice": "Allows the buyer to retrieve the purchased car."
      }
    },
    "version": 1
  }
}