{
  "contractName": "CarDealership",
  "abi": [
    {
      "inputs": [],
      "stateMutability": "nonpayable",
      "type": "constructor"
    },
    {
      "anonymous": false,
      "inputs": [
        {
          "indexed": true,
          "internalType": "address",
          "name": "owner",
          "type": "address"
        },
        {
          "indexed": true,
          "internalType": "address",
          "name": "approved",
          "type": "address"
        },
        {
          "indexed": true,
          "internalType": "uint256",
          "name": "tokenId",
          "type": "uint256"
        }
      ],
      "name": "Approval",
      "type": "event"
    },
    {
      "anonymous": false,
      "inputs": [
        {
          "indexed": true,
          "internalType": "address",
          "name": "owner",
          "type": "address"
        },
        {
          "indexed": true,
          "internalType": "address",
          "name": "operator",
          "type": "address"
        },
        {
          "indexed": false,
          "internalType": "bool",
          "name": "approved",
          "type": "bool"
        }
      ],
      "name": "ApprovalForAll",
      "type": "event"
    },
    {
      "anonymous": false,
      "inputs": [
        {
          "indexed": true,
          "internalType": "address",
          "name": "previousOwner",
          "type": "address"
        },
        {
          "indexed": true,
          "internalType": "address",
          "name": "newOwner",
          "type": "address"
        }
      ],
      "name": "OwnershipTransferred",
      "type": "event"
    },
    {
      "anonymous": false,
      "inputs": [
        {
          "indexed": true,
          "internalType": "address",
          "name": "from",
          "type": "address"
        },
        {
          "indexed": true,
          "internalType": "address",
          "name": "to",
          "type": "address"
        },
        {
          "indexed": true,
          "internalType": "uint256",
          "name": "tokenId",
          "type": "uint256"
        }
      ],
      "name": "Transfer",
      "type": "event"
    },
    {
      "inputs": [
        {
          "internalType": "address",
          "name": "to",
          "type": "address"
        },
        {
          "internalType": "uint256",
          "name": "tokenId",
          "type": "uint256"
        }
      ],
      "name": "approve",
      "outputs": [],
      "stateMutability": "nonpayable",
      "type": "function"
    },
    {
      "inputs": [
        {
          "internalType": "address",
          "name": "owner",
          "type": "address"
        }
      ],
      "name": "balanceOf",
      "outputs": [
        {
          "internalType": "uint256",
          "name": "",
          "type": "uint256"
        }
      ],
      "stateMutability": "view",
      "type": "function",
      "constant": true
    },
    {
      "inputs": [
        {
          "internalType": "uint256",
          "name": "tokenId",
          "type": "uint256"
        }
      ],
      "name": "getApproved",
      "outputs": [
        {
          "internalType": "address",
          "name": "",
          "type": "address"
        }
      ],
      "stateMutability": "view",
      "type": "function",
      "constant": true
    },
    {
      "inputs": [
        {
          "internalType": "address",
          "name": "owner",
          "type": "address"
        },
        {
          "internalType": "address",
          "name": "operator",
          "type": "address"
        }
      ],
      "name": "isApprovedForAll",
      "outputs": [
        {
          "internalType": "bool",
          "name": "",
          "type": "bool"
        }
      ],
      "stateMutability": "view",
      "type": "function",
      "constant": true
    },
    {
      "inputs": [],
      "name": "name",
      "outputs": [
        {
          "internalType": "string",
          "name": "",
          "type": "string"
        }
      ],
      "stateMutability": "view",
      "type": "function",
      "constant": true
    },
    {
      "inputs": [],
      "name": "owner",
      "outputs": [
        {
          "internalType": "address",
          "name": "",
          "type": "address"
        }
      ],
      "stateMutability": "view",
      "type": "function",
      "constant": true
    },
    {
      "inputs": [
        {
          "internalType": "uint256",
          "name": "tokenId",
          "type": "uint256"
        }
      ],
      "name": "ownerOf",
      "outputs": [
        {
          "internalType": "address",
          "name": "",
          "type": "address"
        }
      ],
      "stateMutability": "view",
      "type": "function",
      "constant": true
    },
    {
      "inputs": [],
      "name": "renounceOwnership",
      "outputs": [],
      "stateMutability": "nonpayable",
      "type": "function"
    },
    {
      "inputs": [
        {
          "internalType": "address",
          "name": "from",
          "type": "address"
        },
        {
          "internalType": "address",
          "name": "to",
          "type": "address"
        },
        {
          "internalType": "uint256",
          "name": "tokenId",
          "type": "uint256"
        }
      ],
      "name": "safeTransferFrom",
      "outputs": [],
      "stateMutability": "nonpayable",
      "type": "function"
    },
    {
      "inputs": [
        {
          "internalType": "address",
          "name": "from",
          "type": "address"
        },
        {
          "internalType": "address",
          "name": "to",
          "type": "address"
        },
        {
          "internalType": "uint256",
          "name": "tokenId",
          "type": "uint256"
        },
        {
          "internalType": "bytes",
          "name": "data",
          "type": "bytes"
        }
      ],
      "name": "safeTransferFrom",
      "outputs": [],
      "stateMutability": "nonpayable",
      "type": "function"
    },
    {
      "inputs": [
        {
          "internalType": "address",
          "name": "operator",
          "type": "address"
        },
        {
          "internalType": "bool",
          "name": "approved",
          "type": "bool"
        }
      ],
      "name": "setApprovalForAll",
      "outputs": [],
      "stateMutability": "nonpayable",
      "type": "function"
    },
    {
      "inputs": [
        {
          "internalType": "bytes4",
          "name": "interfaceId",
          "type": "bytes4"
        }
      ],
      "name": "supportsInterface",
      "outputs": [
        {
          "internalType": "bool",
          "name": "",
          "type": "bool"
        }
      ],
      "stateMutability": "view",
      "type": "function",
      "constant": true
    },
    {
      "inputs": [],
      "name": "symbol",
      "outputs": [
        {
          "internalType": "string",
          "name": "",
          "type": "string"
        }
      ],
      "stateMutability": "view",
      "type": "function",
      "constant": true
    },
    {
      "inputs": [
        {
          "internalType": "uint256",
          "name": "tokenId",
          "type": "uint256"
        }
      ],
      "name": "tokenURI",
      "outputs": [
        {
          "internalType": "string",
          "name": "",
          "type": "string"
        }
      ],
      "stateMutability": "view",
      "type": "function",
      "constant": true
    },
    {
      "inputs": [
        {
          "internalType": "address",
          "name": "from",
          "type": "address"
        },
        {
          "internalType": "address",
          "name": "to",
          "type": "address"
        },
        {
          "internalType": "uint256",
          "name": "tokenId",
          "type": "uint256"
        }
      ],
      "name": "transferFrom",
      "outputs": [],
      "stateMutability": "nonpayable",
      "type": "function"
    },
    {
      "inputs": [
        {
          "internalType": "address",
          "name": "newOwner",
          "type": "address"
        }
      ],
      "name": "transferOwnership",
      "outputs": [],
      "stateMutability": "nonpayable",
      "type": "function"
    },
    {
      "inputs": [
        {
          "internalType": "address",
          "name": "_owner",
          "type": "address"
        },
        {
          "internalType": "string",
          "name": "_licensePlate",
          "type": "string"
        },
        {
          "internalType": "uint256",
          "name": "_chassisNumber",
          "type": "uint256"
        },
        {
          "internalType": "string",
          "name": "_brand",
          "type": "string"
        },
        {
          "internalType": "string",
          "name": "_carType",
          "type": "string"
        },
        {
          "internalType": "string",
          "name": "_colour",
          "type": "string"
        },
        {
          "internalType": "uint256",
          "name": "_mileage",
          "type": "uint256"
        },
        {
          "internalType": "string",
          "name": "_imageUrl",
          "type": "string"
        }
      ],
      "name": "safeMint",
      "outputs": [],
      "stateMutability": "nonpayable",
      "type": "function"
    },
    {
      "inputs": [
        {
          "internalType": "uint256",
          "name": "_tokenId",
          "type": "uint256"
        },
        {
          "internalType": "uint256",
          "name": "_price",
          "type": "uint256"
        }
      ],
      "name": "sellCar",
      "outputs": [],
      "stateMutability": "nonpayable",
      "type": "function"
    },
    {
      "inputs": [
        {
          "internalType": "uint256",
          "name": "_tokenId",
          "type": "uint256"
        }
      ],
      "name": "buyCar",
      "outputs": [],
      "stateMutability": "payable",
      "type": "function",
      "payable": true
    },
    {
      "inputs": [
        {
          "internalType": "uint256",
          "name": "_tokenId",
          "type": "uint256"
        }
      ],
      "name": "getCar",
      "outputs": [
        {
          "components": [
            {
              "internalType": "address",
              "name": "owner",
              "type": "address"
            },
            {
              "internalType": "string",
              "name": "licensePlate",
              "type": "string"
            },
            {
              "internalType": "uint256",
              "name": "chassisNumber",
              "type": "uint256"
            },
            {
              "internalType": "string",
              "name": "brand",
              "type": "string"
            },
            {
              "internalType": "string",
              "name": "carType",
              "type": "string"
            },
            {
              "internalType": "string",
              "name": "colour",
              "type": "string"
            },
            {
              "internalType": "uint256",
              "name": "mileage",
              "type": "uint256"
            },
            {
              "internalType": "string",
              "name": "imageUrl",
              "type": "string"
            },
            {
              "internalType": "uint256",
              "name": "price",
              "type": "uint256"
            },
            {
              "internalType": "bool",
              "name": "forSale",
              "type": "bool"
            }
          ],
          "internalType": "struct CarDealership.Car",
          "name": "",
          "type": "tuple"
        }
      ],
      "stateMutability": "view",
      "type": "function",
      "constant": true
    },
    {
      "inputs": [],
      "name": "getAllCars",
      "outputs": [
        {
          "components": [
            {
              "internalType": "address",
              "name": "owner",
              "type": "address"
            },
            {
              "internalType": "string",
              "name": "licensePlate",
              "type": "string"
            },
            {
              "internalType": "uint256",
              "name": "chassisNumber",
              "type": "uint256"
            },
            {
              "internalType": "string",
              "name": "brand",
              "type": "string"
            },
            {
              "internalType": "string",
              "name": "carType",
              "type": "string"
            },
            {
              "internalType": "string",
              "name": "colour",
              "type": "string"
            },
            {
              "internalType": "uint256",
              "name": "mileage",
              "type": "uint256"
            },
            {
              "internalType": "string",
              "name": "imageUrl",
              "type": "string"
            },
            {
              "internalType": "uint256",
              "name": "price",
              "type": "uint256"
            },
            {
              "internalType": "bool",
              "name": "forSale",
              "type": "bool"
            }
          ],
          "internalType": "struct CarDealership.Car[]",
          "name": "",
          "type": "tuple[]"
        }
      ],
      "stateMutability": "view",
      "type": "function",
      "constant": true
    }
  ],
  "bytecode": "0x608060405260006009553480156200001657600080fd5b506040518060400160405280600881526020017f436172546f6b656e0000000000000000000000000000000000000000000000008152506040518060400160405280600381526020017f4341520000000000000000000000000000000000000000000000000000000000815250816000908162000094919062000417565b508060019081620000a6919062000417565b505050620000c9620000bd620000cf60201b60201c565b620000d760201b60201c565b620004fe565b600033905090565b6000600660009054906101000a900473ffffffffffffffffffffffffffffffffffffffff16905081600660006101000a81548173ffffffffffffffffffffffffffffffffffffffff021916908373ffffffffffffffffffffffffffffffffffffffff1602179055508173ffffffffffffffffffffffffffffffffffffffff168173ffffffffffffffffffffffffffffffffffffffff167f8be0079c531659141344cd1fd0a4f28419497f9722a3daafe3b4186f6b6457e060405160405180910390a35050565b600081519050919050565b7f4e487b7100000000000000000000000000000000000000000000000000000000600052604160045260246000fd5b7f4e487b7100000000000000000000000000000000000000000000000000000000600052602260045260246000fd5b600060028204905060018216806200021f57607f821691505b602082108103620002355762000234620001d7565b5b50919050565b60008190508160005260206000209050919050565b60006020601f8301049050919050565b600082821b905092915050565b6000600883026200029f7fffffffffffffffffffffffffffffffffffffffffffffffffffffffffffffffff8262000260565b620002ab868362000260565b95508019841693508086168417925050509392505050565b6000819050919050565b6000819050919050565b6000620002f8620002f2620002ec84620002c3565b620002cd565b620002c3565b9050919050565b6000819050919050565b6200031483620002d7565b6200032c6200032382620002ff565b8484546200026d565b825550505050565b600090565b6200034362000334565b6200035081848462000309565b505050565b5b8181101562000378576200036c60008262000339565b60018101905062000356565b5050565b601f821115620003c75762000391816200023b565b6200039c8462000250565b81016020851015620003ac578190505b620003c4620003bb8562000250565b83018262000355565b50505b505050565b600082821c905092915050565b6000620003ec60001984600802620003cc565b1980831691505092915050565b6000620004078383620003d9565b9150826002028217905092915050565b62000422826200019d565b67ffffffffffffffff8111156200043e576200043d620001a8565b5b6200044a825462000206565b620004578282856200037c565b600060209050601f8311600181146200048f57600084156200047a578287015190505b620004868582620003f9565b865550620004f6565b601f1984166200049f866200023b565b60005b82811015620004c957848901518255600182019150602085019450602081019050620004a2565b86831015620004e95784890151620004e5601f891682620003d9565b8355505b6001600288020188555050505b505050505050565b614251806200050e6000396000f3fe60806040526004361061012a5760003560e01c806370a08231116100ab578063a22cb4651161006f578063a22cb465146103e1578063abfe5d571461040a578063b88d4fde14610435578063c87b56dd1461045e578063e985e9c51461049b578063f2fde38b146104d85761012a565b806370a082311461030e578063715018a61461034b5780638da5cb5b1461036257806393563bc81461038d57806395d89b41146103b65761012a565b806342842e0e116100f257806342842e0e1461022657806352ab6d9c1461024f5780635e8be190146102785780636352211e146102b55780636c231060146102f25761012a565b806301ffc9a71461012f57806306fdde031461016c578063081812fc14610197578063095ea7b3146101d457806323b872dd146101fd575b600080fd5b34801561013b57600080fd5b5061015660048036038101906101519190612923565b610501565b604051610163919061296b565b60405180910390f35b34801561017857600080fd5b506101816105e3565b60405161018e9190612a16565b60405180910390f35b3480156101a357600080fd5b506101be60048036038101906101b99190612a6e565b610675565b6040516101cb9190612adc565b60405180910390f35b3480156101e057600080fd5b506101fb60048036038101906101f69190612b23565b6106bb565b005b34801561020957600080fd5b50610224600480360381019061021f9190612b63565b6107d2565b005b34801561023257600080fd5b5061024d60048036038101906102489190612b63565b610832565b005b34801561025b57600080fd5b5061027660048036038101906102719190612ceb565b610852565b005b34801561028457600080fd5b5061029f600480360381019061029a9190612a6e565b6109f2565b6040516102ac9190612f9a565b60405180910390f35b3480156102c157600080fd5b506102dc60048036038101906102d79190612a6e565b610dd1565b6040516102e99190612adc565b60405180910390f35b61030c60048036038101906103079190612a6e565b610e57565b005b34801561031a57600080fd5b5061033560048036038101906103309190612fbc565b611048565b6040516103429190612ff8565b60405180910390f35b34801561035757600080fd5b506103606110ff565b005b34801561036e57600080fd5b50610377611113565b6040516103849190612adc565b60405180910390f35b34801561039957600080fd5b506103b460048036038101906103af9190613013565b61113d565b005b3480156103c257600080fd5b506103cb611263565b6040516103d89190612a16565b60405180910390f35b3480156103ed57600080fd5b506104086004803603810190610403919061307f565b6112f5565b005b34801561041657600080fd5b5061041f61130b565b60405161042c9190613277565b60405180910390f35b34801561044157600080fd5b5061045c6004803603810190610457919061333a565b611735565b005b34801561046a57600080fd5b5061048560048036038101906104809190612a6e565b611797565b6040516104929190612a16565b60405180910390f35b3480156104a757600080fd5b506104c260048036038101906104bd91906133bd565b6117ff565b6040516104cf919061296b565b60405180910390f35b3480156104e457600080fd5b506104ff60048036038101906104fa9190612fbc565b611893565b005b60007f80ac58cd000000000000000000000000000000000000000000000000000000007bffffffffffffffffffffffffffffffffffffffffffffffffffffffff1916827bffffffffffffffffffffffffffffffffffffffffffffffffffffffff191614806105cc57507f5b5e139f000000000000000000000000000000000000000000000000000000007bffffffffffffffffffffffffffffffffffffffffffffffffffffffff1916827bffffffffffffffffffffffffffffffffffffffffffffffffffffffff1916145b806105dc57506105db82611916565b5b9050919050565b6060600080546105f29061342c565b80601f016020809104026020016040519081016040528092919081815260200182805461061e9061342c565b801561066b5780601f106106405761010080835404028352916020019161066b565b820191906000526020600020905b81548152906001019060200180831161064e57829003601f168201915b5050505050905090565b600061068082611980565b6004600083815260200190815260200160002060009054906101000a900473ffffffffffffffffffffffffffffffffffffffff169050919050565b60006106c682610dd1565b90508073ffffffffffffffffffffffffffffffffffffffff168373ffffffffffffffffffffffffffffffffffffffff1603610736576040517f08c379a000000000000000000000000000000000000000000000000000000000815260040161072d906134cf565b60405180910390fd5b8073ffffffffffffffffffffffffffffffffffffffff166107556119cb565b73ffffffffffffffffffffffffffffffffffffffff16148061078457506107838161077e6119cb565b6117ff565b5b6107c3576040517f08c379a00000000000000000000000000000000000000000000000000000000081526004016107ba90613561565b60405180910390fd5b6107cd83836119d3565b505050565b6107e36107dd6119cb565b82611a8c565b610822576040517f08c379a0000000000000000000000000000000000000000000000000000000008152600401610819906135f3565b60405180910390fd5b61082d838383611b21565b505050565b61084d83838360405180602001604052806000815250611735565b505050565b61085a611e1a565b60006108666007611e98565b90506108726007611ea6565b61087c8982611ebc565b6040518061014001604052808a73ffffffffffffffffffffffffffffffffffffffff16815260200189815260200188815260200187815260200186815260200185815260200184815260200183815260200160008152602001600015158152506008600083815260200190815260200160002060008201518160000160006101000a81548173ffffffffffffffffffffffffffffffffffffffff021916908373ffffffffffffffffffffffffffffffffffffffff160217905550602082015181600101908161094b91906137bf565b5060408201518160020155606082015181600301908161096b91906137bf565b50608082015181600401908161098191906137bf565b5060a082015181600501908161099791906137bf565b5060c0820151816006015560e08201518160070190816109b791906137bf565b5061010082015181600801556101208201518160090160006101000a81548160ff021916908315150217905550905050505050505050505050565b6109fa61284c565b610a0382611eda565b610a42576040517f08c379a0000000000000000000000000000000000000000000000000000000008152600401610a3990613903565b60405180910390fd5b60086000838152602001908152602001600020604051806101400160405290816000820160009054906101000a900473ffffffffffffffffffffffffffffffffffffffff1673ffffffffffffffffffffffffffffffffffffffff1673ffffffffffffffffffffffffffffffffffffffff168152602001600182018054610ac79061342c565b80601f0160208091040260200160405190810160405280929190818152602001828054610af39061342c565b8015610b405780601f10610b1557610100808354040283529160200191610b40565b820191906000526020600020905b815481529060010190602001808311610b2357829003601f168201915b5050505050815260200160028201548152602001600382018054610b639061342c565b80601f0160208091040260200160405190810160405280929190818152602001828054610b8f9061342c565b8015610bdc5780601f10610bb157610100808354040283529160200191610bdc565b820191906000526020600020905b815481529060010190602001808311610bbf57829003601f168201915b50505050508152602001600482018054610bf59061342c565b80601f0160208091040260200160405190810160405280929190818152602001828054610c219061342c565b8015610c6e5780601f10610c4357610100808354040283529160200191610c6e565b820191906000526020600020905b815481529060010190602001808311610c5157829003601f168201915b50505050508152602001600582018054610c879061342c565b80601f0160208091040260200160405190810160405280929190818152602001828054610cb39061342c565b8015610d005780601f10610cd557610100808354040283529160200191610d00565b820191906000526020600020905b815481529060010190602001808311610ce357829003601f168201915b5050505050815260200160068201548152602001600782018054610d239061342c565b80601f0160208091040260200160405190810160405280929190818152602001828054610d4f9061342c565b8015610d9c5780601f10610d7157610100808354040283529160200191610d9c565b820191906000526020600020905b815481529060010190602001808311610d7f57829003601f168201915b50505050508152602001600882015481526020016009820160009054906101000a900460ff1615151515815250509050919050565b600080610ddd83611f1b565b9050600073ffffffffffffffffffffffffffffffffffffffff168173ffffffffffffffffffffffffffffffffffffffff1603610e4e576040517f08c379a0000000000000000000000000000000000000000000000000000000008152600401610e459061396f565b60405180910390fd5b80915050919050565b610e6081611eda565b610e9f576040517f08c379a0000000000000000000000000000000000000000000000000000000008152600401610e9690613903565b60405180910390fd5b600115156008600083815260200190815260200160002060090160009054906101000a900460ff16151514610f09576040517f08c379a0000000000000000000000000000000000000000000000000000000008152600401610f0090613a01565b60405180910390fd5b60086000828152602001908152602001600020600801543414610f61576040517f08c379a0000000000000000000000000000000000000000000000000000000008152600401610f5890613a93565b60405180910390fd5b6000610f6c82610dd1565b9050610f79813384611b21565b60006008600084815260200190815260200160002060090160006101000a81548160ff021916908315150217905550336008600084815260200190815260200160002060000160006101000a81548173ffffffffffffffffffffffffffffffffffffffff021916908373ffffffffffffffffffffffffffffffffffffffff1602179055508073ffffffffffffffffffffffffffffffffffffffff166108fc349081150290604051600060405180830381858888f19350505050158015611043573d6000803e3d6000fd5b505050565b60008073ffffffffffffffffffffffffffffffffffffffff168273ffffffffffffffffffffffffffffffffffffffff16036110b8576040517f08c379a00000000000000000000000000000000000000000000000000000000081526004016110af90613b25565b60405180910390fd5b600360008373ffffffffffffffffffffffffffffffffffffffff1673ffffffffffffffffffffffffffffffffffffffff168152602001908152602001600020549050919050565b611107611e1a565b6111116000611f58565b565b6000600660009054906101000a900473ffffffffffffffffffffffffffffffffffffffff16905090565b61114682611eda565b611185576040517f08c379a000000000000000000000000000000000000000000000000000000000815260040161117c90613903565b60405180910390fd5b61118e82610dd1565b73ffffffffffffffffffffffffffffffffffffffff163373ffffffffffffffffffffffffffffffffffffffff16146111fb576040517f08c379a00000000000000000000000000000000000000000000000000000000081526004016111f290613bb7565b60405180910390fd5b80600860008481526020019081526020016000206008018190555060016008600084815260200190815260200160002060090160006101000a81548160ff0219169083151502179055506001600960008282546112589190613c06565b925050819055505050565b6060600180546112729061342c565b80601f016020809104026020016040519081016040528092919081815260200182805461129e9061342c565b80156112eb5780601f106112c0576101008083540402835291602001916112eb565b820191906000526020600020905b8154815290600101906020018083116112ce57829003601f168201915b5050505050905090565b6113076113006119cb565b838361201e565b5050565b6060600060095467ffffffffffffffff81111561132b5761132a612bc0565b5b60405190808252806020026020018201604052801561136457816020015b61135161284c565b8152602001906001900390816113495790505b50905060005b60095481101561172d5760086000828152602001908152602001600020604051806101400160405290816000820160009054906101000a900473ffffffffffffffffffffffffffffffffffffffff1673ffffffffffffffffffffffffffffffffffffffff1673ffffffffffffffffffffffffffffffffffffffff1681526020016001820180546113f99061342c565b80601f01602080910402602001604051908101604052809291908181526020018280546114259061342c565b80156114725780601f1061144757610100808354040283529160200191611472565b820191906000526020600020905b81548152906001019060200180831161145557829003601f168201915b50505050508152602001600282015481526020016003820180546114959061342c565b80601f01602080910402602001604051908101604052809291908181526020018280546114c19061342c565b801561150e5780601f106114e35761010080835404028352916020019161150e565b820191906000526020600020905b8154815290600101906020018083116114f157829003601f168201915b505050505081526020016004820180546115279061342c565b80601f01602080910402602001604051908101604052809291908181526020018280546115539061342c565b80156115a05780601f10611575576101008083540402835291602001916115a0565b820191906000526020600020905b81548152906001019060200180831161158357829003601f168201915b505050505081526020016005820180546115b99061342c565b80601f01602080910402602001604051908101604052809291908181526020018280546115e59061342c565b80156116325780601f1061160757610100808354040283529160200191611632565b820191906000526020600020905b81548152906001019060200180831161161557829003601f168201915b50505050508152602001600682015481526020016007820180546116559061342c565b80601f01602080910402602001604051908101604052809291908181526020018280546116819061342c565b80156116ce5780601f106116a3576101008083540402835291602001916116ce565b820191906000526020600020905b8154815290600101906020018083116116b157829003601f168201915b50505050508152602001600882015481526020016009820160009054906101000a900460ff16151515158152505082828151811061170f5761170e613c3a565b5b6020026020010181905250808061172590613c69565b91505061136a565b508091505090565b6117466117406119cb565b83611a8c565b611785576040517f08c379a000000000000000000000000000000000000000000000000000000000815260040161177c906135f3565b60405180910390fd5b6117918484848461218a565b50505050565b60606117a282611980565b60006117ac6121e6565b905060008151116117cc57604051806020016040528060008152506117f7565b806117d6846121fd565b6040516020016117e7929190613ced565b6040516020818303038152906040525b915050919050565b6000600560008473ffffffffffffffffffffffffffffffffffffffff1673ffffffffffffffffffffffffffffffffffffffff16815260200190815260200160002060008373ffffffffffffffffffffffffffffffffffffffff1673ffffffffffffffffffffffffffffffffffffffff16815260200190815260200160002060009054906101000a900460ff16905092915050565b61189b611e1a565b600073ffffffffffffffffffffffffffffffffffffffff168173ffffffffffffffffffffffffffffffffffffffff160361190a576040517f08c379a000000000000000000000000000000000000000000000000000000000815260040161190190613d83565b60405180910390fd5b61191381611f58565b50565b60007f01ffc9a7000000000000000000000000000000000000000000000000000000007bffffffffffffffffffffffffffffffffffffffffffffffffffffffff1916827bffffffffffffffffffffffffffffffffffffffffffffffffffffffff1916149050919050565b61198981611eda565b6119c8576040517f08c379a00000000000000000000000000000000000000000000000000000000081526004016119bf9061396f565b60405180910390fd5b50565b600033905090565b816004600083815260200190815260200160002060006101000a81548173ffffffffffffffffffffffffffffffffffffffff021916908373ffffffffffffffffffffffffffffffffffffffff160217905550808273ffffffffffffffffffffffffffffffffffffffff16611a4683610dd1565b73ffffffffffffffffffffffffffffffffffffffff167f8c5be1e5ebec7d5bd14f71427d1e84f3dd0314c0f7b2291e5b200ac8c7c3b92560405160405180910390a45050565b600080611a9883610dd1565b90508073ffffffffffffffffffffffffffffffffffffffff168473ffffffffffffffffffffffffffffffffffffffff161480611ada5750611ad981856117ff565b5b80611b1857508373ffffffffffffffffffffffffffffffffffffffff16611b0084610675565b73ffffffffffffffffffffffffffffffffffffffff16145b91505092915050565b8273ffffffffffffffffffffffffffffffffffffffff16611b4182610dd1565b73ffffffffffffffffffffffffffffffffffffffff1614611b97576040517f08c379a0000000000000000000000000000000000000000000000000000000008152600401611b8e90613e15565b60405180910390fd5b600073ffffffffffffffffffffffffffffffffffffffff168273ffffffffffffffffffffffffffffffffffffffff1603611c06576040517f08c379a0000000000000000000000000000000000000000000000000000000008152600401611bfd90613ea7565b60405180910390fd5b611c1383838360016122cb565b8273ffffffffffffffffffffffffffffffffffffffff16611c3382610dd1565b73ffffffffffffffffffffffffffffffffffffffff1614611c89576040517f08c379a0000000000000000000000000000000000000000000000000000000008152600401611c8090613e15565b60405180910390fd5b6004600082815260200190815260200160002060006101000a81549073ffffffffffffffffffffffffffffffffffffffff02191690556001600360008573ffffffffffffffffffffffffffffffffffffffff1673ffffffffffffffffffffffffffffffffffffffff168152602001908152602001600020600082825403925050819055506001600360008473ffffffffffffffffffffffffffffffffffffffff1673ffffffffffffffffffffffffffffffffffffffff16815260200190815260200160002060008282540192505081905550816002600083815260200190815260200160002060006101000a81548173ffffffffffffffffffffffffffffffffffffffff021916908373ffffffffffffffffffffffffffffffffffffffff160217905550808273ffffffffffffffffffffffffffffffffffffffff168473ffffffffffffffffffffffffffffffffffffffff167fddf252ad1be2c89b69c2b068fc378daa952ba7f163c4a11628f55a4df523b3ef60405160405180910390a4611e1583838360016122d1565b505050565b611e226119cb565b73ffffffffffffffffffffffffffffffffffffffff16611e40611113565b73ffffffffffffffffffffffffffffffffffffffff1614611e96576040517f08c379a0000000000000000000000000000000000000000000000000000000008152600401611e8d90613f13565b60405180910390fd5b565b600081600001549050919050565b6001816000016000828254019250508190555050565b611ed68282604051806020016040528060008152506122d7565b5050565b60008073ffffffffffffffffffffffffffffffffffffffff16611efc83611f1b565b73ffffffffffffffffffffffffffffffffffffffff1614159050919050565b60006002600083815260200190815260200160002060009054906101000a900473ffffffffffffffffffffffffffffffffffffffff169050919050565b6000600660009054906101000a900473ffffffffffffffffffffffffffffffffffffffff16905081600660006101000a81548173ffffffffffffffffffffffffffffffffffffffff021916908373ffffffffffffffffffffffffffffffffffffffff1602179055508173ffffffffffffffffffffffffffffffffffffffff168173ffffffffffffffffffffffffffffffffffffffff167f8be0079c531659141344cd1fd0a4f28419497f9722a3daafe3b4186f6b6457e060405160405180910390a35050565b8173ffffffffffffffffffffffffffffffffffffffff168373ffffffffffffffffffffffffffffffffffffffff160361208c576040517f08c379a000000000000000000000000000000000000000000000000000000000815260040161208390613f7f565b60405180910390fd5b80600560008573ffffffffffffffffffffffffffffffffffffffff1673ffffffffffffffffffffffffffffffffffffffff16815260200190815260200160002060008473ffffffffffffffffffffffffffffffffffffffff1673ffffffffffffffffffffffffffffffffffffffff16815260200190815260200160002060006101000a81548160ff0219169083151502179055508173ffffffffffffffffffffffffffffffffffffffff168373ffffffffffffffffffffffffffffffffffffffff167f17307eab39ab6107e8899845ad3d59bd9653f200f220920489ca2b5937696c318360405161217d919061296b565b60405180910390a3505050565b612195848484611b21565b6121a184848484612332565b6121e0576040517f08c379a00000000000000000000000000000000000000000000000000000000081526004016121d790614011565b60405180910390fd5b50505050565b606060405180602001604052806000815250905090565b60606000600161220c846124b9565b01905060008167ffffffffffffffff81111561222b5761222a612bc0565b5b6040519080825280601f01601f19166020018201604052801561225d5781602001600182028036833780820191505090505b509050600082602001820190505b6001156122c0578080600190039150507f3031323334353637383961626364656600000000000000000000000000000000600a86061a8153600a85816122b4576122b3614031565b5b0494506000850361226b575b819350505050919050565b50505050565b50505050565b6122e1838361260c565b6122ee6000848484612332565b61232d576040517f08c379a000000000000000000000000000000000000000000000000000000000815260040161232490614011565b60405180910390fd5b505050565b60006123538473ffffffffffffffffffffffffffffffffffffffff16612829565b156124ac578373ffffffffffffffffffffffffffffffffffffffff1663150b7a0261237c6119cb565b8786866040518563ffffffff1660e01b815260040161239e94939291906140b5565b6020604051808303816000875af19250505080156123da57506040513d601f19601f820116820180604052508101906123d79190614116565b60015b61245c573d806000811461240a576040519150601f19603f3d011682016040523d82523d6000602084013e61240f565b606091505b506000815103612454576040517f08c379a000000000000000000000000000000000000000000000000000000000815260040161244b90614011565b60405180910390fd5b805181602001fd5b63150b7a0260e01b7bffffffffffffffffffffffffffffffffffffffffffffffffffffffff1916817bffffffffffffffffffffffffffffffffffffffffffffffffffffffff1916149150506124b1565b600190505b949350505050565b600080600090507a184f03e93ff9f4daa797ed6e38ed64bf6a1f0100000000000000008310612517577a184f03e93ff9f4daa797ed6e38ed64bf6a1f010000000000000000838161250d5761250c614031565b5b0492506040810190505b6d04ee2d6d415b85acef81000000008310612554576d04ee2d6d415b85acef8100000000838161254a57612549614031565b5b0492506020810190505b662386f26fc10000831061258357662386f26fc10000838161257957612578614031565b5b0492506010810190505b6305f5e10083106125ac576305f5e10083816125a2576125a1614031565b5b0492506008810190505b61271083106125d15761271083816125c7576125c6614031565b5b0492506004810190505b606483106125f457606483816125ea576125e9614031565b5b0492506002810190505b600a8310612603576001810190505b80915050919050565b600073ffffffffffffffffffffffffffffffffffffffff168273ffffffffffffffffffffffffffffffffffffffff160361267b576040517f08c379a00000000000000000000000000000000000000000000000000000000081526004016126729061418f565b60405180910390fd5b61268481611eda565b156126c4576040517f08c379a00000000000000000000000000000000000000000000000000000000081526004016126bb906141fb565b60405180910390fd5b6126d26000838360016122cb565b6126db81611eda565b1561271b576040517f08c379a0000000000000000000000000000000000000000000000000000000008152600401612712906141fb565b60405180910390fd5b6001600360008473ffffffffffffffffffffffffffffffffffffffff1673ffffffffffffffffffffffffffffffffffffffff16815260200190815260200160002060008282540192505081905550816002600083815260200190815260200160002060006101000a81548173ffffffffffffffffffffffffffffffffffffffff021916908373ffffffffffffffffffffffffffffffffffffffff160217905550808273ffffffffffffffffffffffffffffffffffffffff16600073ffffffffffffffffffffffffffffffffffffffff167fddf252ad1be2c89b69c2b068fc378daa952ba7f163c4a11628f55a4df523b3ef60405160405180910390a46128256000838360016122d1565b5050565b6000808273ffffffffffffffffffffffffffffffffffffffff163b119050919050565b604051806101400160405280600073ffffffffffffffffffffffffffffffffffffffff16815260200160608152602001600081526020016060815260200160608152602001606081526020016000815260200160608152602001600081526020016000151581525090565b6000604051905090565b600080fd5b600080fd5b60007fffffffff0000000000000000000000000000000000000000000000000000000082169050919050565b612900816128cb565b811461290b57600080fd5b50565b60008135905061291d816128f7565b92915050565b600060208284031215612939576129386128c1565b5b60006129478482850161290e565b91505092915050565b60008115159050919050565b61296581612950565b82525050565b6000602082019050612980600083018461295c565b92915050565b600081519050919050565b600082825260208201905092915050565b60005b838110156129c05780820151818401526020810190506129a5565b60008484015250505050565b6000601f19601f8301169050919050565b60006129e882612986565b6129f28185612991565b9350612a028185602086016129a2565b612a0b816129cc565b840191505092915050565b60006020820190508181036000830152612a3081846129dd565b905092915050565b6000819050919050565b612a4b81612a38565b8114612a5657600080fd5b50565b600081359050612a6881612a42565b92915050565b600060208284031215612a8457612a836128c1565b5b6000612a9284828501612a59565b91505092915050565b600073ffffffffffffffffffffffffffffffffffffffff82169050919050565b6000612ac682612a9b565b9050919050565b612ad681612abb565b82525050565b6000602082019050612af16000830184612acd565b92915050565b612b0081612abb565b8114612b0b57600080fd5b50565b600081359050612b1d81612af7565b92915050565b60008060408385031215612b3a57612b396128c1565b5b6000612b4885828601612b0e565b9250506020612b5985828601612a59565b9150509250929050565b600080600060608486031215612b7c57612b7b6128c1565b5b6000612b8a86828701612b0e565b9350506020612b9b86828701612b0e565b9250506040612bac86828701612a59565b9150509250925092565b600080fd5b600080fd5b7f4e487b7100000000000000000000000000000000000000000000000000000000600052604160045260246000fd5b612bf8826129cc565b810181811067ffffffffffffffff82111715612c1757612c16612bc0565b5b80604052505050565b6000612c2a6128b7565b9050612c368282612bef565b919050565b600067ffffffffffffffff821115612c5657612c55612bc0565b5b612c5f826129cc565b9050602081019050919050565b82818337600083830152505050565b6000612c8e612c8984612c3b565b612c20565b905082815260208101848484011115612caa57612ca9612bbb565b5b612cb5848285612c6c565b509392505050565b600082601f830112612cd257612cd1612bb6565b5b8135612ce2848260208601612c7b565b91505092915050565b600080600080600080600080610100898b031215612d0c57612d0b6128c1565b5b6000612d1a8b828c01612b0e565b985050602089013567ffffffffffffffff811115612d3b57612d3a6128c6565b5b612d478b828c01612cbd565b9750506040612d588b828c01612a59565b965050606089013567ffffffffffffffff811115612d7957612d786128c6565b5b612d858b828c01612cbd565b955050608089013567ffffffffffffffff811115612da657612da56128c6565b5b612db28b828c01612cbd565b94505060a089013567ffffffffffffffff811115612dd357612dd26128c6565b5b612ddf8b828c01612cbd565b93505060c0612df08b828c01612a59565b92505060e089013567ffffffffffffffff811115612e1157612e106128c6565b5b612e1d8b828c01612cbd565b9150509295985092959890939650565b612e3681612abb565b82525050565b600082825260208201905092915050565b6000612e5882612986565b612e628185612e3c565b9350612e728185602086016129a2565b612e7b816129cc565b840191505092915050565b612e8f81612a38565b82525050565b612e9e81612950565b82525050565b600061014083016000830151612ebd6000860182612e2d565b5060208301518482036020860152612ed58282612e4d565b9150506040830151612eea6040860182612e86565b5060608301518482036060860152612f028282612e4d565b91505060808301518482036080860152612f1c8282612e4d565b91505060a083015184820360a0860152612f368282612e4d565b91505060c0830151612f4b60c0860182612e86565b5060e083015184820360e0860152612f638282612e4d565b915050610100830151612f7a610100860182612e86565b50610120830151612f8f610120860182612e95565b508091505092915050565b60006020820190508181036000830152612fb48184612ea4565b905092915050565b600060208284031215612fd257612fd16128c1565b5b6000612fe084828501612b0e565b91505092915050565b612ff281612a38565b82525050565b600060208201905061300d6000830184612fe9565b92915050565b6000806040838503121561302a576130296128c1565b5b600061303885828601612a59565b925050602061304985828601612a59565b9150509250929050565b61305c81612950565b811461306757600080fd5b50565b60008135905061307981613053565b92915050565b60008060408385031215613096576130956128c1565b5b60006130a485828601612b0e565b92505060206130b58582860161306a565b9150509250929050565b600081519050919050565b600082825260208201905092915050565b6000819050602082019050919050565b6000610140830160008301516131046000860182612e2d565b506020830151848203602086015261311c8282612e4d565b91505060408301516131316040860182612e86565b50606083015184820360608601526131498282612e4d565b915050608083015184820360808601526131638282612e4d565b91505060a083015184820360a086015261317d8282612e4d565b91505060c083015161319260c0860182612e86565b5060e083015184820360e08601526131aa8282612e4d565b9150506101008301516131c1610100860182612e86565b506101208301516131d6610120860182612e95565b508091505092915050565b60006131ed83836130eb565b905092915050565b6000602082019050919050565b600061320d826130bf565b61321781856130ca565b935083602082028501613229856130db565b8060005b85811015613265578484038952815161324685826131e1565b9450613251836131f5565b925060208a0199505060018101905061322d565b50829750879550505050505092915050565b600060208201905081810360008301526132918184613202565b905092915050565b600067ffffffffffffffff8211156132b4576132b3612bc0565b5b6132bd826129cc565b9050602081019050919050565b60006132dd6132d884613299565b612c20565b9050828152602081018484840111156132f9576132f8612bbb565b5b613304848285612c6c565b509392505050565b600082601f83011261332157613320612bb6565b5b81356133318482602086016132ca565b91505092915050565b60008060008060808587031215613354576133536128c1565b5b600061336287828801612b0e565b945050602061337387828801612b0e565b935050604061338487828801612a59565b925050606085013567ffffffffffffffff8111156133a5576133a46128c6565b5b6133b18782880161330c565b91505092959194509250565b600080604083850312156133d4576133d36128c1565b5b60006133e285828601612b0e565b92505060206133f385828601612b0e565b9150509250929050565b7f4e487b7100000000000000000000000000000000000000000000000000000000600052602260045260246000fd5b6000600282049050600182168061344457607f821691505b602082108103613457576134566133fd565b5b50919050565b7f4552433732313a20617070726f76616c20746f2063757272656e74206f776e6560008201527f7200000000000000000000000000000000000000000000000000000000000000602082015250565b60006134b9602183612991565b91506134c48261345d565b604082019050919050565b600060208201905081810360008301526134e8816134ac565b9050919050565b7f4552433732313a20617070726f76652063616c6c6572206973206e6f7420746f60008201527f6b656e206f776e6572206f7220617070726f76656420666f7220616c6c000000602082015250565b600061354b603d83612991565b9150613556826134ef565b604082019050919050565b6000602082019050818103600083015261357a8161353e565b9050919050565b7f4552433732313a2063616c6c6572206973206e6f7420746f6b656e206f776e6560008201527f72206f7220617070726f76656400000000000000000000000000000000000000602082015250565b60006135dd602d83612991565b91506135e882613581565b604082019050919050565b6000602082019050818103600083015261360c816135d0565b9050919050565b60008190508160005260206000209050919050565b60006020601f8301049050919050565b600082821b905092915050565b6000600883026136757fffffffffffffffffffffffffffffffffffffffffffffffffffffffffffffffff82613638565b61367f8683613638565b95508019841693508086168417925050509392505050565b6000819050919050565b60006136bc6136b76136b284612a38565b613697565b612a38565b9050919050565b6000819050919050565b6136d6836136a1565b6136ea6136e2826136c3565b848454613645565b825550505050565b600090565b6136ff6136f2565b61370a8184846136cd565b505050565b5b8181101561372e576137236000826136f7565b600181019050613710565b5050565b601f8211156137735761374481613613565b61374d84613628565b8101602085101561375c578190505b61377061376885613628565b83018261370f565b50505b505050565b600082821c905092915050565b600061379660001984600802613778565b1980831691505092915050565b60006137af8383613785565b9150826002028217905092915050565b6137c882612986565b67ffffffffffffffff8111156137e1576137e0612bc0565b5b6137eb825461342c565b6137f6828285613732565b600060209050601f8311600181146138295760008415613817578287015190505b61382185826137a3565b865550613889565b601f19841661383786613613565b60005b8281101561385f5784890151825560018201915060208501945060208101905061383a565b8683101561387c5784890151613878601f891682613785565b8355505b6001600288020188555050505b505050505050565b7f4361724465616c6572736869703a2063617220646f6573206e6f74206578697360008201527f7400000000000000000000000000000000000000000000000000000000000000602082015250565b60006138ed602183612991565b91506138f882613891565b604082019050919050565b6000602082019050818103600083015261391c816138e0565b9050919050565b7f4552433732313a20696e76616c696420746f6b656e2049440000000000000000600082015250565b6000613959601883612991565b915061396482613923565b602082019050919050565b600060208201905081810360008301526139888161394c565b9050919050565b7f4361724465616c6572736869703a20636172206973206e6f7420666f7220736160008201527f6c65000000000000000000000000000000000000000000000000000000000000602082015250565b60006139eb602283612991565b91506139f68261398f565b604082019050919050565b60006020820190508181036000830152613a1a816139de565b9050919050565b7f4361724465616c6572736869703a20696e636f7272656374207061796d656e7460008201527f20616d6f756e7400000000000000000000000000000000000000000000000000602082015250565b6000613a7d602783612991565b9150613a8882613a21565b604082019050919050565b60006020820190508181036000830152613aac81613a70565b9050919050565b7f4552433732313a2061646472657373207a65726f206973206e6f74206120766160008201527f6c6964206f776e65720000000000000000000000000000000000000000000000602082015250565b6000613b0f602983612991565b9150613b1a82613ab3565b604082019050919050565b60006020820190508181036000830152613b3e81613b02565b9050919050565b7f4361724465616c6572736869702063616c6c6572206973206e6f74207468652060008201527f6f776e6572206f66207468652063617200000000000000000000000000000000602082015250565b6000613ba1603083612991565b9150613bac82613b45565b604082019050919050565b60006020820190508181036000830152613bd081613b94565b9050919050565b7f4e487b7100000000000000000000000000000000000000000000000000000000600052601160045260246000fd5b6000613c1182612a38565b9150613c1c83612a38565b9250828201905080821115613c3457613c33613bd7565b5b92915050565b7f4e487b7100000000000000000000000000000000000000000000000000000000600052603260045260246000fd5b6000613c7482612a38565b91507fffffffffffffffffffffffffffffffffffffffffffffffffffffffffffffffff8203613ca657613ca5613bd7565b5b600182019050919050565b600081905092915050565b6000613cc782612986565b613cd18185613cb1565b9350613ce18185602086016129a2565b80840191505092915050565b6000613cf98285613cbc565b9150613d058284613cbc565b91508190509392505050565b7f4f776e61626c653a206e6577206f776e657220697320746865207a65726f206160008201527f6464726573730000000000000000000000000000000000000000000000000000602082015250565b6000613d6d602683612991565b9150613d7882613d11565b604082019050919050565b60006020820190508181036000830152613d9c81613d60565b9050919050565b7f4552433732313a207472616e736665722066726f6d20696e636f72726563742060008201527f6f776e6572000000000000000000000000000000000000000000000000000000602082015250565b6000613dff602583612991565b9150613e0a82613da3565b604082019050919050565b60006020820190508181036000830152613e2e81613df2565b9050919050565b7f4552433732313a207472616e7366657220746f20746865207a65726f2061646460008201527f7265737300000000000000000000000000000000000000000000000000000000602082015250565b6000613e91602483612991565b9150613e9c82613e35565b604082019050919050565b60006020820190508181036000830152613ec081613e84565b9050919050565b7f4f776e61626c653a2063616c6c6572206973206e6f7420746865206f776e6572600082015250565b6000613efd602083612991565b9150613f0882613ec7565b602082019050919050565b60006020820190508181036000830152613f2c81613ef0565b9050919050565b7f4552433732313a20617070726f766520746f2063616c6c657200000000000000600082015250565b6000613f69601983612991565b9150613f7482613f33565b602082019050919050565b60006020820190508181036000830152613f9881613f5c565b9050919050565b7f4552433732313a207472616e7366657220746f206e6f6e20455243373231526560008201527f63656976657220696d706c656d656e7465720000000000000000000000000000602082015250565b6000613ffb603283612991565b915061400682613f9f565b604082019050919050565b6000602082019050818103600083015261402a81613fee565b9050919050565b7f4e487b7100000000000000000000000000000000000000000000000000000000600052601260045260246000fd5b600081519050919050565b600082825260208201905092915050565b600061408782614060565b614091818561406b565b93506140a18185602086016129a2565b6140aa816129cc565b840191505092915050565b60006080820190506140ca6000830187612acd565b6140d76020830186612acd565b6140e46040830185612fe9565b81810360608301526140f6818461407c565b905095945050505050565b600081519050614110816128f7565b92915050565b60006020828403121561412c5761412b6128c1565b5b600061413a84828501614101565b91505092915050565b7f4552433732313a206d696e7420746f20746865207a65726f2061646472657373600082015250565b6000614179602083612991565b915061418482614143565b602082019050919050565b600060208201905081810360008301526141a88161416c565b9050919050565b7f4552433732313a20746f6b656e20616c7265616479206d696e74656400000000600082015250565b60006141e5601c83612991565b91506141f0826141af565b602082019050919050565b60006020820190508181036000830152614214816141d8565b905091905056fea2646970667358221220309297977de8f35420c269cda6858f544a3a64aec53ade233c8329abf9f9768864736f6c63430008110033",
  "immutableReferences": {},
  "source": "// SPDX-License-Identifier: MIT\npragma solidity >=0.8.0 <0.9.0;\n\nimport \"../node_modules/@openzeppelin/contracts/token/ERC721/ERC721.sol\";\nimport \"../node_modules/@openzeppelin/contracts/access/Ownable.sol\";\nimport \"../node_modules/@openzeppelin/contracts/utils/Counters.sol\";\n\ncontract CarDealership is ERC721, Ownable {\n  using Counters for Counters.Counter;\n\n  Counters.Counter private _tokenIdCounter;\n\n  constructor() ERC721(\"CarToken\", \"CAR\") {}\n\n  struct Car {\n    address owner;\n    string licensePlate;\n    uint256 chassisNumber;\n    string brand;\n    string carType;\n    string colour;\n    uint256 mileage;\n    string imageUrl;\n    uint256 price;\n    bool forSale;\n  }\n\n  mapping(uint256 => Car) private cars;\n  uint256 totalCars = 0;\n\n  function safeMint(\n    address _owner,\n    string memory _licensePlate,\n    uint256 _chassisNumber,\n    string memory _brand,\n    string memory _carType,\n    string memory _colour,\n    uint256 _mileage,\n    string memory _imageUrl\n  ) public onlyOwner {\n    uint256 tokenId = _tokenIdCounter.current();\n    _tokenIdCounter.increment();\n    _safeMint(_owner, tokenId);\n    cars[tokenId] = Car(\n      _owner,\n      _licensePlate,\n      _chassisNumber,\n      _brand,\n      _carType,\n      _colour,\n      _mileage,\n      _imageUrl,\n      0,\n      false\n    );\n  }\n\n  function sellCar(uint256 _tokenId, uint256 _price) public {\n    require(_exists(_tokenId), \"CarDealership: car does not exist\");\n    require(msg.sender == ownerOf(_tokenId), \"CarDealership caller is not the owner of the car\");\n\n    cars[_tokenId].price = _price;\n    cars[_tokenId].forSale = true;\n\n    totalCars += 1;\n  }\n\n  function buyCar(uint256 _tokenId) public payable {\n    require(_exists(_tokenId), \"CarDealership: car does not exist\");\n    require(cars[_tokenId].forSale == true, \"CarDealership: car is not for sale\");\n    require(msg.value == cars[_tokenId].price, \"CarDealership: incorrect payment amount\");\n\n    address _seller = ownerOf(_tokenId);\n    _transfer(_seller, msg.sender, _tokenId);\n    cars[_tokenId].forSale = false;\n    cars[_tokenId].owner = msg.sender;\n    payable(_seller).transfer(msg.value);\n  }\n\n  function getCar(uint256 _tokenId) public view returns (Car memory) {\n    require(_exists(_tokenId), \"CarDealership: car does not exist\");\n    return cars[_tokenId];\n  }\n\n  function getAllCars() public view returns (Car[] memory) {\n    Car[] memory _cars = new Car[](totalCars);\n\n    for (uint256 i = 0; i < totalCars; i++) {\n      _cars[i] = cars[i];\n    }\n\n    return _cars;\n  }\n}\n",
  "sourcePath": "/Users/dennismoes/car-dealership/contract/contracts/CarDealership.sol",
  "compiler": {
    "name": "solc",
    "version": "0.8.17+commit.8df45f5f.Emscripten.clang"
  },
  "schemaVersion": "3.4.11",
  "updatedAt": "2023-03-07T15:06:31.641Z",
  "networkType": "ethereum",
  "devdoc": {
    "kind": "dev",
    "methods": {
      "approve(address,uint256)": {
        "details": "See {IERC721-approve}."
      },
      "balanceOf(address)": {
        "details": "See {IERC721-balanceOf}."
      },
      "getApproved(uint256)": {
        "details": "See {IERC721-getApproved}."
      },
      "isApprovedForAll(address,address)": {
        "details": "See {IERC721-isApprovedForAll}."
      },
      "name()": {
        "details": "See {IERC721Metadata-name}."
      },
      "owner()": {
        "details": "Returns the address of the current owner."
      },
      "ownerOf(uint256)": {
        "details": "See {IERC721-ownerOf}."
      },
      "renounceOwnership()": {
        "details": "Leaves the contract without owner. It will not be possible to call `onlyOwner` functions anymore. Can only be called by the current owner. NOTE: Renouncing ownership will leave the contract without an owner, thereby removing any functionality that is only available to the owner."
      },
      "safeTransferFrom(address,address,uint256)": {
        "details": "See {IERC721-safeTransferFrom}."
      },
      "safeTransferFrom(address,address,uint256,bytes)": {
        "details": "See {IERC721-safeTransferFrom}."
      },
      "setApprovalForAll(address,bool)": {
        "details": "See {IERC721-setApprovalForAll}."
      },
      "supportsInterface(bytes4)": {
        "details": "See {IERC165-supportsInterface}."
      },
      "symbol()": {
        "details": "See {IERC721Metadata-symbol}."
      },
      "tokenURI(uint256)": {
        "details": "See {IERC721Metadata-tokenURI}."
      },
      "transferFrom(address,address,uint256)": {
        "details": "See {IERC721-transferFrom}."
      },
      "transferOwnership(address)": {
        "details": "Transfers ownership of the contract to a new account (`newOwner`). Can only be called by the current owner."
      }
    },
    "version": 1
  },
  "userdoc": {
    "kind": "user",
    "methods": {},
    "version": 1
  }
}