{
  "contractName": "CarDealership",
  "abi": [
    {
      "inputs": [],
      "stateMutability": "nonpayable",
      "type": "constructor"
    },
    {
      "anonymous": false,
      "inputs": [
        {
          "indexed": true,
          "internalType": "address",
          "name": "owner",
          "type": "address"
        },
        {
          "indexed": true,
          "internalType": "address",
          "name": "approved",
          "type": "address"
        },
        {
          "indexed": true,
          "internalType": "uint256",
          "name": "tokenId",
          "type": "uint256"
        }
      ],
      "name": "Approval",
      "type": "event"
    },
    {
      "anonymous": false,
      "inputs": [
        {
          "indexed": true,
          "internalType": "address",
          "name": "owner",
          "type": "address"
        },
        {
          "indexed": true,
          "internalType": "address",
          "name": "operator",
          "type": "address"
        },
        {
          "indexed": false,
          "internalType": "bool",
          "name": "approved",
          "type": "bool"
        }
      ],
      "name": "ApprovalForAll",
      "type": "event"
    },
    {
      "anonymous": false,
      "inputs": [
        {
          "indexed": true,
          "internalType": "uint256",
          "name": "tokenId",
          "type": "uint256"
        },
        {
          "indexed": true,
          "internalType": "address",
          "name": "buyer",
          "type": "address"
        },
        {
          "indexed": false,
          "internalType": "uint256",
          "name": "price",
          "type": "uint256"
        }
      ],
      "name": "CarSold",
      "type": "event"
    },
    {
      "anonymous": false,
      "inputs": [
        {
          "indexed": true,
          "internalType": "address",
          "name": "previousOwner",
          "type": "address"
        },
        {
          "indexed": true,
          "internalType": "address",
          "name": "newOwner",
          "type": "address"
        }
      ],
      "name": "OwnershipTransferred",
      "type": "event"
    },
    {
      "anonymous": false,
      "inputs": [
        {
          "indexed": true,
          "internalType": "address",
          "name": "from",
          "type": "address"
        },
        {
          "indexed": true,
          "internalType": "address",
          "name": "to",
          "type": "address"
        },
        {
          "indexed": true,
          "internalType": "uint256",
          "name": "tokenId",
          "type": "uint256"
        }
      ],
      "name": "Transfer",
      "type": "event"
    },
    {
      "stateMutability": "payable",
      "type": "fallback",
      "payable": true
    },
    {
      "inputs": [
        {
          "internalType": "address",
          "name": "to",
          "type": "address"
        },
        {
          "internalType": "uint256",
          "name": "tokenId",
          "type": "uint256"
        }
      ],
      "name": "approve",
      "outputs": [],
      "stateMutability": "nonpayable",
      "type": "function"
    },
    {
      "inputs": [
        {
          "internalType": "address",
          "name": "owner",
          "type": "address"
        }
      ],
      "name": "balanceOf",
      "outputs": [
        {
          "internalType": "uint256",
          "name": "",
          "type": "uint256"
        }
      ],
      "stateMutability": "view",
      "type": "function",
      "constant": true
    },
    {
      "inputs": [
        {
          "internalType": "uint256",
          "name": "tokenId",
          "type": "uint256"
        }
      ],
      "name": "getApproved",
      "outputs": [
        {
          "internalType": "address",
          "name": "",
          "type": "address"
        }
      ],
      "stateMutability": "view",
      "type": "function",
      "constant": true
    },
    {
      "inputs": [
        {
          "internalType": "address",
          "name": "owner",
          "type": "address"
        },
        {
          "internalType": "address",
          "name": "operator",
          "type": "address"
        }
      ],
      "name": "isApprovedForAll",
      "outputs": [
        {
          "internalType": "bool",
          "name": "",
          "type": "bool"
        }
      ],
      "stateMutability": "view",
      "type": "function",
      "constant": true
    },
    {
      "inputs": [],
      "name": "name",
      "outputs": [
        {
          "internalType": "string",
          "name": "",
          "type": "string"
        }
      ],
      "stateMutability": "view",
      "type": "function",
      "constant": true
    },
    {
      "inputs": [],
      "name": "owner",
      "outputs": [
        {
          "internalType": "address",
          "name": "",
          "type": "address"
        }
      ],
      "stateMutability": "view",
      "type": "function",
      "constant": true
    },
    {
      "inputs": [
        {
          "internalType": "uint256",
          "name": "tokenId",
          "type": "uint256"
        }
      ],
      "name": "ownerOf",
      "outputs": [
        {
          "internalType": "address",
          "name": "",
          "type": "address"
        }
      ],
      "stateMutability": "view",
      "type": "function",
      "constant": true
    },
    {
      "inputs": [],
      "name": "renounceOwnership",
      "outputs": [],
      "stateMutability": "nonpayable",
      "type": "function"
    },
    {
      "inputs": [
        {
          "internalType": "address",
          "name": "from",
          "type": "address"
        },
        {
          "internalType": "address",
          "name": "to",
          "type": "address"
        },
        {
          "internalType": "uint256",
          "name": "tokenId",
          "type": "uint256"
        }
      ],
      "name": "safeTransferFrom",
      "outputs": [],
      "stateMutability": "nonpayable",
      "type": "function"
    },
    {
      "inputs": [
        {
          "internalType": "address",
          "name": "from",
          "type": "address"
        },
        {
          "internalType": "address",
          "name": "to",
          "type": "address"
        },
        {
          "internalType": "uint256",
          "name": "tokenId",
          "type": "uint256"
        },
        {
          "internalType": "bytes",
          "name": "data",
          "type": "bytes"
        }
      ],
      "name": "safeTransferFrom",
      "outputs": [],
      "stateMutability": "nonpayable",
      "type": "function"
    },
    {
      "inputs": [
        {
          "internalType": "address",
          "name": "operator",
          "type": "address"
        },
        {
          "internalType": "bool",
          "name": "approved",
          "type": "bool"
        }
      ],
      "name": "setApprovalForAll",
      "outputs": [],
      "stateMutability": "nonpayable",
      "type": "function"
    },
    {
      "inputs": [
        {
          "internalType": "bytes4",
          "name": "interfaceId",
          "type": "bytes4"
        }
      ],
      "name": "supportsInterface",
      "outputs": [
        {
          "internalType": "bool",
          "name": "",
          "type": "bool"
        }
      ],
      "stateMutability": "view",
      "type": "function",
      "constant": true
    },
    {
      "inputs": [],
      "name": "symbol",
      "outputs": [
        {
          "internalType": "string",
          "name": "",
          "type": "string"
        }
      ],
      "stateMutability": "view",
      "type": "function",
      "constant": true
    },
    {
      "inputs": [
        {
          "internalType": "uint256",
          "name": "index",
          "type": "uint256"
        }
      ],
      "name": "tokenByIndex",
      "outputs": [
        {
          "internalType": "uint256",
          "name": "",
          "type": "uint256"
        }
      ],
      "stateMutability": "view",
      "type": "function",
      "constant": true
    },
    {
      "inputs": [
        {
          "internalType": "address",
          "name": "owner",
          "type": "address"
        },
        {
          "internalType": "uint256",
          "name": "index",
          "type": "uint256"
        }
      ],
      "name": "tokenOfOwnerByIndex",
      "outputs": [
        {
          "internalType": "uint256",
          "name": "",
          "type": "uint256"
        }
      ],
      "stateMutability": "view",
      "type": "function",
      "constant": true
    },
    {
      "inputs": [
        {
          "internalType": "uint256",
          "name": "tokenId",
          "type": "uint256"
        }
      ],
      "name": "tokenURI",
      "outputs": [
        {
          "internalType": "string",
          "name": "",
          "type": "string"
        }
      ],
      "stateMutability": "view",
      "type": "function",
      "constant": true
    },
    {
      "inputs": [],
      "name": "totalSupply",
      "outputs": [
        {
          "internalType": "uint256",
          "name": "",
          "type": "uint256"
        }
      ],
      "stateMutability": "view",
      "type": "function",
      "constant": true
    },
    {
      "inputs": [
        {
          "internalType": "address",
          "name": "from",
          "type": "address"
        },
        {
          "internalType": "address",
          "name": "to",
          "type": "address"
        },
        {
          "internalType": "uint256",
          "name": "tokenId",
          "type": "uint256"
        }
      ],
      "name": "transferFrom",
      "outputs": [],
      "stateMutability": "nonpayable",
      "type": "function"
    },
    {
      "inputs": [
        {
          "internalType": "address",
          "name": "newOwner",
          "type": "address"
        }
      ],
      "name": "transferOwnership",
      "outputs": [],
      "stateMutability": "nonpayable",
      "type": "function"
    },
    {
      "stateMutability": "payable",
      "type": "receive",
      "payable": true
    },
    {
      "inputs": [
        {
          "internalType": "address",
          "name": "_owner",
          "type": "address"
        },
        {
          "internalType": "string",
          "name": "_licensePlate",
          "type": "string"
        },
        {
          "internalType": "string",
          "name": "_chassisNumber",
          "type": "string"
        },
        {
          "internalType": "string",
          "name": "_brand",
          "type": "string"
        },
        {
          "internalType": "string",
          "name": "_carType",
          "type": "string"
        },
        {
          "internalType": "string",
          "name": "_colour",
          "type": "string"
        },
        {
          "internalType": "uint256",
          "name": "_mileage",
          "type": "uint256"
        },
        {
          "internalType": "uint256",
          "name": "_price",
          "type": "uint256"
        },
        {
          "internalType": "string",
          "name": "_metadataUri",
          "type": "string"
        }
      ],
      "name": "mintCar",
      "outputs": [
        {
          "internalType": "uint256",
          "name": "",
          "type": "uint256"
        }
      ],
      "stateMutability": "nonpayable",
      "type": "function"
    },
    {
      "inputs": [
        {
          "internalType": "uint256",
          "name": "_tokenId",
          "type": "uint256"
        }
      ],
      "name": "buyCar",
      "outputs": [],
      "stateMutability": "payable",
      "type": "function",
      "payable": true
    },
    {
      "inputs": [
        {
          "internalType": "uint256",
          "name": "_tokenId",
          "type": "uint256"
        }
      ],
      "name": "cancelCarOrder",
      "outputs": [],
      "stateMutability": "nonpayable",
      "type": "function"
    },
    {
      "inputs": [
        {
          "internalType": "uint256",
          "name": "_tokenId",
          "type": "uint256"
        }
      ],
      "name": "retrieveCar",
      "outputs": [],
      "stateMutability": "payable",
      "type": "function",
      "payable": true
    },
    {
      "inputs": [
        {
          "internalType": "uint256",
          "name": "_tokenId",
          "type": "uint256"
        }
      ],
      "name": "getCarByToken",
      "outputs": [
        {
          "components": [
            {
              "internalType": "address",
              "name": "owner",
              "type": "address"
            },
            {
              "internalType": "uint256",
              "name": "tokenId",
              "type": "uint256"
            },
            {
              "internalType": "string",
              "name": "licensePlate",
              "type": "string"
            },
            {
              "internalType": "string",
              "name": "chassisNumber",
              "type": "string"
            },
            {
              "internalType": "string",
              "name": "brand",
              "type": "string"
            },
            {
              "internalType": "string",
              "name": "carType",
              "type": "string"
            },
            {
              "internalType": "string",
              "name": "colour",
              "type": "string"
            },
            {
              "internalType": "uint256",
              "name": "mileage",
              "type": "uint256"
            },
            {
              "internalType": "bool",
              "name": "sold",
              "type": "bool"
            },
            {
              "internalType": "address",
              "name": "buyer",
              "type": "address"
            },
            {
              "internalType": "uint256",
              "name": "price",
              "type": "uint256"
            },
            {
              "internalType": "string",
              "name": "metadataUri",
              "type": "string"
            },
            {
              "internalType": "bool",
              "name": "forSale",
              "type": "bool"
            }
          ],
          "internalType": "struct CarDealership.Car",
          "name": "",
          "type": "tuple"
        }
      ],
      "stateMutability": "view",
      "type": "function",
      "constant": true
    },
    {
      "inputs": [
        {
          "internalType": "address",
          "name": "_owner",
          "type": "address"
        }
      ],
      "name": "getCarsByOwner",
      "outputs": [
        {
          "components": [
            {
              "internalType": "address",
              "name": "owner",
              "type": "address"
            },
            {
              "internalType": "uint256",
              "name": "tokenId",
              "type": "uint256"
            },
            {
              "internalType": "string",
              "name": "licensePlate",
              "type": "string"
            },
            {
              "internalType": "string",
              "name": "chassisNumber",
              "type": "string"
            },
            {
              "internalType": "string",
              "name": "brand",
              "type": "string"
            },
            {
              "internalType": "string",
              "name": "carType",
              "type": "string"
            },
            {
              "internalType": "string",
              "name": "colour",
              "type": "string"
            },
            {
              "internalType": "uint256",
              "name": "mileage",
              "type": "uint256"
            },
            {
              "internalType": "bool",
              "name": "sold",
              "type": "bool"
            },
            {
              "internalType": "address",
              "name": "buyer",
              "type": "address"
            },
            {
              "internalType": "uint256",
              "name": "price",
              "type": "uint256"
            },
            {
              "internalType": "string",
              "name": "metadataUri",
              "type": "string"
            },
            {
              "internalType": "bool",
              "name": "forSale",
              "type": "bool"
            }
          ],
          "internalType": "struct CarDealership.Car[]",
          "name": "",
          "type": "tuple[]"
        }
      ],
      "stateMutability": "view",
      "type": "function",
      "constant": true
    },
    {
      "inputs": [],
      "name": "getAllCars",
      "outputs": [
        {
          "components": [
            {
              "internalType": "address",
              "name": "owner",
              "type": "address"
            },
            {
              "internalType": "uint256",
              "name": "tokenId",
              "type": "uint256"
            },
            {
              "internalType": "string",
              "name": "licensePlate",
              "type": "string"
            },
            {
              "internalType": "string",
              "name": "chassisNumber",
              "type": "string"
            },
            {
              "internalType": "string",
              "name": "brand",
              "type": "string"
            },
            {
              "internalType": "string",
              "name": "carType",
              "type": "string"
            },
            {
              "internalType": "string",
              "name": "colour",
              "type": "string"
            },
            {
              "internalType": "uint256",
              "name": "mileage",
              "type": "uint256"
            },
            {
              "internalType": "bool",
              "name": "sold",
              "type": "bool"
            },
            {
              "internalType": "address",
              "name": "buyer",
              "type": "address"
            },
            {
              "internalType": "uint256",
              "name": "price",
              "type": "uint256"
            },
            {
              "internalType": "string",
              "name": "metadataUri",
              "type": "string"
            },
            {
              "internalType": "bool",
              "name": "forSale",
              "type": "bool"
            }
          ],
          "internalType": "struct CarDealership.Car[]",
          "name": "",
          "type": "tuple[]"
        }
      ],
      "stateMutability": "view",
      "type": "function",
      "constant": true
    },
    {
      "inputs": [
        {
          "internalType": "uint256",
          "name": "_token",
          "type": "uint256"
        },
        {
          "internalType": "uint256",
          "name": "_mileageNumber",
          "type": "uint256"
        },
        {
          "internalType": "uint256",
          "name": "_time",
          "type": "uint256"
        }
      ],
      "name": "addMileageReport",
      "outputs": [],
      "stateMutability": "nonpayable",
      "type": "function"
    },
    {
      "inputs": [
        {
          "internalType": "uint256",
          "name": "_token",
          "type": "uint256"
        }
      ],
      "name": "getCarMileageHistory",
      "outputs": [
        {
          "components": [
            {
              "internalType": "uint256",
              "name": "token",
              "type": "uint256"
            },
            {
              "internalType": "uint256",
              "name": "mileage",
              "type": "uint256"
            },
            {
              "internalType": "uint256",
              "name": "date",
              "type": "uint256"
            }
          ],
          "internalType": "struct CarDealership.Mileage[]",
          "name": "",
          "type": "tuple[]"
        }
      ],
      "stateMutability": "view",
      "type": "function",
      "constant": true
    },
    {
      "inputs": [
        {
          "internalType": "uint256",
          "name": "_token",
          "type": "uint256"
        },
        {
          "internalType": "uint256",
          "name": "_price",
          "type": "uint256"
        }
      ],
      "name": "changeCarPrice",
      "outputs": [],
      "stateMutability": "nonpayable",
      "type": "function"
    },
    {
      "inputs": [
        {
          "internalType": "uint256",
          "name": "_token",
          "type": "uint256"
        },
        {
          "internalType": "bool",
          "name": "_availability",
          "type": "bool"
        }
      ],
      "name": "changeCarAvailability",
      "outputs": [],
      "stateMutability": "nonpayable",
      "type": "function"
    }
  ],
  "bytecode": "0x60806040523480156200001157600080fd5b506040518060400160405280600981526020017f636172546f6b656e7300000000000000000000000000000000000000000000008152506040518060400160405280600381526020017f43415200000000000000000000000000000000000000000000000000000000008152506200009e62000092620000ca60201b60201c565b620000d260201b60201c565b8160019081620000af919062000410565b508060029081620000c1919062000410565b505050620004f7565b600033905090565b60008060009054906101000a900473ffffffffffffffffffffffffffffffffffffffff169050816000806101000a81548173ffffffffffffffffffffffffffffffffffffffff021916908373ffffffffffffffffffffffffffffffffffffffff1602179055508173ffffffffffffffffffffffffffffffffffffffff168173ffffffffffffffffffffffffffffffffffffffff167f8be0079c531659141344cd1fd0a4f28419497f9722a3daafe3b4186f6b6457e060405160405180910390a35050565b600081519050919050565b7f4e487b7100000000000000000000000000000000000000000000000000000000600052604160045260246000fd5b7f4e487b7100000000000000000000000000000000000000000000000000000000600052602260045260246000fd5b600060028204905060018216806200021857607f821691505b6020821081036200022e576200022d620001d0565b5b50919050565b60008190508160005260206000209050919050565b60006020601f8301049050919050565b600082821b905092915050565b600060088302620002987fffffffffffffffffffffffffffffffffffffffffffffffffffffffffffffffff8262000259565b620002a4868362000259565b95508019841693508086168417925050509392505050565b6000819050919050565b6000819050919050565b6000620002f1620002eb620002e584620002bc565b620002c6565b620002bc565b9050919050565b6000819050919050565b6200030d83620002d0565b620003256200031c82620002f8565b84845462000266565b825550505050565b600090565b6200033c6200032d565b6200034981848462000302565b505050565b5b8181101562000371576200036560008262000332565b6001810190506200034f565b5050565b601f821115620003c0576200038a8162000234565b620003958462000249565b81016020851015620003a5578190505b620003bd620003b48562000249565b8301826200034e565b50505b505050565b600082821c905092915050565b6000620003e560001984600802620003c5565b1980831691505092915050565b6000620004008383620003d2565b9150826002028217905092915050565b6200041b8262000196565b67ffffffffffffffff811115620004375762000436620001a1565b5b620004438254620001ff565b6200045082828562000375565b600060209050601f83116001811462000488576000841562000473578287015190505b6200047f8582620003f2565b865550620004ef565b601f198416620004988662000234565b60005b82811015620004c2578489015182556001820191506020850194506020810190506200049b565b86831015620004e25784890151620004de601f891682620003d2565b8355505b6001600288020188555050505b505050505050565b615fae80620005076000396000f3fe6080604052600436106101d15760003560e01c806370a08231116100f7578063b88d4fde11610095578063c87b56dd11610064578063c87b56dd146106aa578063e968e5a0146106e7578063e985e9c514610710578063f2fde38b1461074d576101d8565b8063b88d4fde146105ca578063bf170bbf146105f3578063c68c758a14610630578063c75bb4f41461066d576101d8565b80638f5f8a0c116100d15780638f5f8a0c1461050e57806395d89b411461054b578063a22cb46514610576578063abfe5d571461059f576101d8565b806370a082311461048f578063715018a6146104cc5780638da5cb5b146104e3576101d8565b80632f745c591161016f5780634f6ccce71161013e5780634f6ccce7146103d05780634fef82fc1461040d5780636352211e146104365780636c23106014610473576101d8565b80632f745c59146103255780633c54d9801461036257806342842e0e1461037e5780634c8fd150146103a7576101d8565b8063095ea7b3116101ab578063095ea7b31461027f5780630c52ac6a146102a857806318160ddd146102d157806323b872dd146102fc576101d8565b806301ffc9a7146101da57806306fdde0314610217578063081812fc14610242576101d8565b366101d857005b005b3480156101e657600080fd5b5061020160048036038101906101fc91906142fa565b610776565b60405161020e9190614342565b60405180910390f35b34801561022357600080fd5b5061022c6107f0565b60405161023991906143ed565b60405180910390f35b34801561024e57600080fd5b5061026960048036038101906102649190614445565b610882565b60405161027691906144b3565b60405180910390f35b34801561028b57600080fd5b506102a660048036038101906102a191906144fa565b6108c8565b005b3480156102b457600080fd5b506102cf60048036038101906102ca919061453a565b6109df565b005b3480156102dd57600080fd5b506102e66109fe565b6040516102f39190614589565b60405180910390f35b34801561030857600080fd5b50610323600480360381019061031e91906145a4565b610a0b565b005b34801561033157600080fd5b5061034c600480360381019061034791906144fa565b610a6b565b6040516103599190614589565b60405180910390f35b61037c60048036038101906103779190614445565b610b10565b005b34801561038a57600080fd5b506103a560048036038101906103a091906145a4565b610f02565b005b3480156103b357600080fd5b506103ce60048036038101906103c99190614623565b610f22565b005b3480156103dc57600080fd5b506103f760048036038101906103f29190614445565b610f54565b6040516104049190614589565b60405180910390f35b34801561041957600080fd5b50610434600480360381019061042f9190614445565b610fc5565b005b34801561044257600080fd5b5061045d60048036038101906104589190614445565b611325565b60405161046a91906144b3565b60405180910390f35b61048d60048036038101906104889190614445565b6113ab565b005b34801561049b57600080fd5b506104b660048036038101906104b19190614663565b611694565b6040516104c39190614589565b60405180910390f35b3480156104d857600080fd5b506104e161174b565b005b3480156104ef57600080fd5b506104f861175f565b60405161050591906144b3565b60405180910390f35b34801561051a57600080fd5b50610535600480360381019061053091906147c5565b611788565b6040516105429190614589565b60405180910390f35b34801561055757600080fd5b506105606119d3565b60405161056d91906143ed565b60405180910390f35b34801561058257600080fd5b5061059d60048036038101906105989190614937565b611a65565b005b3480156105ab57600080fd5b506105b4611a7b565b6040516105c19190614bec565b60405180910390f35b3480156105d657600080fd5b506105f160048036038101906105ec9190614caf565b611fb9565b005b3480156105ff57600080fd5b5061061a60048036038101906106159190614445565b61201b565b6040516106279190614e23565b60405180910390f35b34801561063c57600080fd5b5061065760048036038101906106529190614445565b6120ab565b6040516106649190614f81565b60405180910390f35b34801561067957600080fd5b50610694600480360381019061068f9190614663565b6125c6565b6040516106a19190614bec565b60405180910390f35b3480156106b657600080fd5b506106d160048036038101906106cc9190614445565b612b0e565b6040516106de91906143ed565b60405180910390f35b3480156106f357600080fd5b5061070e60048036038101906107099190614fa3565b612b76565b005b34801561071c57600080fd5b5061073760048036038101906107329190614ff6565b612c65565b6040516107449190614342565b60405180910390f35b34801561075957600080fd5b50610774600480360381019061076f9190614663565b612cf9565b005b60007f780e9d63000000000000000000000000000000000000000000000000000000007bffffffffffffffffffffffffffffffffffffffffffffffffffffffff1916827bffffffffffffffffffffffffffffffffffffffffffffffffffffffff191614806107e957506107e882612d7c565b5b9050919050565b6060600180546107ff90615065565b80601f016020809104026020016040519081016040528092919081815260200182805461082b90615065565b80156108785780601f1061084d57610100808354040283529160200191610878565b820191906000526020600020905b81548152906001019060200180831161085b57829003601f168201915b5050505050905090565b600061088d82612e5e565b6005600083815260200190815260200160002060009054906101000a900473ffffffffffffffffffffffffffffffffffffffff169050919050565b60006108d382611325565b90508073ffffffffffffffffffffffffffffffffffffffff168373ffffffffffffffffffffffffffffffffffffffff1603610943576040517f08c379a000000000000000000000000000000000000000000000000000000000815260040161093a90615108565b60405180910390fd5b8073ffffffffffffffffffffffffffffffffffffffff16610962612ea9565b73ffffffffffffffffffffffffffffffffffffffff16148061099157506109908161098b612ea9565b612c65565b5b6109d0576040517f08c379a00000000000000000000000000000000000000000000000000000000081526004016109c79061519a565b60405180910390fd5b6109da8383612eb1565b505050565b80600c6000848152602001908152602001600020600901819055505050565b6000600980549050905090565b610a1c610a16612ea9565b82612f6a565b610a5b576040517f08c379a0000000000000000000000000000000000000000000000000000000008152600401610a529061522c565b60405180910390fd5b610a66838383612fff565b505050565b6000610a7683611694565b8210610ab7576040517f08c379a0000000000000000000000000000000000000000000000000000000008152600401610aae906152be565b60405180910390fd5b600760008473ffffffffffffffffffffffffffffffffffffffff1673ffffffffffffffffffffffffffffffffffffffff168152602001908152602001600020600083815260200190815260200160002054905092915050565b610b19816132f8565b6040518060400160405280600d81526020017f436172206e6f7420666f756e640000000000000000000000000000000000000081525090610b90576040517f08c379a0000000000000000000000000000000000000000000000000000000008152600401610b8791906143ed565b60405180910390fd5b506000600c600083815260200190815260200160002090508060080160009054906101000a900460ff166040518060400160405280601d81526020017f5468652063617220686173206e6f74206265656e20736f6c642079657400000081525090610c31576040517f08c379a0000000000000000000000000000000000000000000000000000000008152600401610c2891906143ed565b60405180910390fd5b508060080160019054906101000a900473ffffffffffffffffffffffffffffffffffffffff1673ffffffffffffffffffffffffffffffffffffffff163373ffffffffffffffffffffffffffffffffffffffff1614604051806060016040528060248152602001615f0c6024913990610cdf576040517f08c379a0000000000000000000000000000000000000000000000000000000008152600401610cd691906143ed565b60405180910390fd5b506000610ceb83611325565b73ffffffffffffffffffffffffffffffffffffffff16670de0b6b3a76400008360090154610d19919061530d565b604051610d2590615380565b60006040518083038185875af1925050503d8060008114610d62576040519150601f19603f3d011682016040523d82523d6000602084013e610d67565b606091505b50509050806040518060400160405280601881526020017f4661696c656420746f207472616e73666572206574686572000000000000000081525090610de3576040517f08c379a0000000000000000000000000000000000000000000000000000000008152600401610dda91906143ed565b60405180910390fd5b50610e2b610df084611325565b8360080160019054906101000a900473ffffffffffffffffffffffffffffffffffffffff168560405180602001604052806000815250613339565b60008260080160006101000a81548160ff02191690831515021790555060008260080160016101000a81548173ffffffffffffffffffffffffffffffffffffffff021916908373ffffffffffffffffffffffffffffffffffffffff160217905550600082600901819055508160080160019054906101000a900473ffffffffffffffffffffffffffffffffffffffff168260000160006101000a81548173ffffffffffffffffffffffffffffffffffffffff021916908373ffffffffffffffffffffffffffffffffffffffff160217905550505050565b610f1d83838360405180602001604052806000815250611fb9565b505050565b80600c6000848152602001908152602001600020600b0160006101000a81548160ff0219169083151502179055505050565b6000610f5e6109fe565b8210610f9f576040517f08c379a0000000000000000000000000000000000000000000000000000000008152600401610f9690615407565b60405180910390fd5b60098281548110610fb357610fb2615427565b5b90600052602060002001549050919050565b610fce816132f8565b6040518060400160405280600d81526020017f436172206e6f7420666f756e640000000000000000000000000000000000000081525090611045576040517f08c379a000000000000000000000000000000000000000000000000000000000815260040161103c91906143ed565b60405180910390fd5b506000600c600083815260200190815260200160002090508060080160009054906101000a900460ff166040518060400160405280601d81526020017f5468652063617220686173206e6f74206265656e20736f6c6420796574000000815250906110e6576040517f08c379a00000000000000000000000000000000000000000000000000000000081526004016110dd91906143ed565b60405180910390fd5b508060080160019054906101000a900473ffffffffffffffffffffffffffffffffffffffff1673ffffffffffffffffffffffffffffffffffffffff163373ffffffffffffffffffffffffffffffffffffffff1614604051806060016040528060248152602001615f556024913990611194576040517f08c379a000000000000000000000000000000000000000000000000000000000815260040161118b91906143ed565b60405180910390fd5b5060008160080160019054906101000a900473ffffffffffffffffffffffffffffffffffffffff1673ffffffffffffffffffffffffffffffffffffffff16670de0b6b3a764000083600901546111ea919061530d565b6040516111f690615380565b60006040518083038185875af1925050503d8060008114611233576040519150601f19603f3d011682016040523d82523d6000602084013e611238565b606091505b50509050806040518060400160405280601881526020017f4661696c656420746f207472616e736665722065746865720000000000000000815250906112b4576040517f08c379a00000000000000000000000000000000000000000000000000000000081526004016112ab91906143ed565b60405180910390fd5b5060008260080160006101000a81548160ff02191690831515021790555060008260080160016101000a81548173ffffffffffffffffffffffffffffffffffffffff021916908373ffffffffffffffffffffffffffffffffffffffff16021790555060008260090181905550505050565b60008061133183613395565b9050600073ffffffffffffffffffffffffffffffffffffffff168173ffffffffffffffffffffffffffffffffffffffff16036113a2576040517f08c379a0000000000000000000000000000000000000000000000000000000008152600401611399906154a2565b60405180910390fd5b80915050919050565b6113b4816132f8565b6040518060400160405280600d81526020017f436172206e6f7420666f756e64000000000000000000000000000000000000008152509061142b576040517f08c379a000000000000000000000000000000000000000000000000000000000815260040161142291906143ed565b60405180910390fd5b506000600c600083815260200190815260200160002090503373ffffffffffffffffffffffffffffffffffffffff1661146383611325565b73ffffffffffffffffffffffffffffffffffffffff1614156040518060400160405280601b81526020017f596f752063616e6e6f742062757920796f7572206f776e206361720000000000815250906114f2576040517f08c379a00000000000000000000000000000000000000000000000000000000081526004016114e991906143ed565b60405180910390fd5b508060080160009054906101000a900460ff16156040518060400160405280601d81526020017f546865206361722068617320616c7265616479206265656e20736f6c640000008152509061157d576040517f08c379a000000000000000000000000000000000000000000000000000000000815260040161157491906143ed565b60405180910390fd5b508060090154341015604051806060016040528060258152602001615f3060259139906115e0576040517f08c379a00000000000000000000000000000000000000000000000000000000081526004016115d791906143ed565b60405180910390fd5b5060018160080160006101000a81548160ff021916908315150217905550338160080160016101000a81548173ffffffffffffffffffffffffffffffffffffffff021916908373ffffffffffffffffffffffffffffffffffffffff1602179055503373ffffffffffffffffffffffffffffffffffffffff16827f9d90e6b7483b210fb2eb1814d730195955d020389f316a5127d8f07d6fe61c8b346040516116889190614589565b60405180910390a35050565b60008073ffffffffffffffffffffffffffffffffffffffff168273ffffffffffffffffffffffffffffffffffffffff1603611704576040517f08c379a00000000000000000000000000000000000000000000000000000000081526004016116fb90615534565b60405180910390fd5b600460008373ffffffffffffffffffffffffffffffffffffffff1673ffffffffffffffffffffffffffffffffffffffff168152602001908152602001600020549050919050565b6117536133d2565b61175d6000613450565b565b60008060009054906101000a900473ffffffffffffffffffffffffffffffffffffffff16905090565b6000611794600b613514565b60006117a0600b61352a565b90506117ac8b82613538565b604051806101a001604052808c73ffffffffffffffffffffffffffffffffffffffff1681526020018281526020018b81526020018a8152602001898152602001888152602001878152602001868152602001600015158152602001600073ffffffffffffffffffffffffffffffffffffffff16815260200185815260200184815260200160011515815250600c600083815260200190815260200160002060008201518160000160006101000a81548173ffffffffffffffffffffffffffffffffffffffff021916908373ffffffffffffffffffffffffffffffffffffffff1602179055506020820151816001015560408201518160020190816118b09190615700565b5060608201518160030190816118c69190615700565b5060808201518160040190816118dc9190615700565b5060a08201518160050190816118f29190615700565b5060c08201518160060190816119089190615700565b5060e082015181600701556101008201518160080160006101000a81548160ff0219169083151502179055506101208201518160080160016101000a81548173ffffffffffffffffffffffffffffffffffffffff021916908373ffffffffffffffffffffffffffffffffffffffff160217905550610140820151816009015561016082015181600a01908161199d9190615700565b5061018082015181600b0160006101000a81548160ff021916908315150217905550905050809150509998505050505050505050565b6060600280546119e290615065565b80601f0160208091040260200160405190810160405280929190818152602001828054611a0e90615065565b8015611a5b5780601f10611a3057610100808354040283529160200191611a5b565b820191906000526020600020905b815481529060010190602001808311611a3e57829003601f168201915b5050505050905090565b611a77611a70612ea9565b8383613556565b5050565b60606000611a876109fe565b905060008167ffffffffffffffff811115611aa557611aa461469a565b5b604051908082528060200260200182016040528015611ade57816020015b611acb6141f6565b815260200190600190039081611ac35790505b50905060005b82811015611fb057600c6000611af983610f54565b8152602001908152602001600020604051806101a00160405290816000820160009054906101000a900473ffffffffffffffffffffffffffffffffffffffff1673ffffffffffffffffffffffffffffffffffffffff1673ffffffffffffffffffffffffffffffffffffffff16815260200160018201548152602001600282018054611b8390615065565b80601f0160208091040260200160405190810160405280929190818152602001828054611baf90615065565b8015611bfc5780601f10611bd157610100808354040283529160200191611bfc565b820191906000526020600020905b815481529060010190602001808311611bdf57829003601f168201915b50505050508152602001600382018054611c1590615065565b80601f0160208091040260200160405190810160405280929190818152602001828054611c4190615065565b8015611c8e5780601f10611c6357610100808354040283529160200191611c8e565b820191906000526020600020905b815481529060010190602001808311611c7157829003601f168201915b50505050508152602001600482018054611ca790615065565b80601f0160208091040260200160405190810160405280929190818152602001828054611cd390615065565b8015611d205780601f10611cf557610100808354040283529160200191611d20565b820191906000526020600020905b815481529060010190602001808311611d0357829003601f168201915b50505050508152602001600582018054611d3990615065565b80601f0160208091040260200160405190810160405280929190818152602001828054611d6590615065565b8015611db25780601f10611d8757610100808354040283529160200191611db2565b820191906000526020600020905b815481529060010190602001808311611d9557829003601f168201915b50505050508152602001600682018054611dcb90615065565b80601f0160208091040260200160405190810160405280929190818152602001828054611df790615065565b8015611e445780601f10611e1957610100808354040283529160200191611e44565b820191906000526020600020905b815481529060010190602001808311611e2757829003601f168201915b50505050508152602001600782015481526020016008820160009054906101000a900460ff161515151581526020016008820160019054906101000a900473ffffffffffffffffffffffffffffffffffffffff1673ffffffffffffffffffffffffffffffffffffffff1673ffffffffffffffffffffffffffffffffffffffff16815260200160098201548152602001600a82018054611ee290615065565b80601f0160208091040260200160405190810160405280929190818152602001828054611f0e90615065565b8015611f5b5780601f10611f3057610100808354040283529160200191611f5b565b820191906000526020600020905b815481529060010190602001808311611f3e57829003601f168201915b50505050508152602001600b820160009054906101000a900460ff161515151581525050828281518110611f9257611f91615427565b5b60200260200101819052508080611fa8906157d2565b915050611ae4565b50809250505090565b611fca611fc4612ea9565b83612f6a565b612009576040517f08c379a00000000000000000000000000000000000000000000000000000000081526004016120009061522c565b60405180910390fd5b61201584848484613339565b50505050565b6060600d6000838152602001908152602001600020805480602002602001604051908101604052809291908181526020016000905b828210156120a05783829060005260206000209060030201604051806060016040529081600082015481526020016001820154815260200160028201548152505081526020019060010190612050565b505050509050919050565b6120b36141f6565b6120bc826132f8565b6040518060400160405280600d81526020017f436172206e6f7420666f756e640000000000000000000000000000000000000081525090612133576040517f08c379a000000000000000000000000000000000000000000000000000000000815260040161212a91906143ed565b60405180910390fd5b50600c6000838152602001908152602001600020604051806101a00160405290816000820160009054906101000a900473ffffffffffffffffffffffffffffffffffffffff1673ffffffffffffffffffffffffffffffffffffffff1673ffffffffffffffffffffffffffffffffffffffff168152602001600182015481526020016002820180546121c390615065565b80601f01602080910402602001604051908101604052809291908181526020018280546121ef90615065565b801561223c5780601f106122115761010080835404028352916020019161223c565b820191906000526020600020905b81548152906001019060200180831161221f57829003601f168201915b5050505050815260200160038201805461225590615065565b80601f016020809104026020016040519081016040528092919081815260200182805461228190615065565b80156122ce5780601f106122a3576101008083540402835291602001916122ce565b820191906000526020600020905b8154815290600101906020018083116122b157829003601f168201915b505050505081526020016004820180546122e790615065565b80601f016020809104026020016040519081016040528092919081815260200182805461231390615065565b80156123605780601f1061233557610100808354040283529160200191612360565b820191906000526020600020905b81548152906001019060200180831161234357829003601f168201915b5050505050815260200160058201805461237990615065565b80601f01602080910402602001604051908101604052809291908181526020018280546123a590615065565b80156123f25780601f106123c7576101008083540402835291602001916123f2565b820191906000526020600020905b8154815290600101906020018083116123d557829003601f168201915b5050505050815260200160068201805461240b90615065565b80601f016020809104026020016040519081016040528092919081815260200182805461243790615065565b80156124845780601f1061245957610100808354040283529160200191612484565b820191906000526020600020905b81548152906001019060200180831161246757829003601f168201915b50505050508152602001600782015481526020016008820160009054906101000a900460ff161515151581526020016008820160019054906101000a900473ffffffffffffffffffffffffffffffffffffffff1673ffffffffffffffffffffffffffffffffffffffff1673ffffffffffffffffffffffffffffffffffffffff16815260200160098201548152602001600a8201805461252290615065565b80601f016020809104026020016040519081016040528092919081815260200182805461254e90615065565b801561259b5780601f106125705761010080835404028352916020019161259b565b820191906000526020600020905b81548152906001019060200180831161257e57829003601f168201915b50505050508152602001600b820160009054906101000a900460ff1615151515815250509050919050565b606060006125d383611694565b905060008167ffffffffffffffff8111156125f1576125f061469a565b5b60405190808252806020026020018201604052801561262a57816020015b6126176141f6565b81526020019060019003908161260f5790505b50905060005b82811015612b035760006126448683610a6b565b9050600c6000828152602001908152602001600020604051806101a00160405290816000820160009054906101000a900473ffffffffffffffffffffffffffffffffffffffff1673ffffffffffffffffffffffffffffffffffffffff1673ffffffffffffffffffffffffffffffffffffffff168152602001600182015481526020016002820180546126d590615065565b80601f016020809104026020016040519081016040528092919081815260200182805461270190615065565b801561274e5780601f106127235761010080835404028352916020019161274e565b820191906000526020600020905b81548152906001019060200180831161273157829003601f168201915b5050505050815260200160038201805461276790615065565b80601f016020809104026020016040519081016040528092919081815260200182805461279390615065565b80156127e05780601f106127b5576101008083540402835291602001916127e0565b820191906000526020600020905b8154815290600101906020018083116127c357829003601f168201915b505050505081526020016004820180546127f990615065565b80601f016020809104026020016040519081016040528092919081815260200182805461282590615065565b80156128725780601f1061284757610100808354040283529160200191612872565b820191906000526020600020905b81548152906001019060200180831161285557829003601f168201915b5050505050815260200160058201805461288b90615065565b80601f01602080910402602001604051908101604052809291908181526020018280546128b790615065565b80156129045780601f106128d957610100808354040283529160200191612904565b820191906000526020600020905b8154815290600101906020018083116128e757829003601f168201915b5050505050815260200160068201805461291d90615065565b80601f016020809104026020016040519081016040528092919081815260200182805461294990615065565b80156129965780601f1061296b57610100808354040283529160200191612996565b820191906000526020600020905b81548152906001019060200180831161297957829003601f168201915b50505050508152602001600782015481526020016008820160009054906101000a900460ff161515151581526020016008820160019054906101000a900473ffffffffffffffffffffffffffffffffffffffff1673ffffffffffffffffffffffffffffffffffffffff1673ffffffffffffffffffffffffffffffffffffffff16815260200160098201548152602001600a82018054612a3490615065565b80601f0160208091040260200160405190810160405280929190818152602001828054612a6090615065565b8015612aad5780601f10612a8257610100808354040283529160200191612aad565b820191906000526020600020905b815481529060010190602001808311612a9057829003601f168201915b50505050508152602001600b820160009054906101000a900460ff161515151581525050838381518110612ae457612ae3615427565b5b6020026020010181905250508080612afb906157d2565b915050612630565b508092505050919050565b6060612b1982612e5e565b6000612b236136c2565b90506000815111612b435760405180602001604052806000815250612b6e565b80612b4d846136d9565b604051602001612b5e929190615856565b6040516020818303038152906040525b915050919050565b600c6000848152602001908152602001600020600701548211612bce576040517f08c379a0000000000000000000000000000000000000000000000000000000008152600401612bc5906158ec565b60405180910390fd5b600d60008481526020019081526020016000206040518060600160405280858152602001848152602001838152509080600181540180825580915050600190039060005260206000209060030201600090919091909150600082015181600001556020820151816001015560408201518160020155505081600c600085815260200190815260200160002060070181905550505050565b6000600660008473ffffffffffffffffffffffffffffffffffffffff1673ffffffffffffffffffffffffffffffffffffffff16815260200190815260200160002060008373ffffffffffffffffffffffffffffffffffffffff1673ffffffffffffffffffffffffffffffffffffffff16815260200190815260200160002060009054906101000a900460ff16905092915050565b612d016133d2565b600073ffffffffffffffffffffffffffffffffffffffff168173ffffffffffffffffffffffffffffffffffffffff1603612d70576040517f08c379a0000000000000000000000000000000000000000000000000000000008152600401612d679061597e565b60405180910390fd5b612d7981613450565b50565b60007f80ac58cd000000000000000000000000000000000000000000000000000000007bffffffffffffffffffffffffffffffffffffffffffffffffffffffff1916827bffffffffffffffffffffffffffffffffffffffffffffffffffffffff19161480612e4757507f5b5e139f000000000000000000000000000000000000000000000000000000007bffffffffffffffffffffffffffffffffffffffffffffffffffffffff1916827bffffffffffffffffffffffffffffffffffffffffffffffffffffffff1916145b80612e575750612e56826137a7565b5b9050919050565b612e67816132f8565b612ea6576040517f08c379a0000000000000000000000000000000000000000000000000000000008152600401612e9d906154a2565b60405180910390fd5b50565b600033905090565b816005600083815260200190815260200160002060006101000a81548173ffffffffffffffffffffffffffffffffffffffff021916908373ffffffffffffffffffffffffffffffffffffffff160217905550808273ffffffffffffffffffffffffffffffffffffffff16612f2483611325565b73ffffffffffffffffffffffffffffffffffffffff167f8c5be1e5ebec7d5bd14f71427d1e84f3dd0314c0f7b2291e5b200ac8c7c3b92560405160405180910390a45050565b600080612f7683611325565b90508073ffffffffffffffffffffffffffffffffffffffff168473ffffffffffffffffffffffffffffffffffffffff161480612fb85750612fb78185612c65565b5b80612ff657508373ffffffffffffffffffffffffffffffffffffffff16612fde84610882565b73ffffffffffffffffffffffffffffffffffffffff16145b91505092915050565b8273ffffffffffffffffffffffffffffffffffffffff1661301f82611325565b73ffffffffffffffffffffffffffffffffffffffff1614613075576040517f08c379a000000000000000000000000000000000000000000000000000000000815260040161306c90615a10565b60405180910390fd5b600073ffffffffffffffffffffffffffffffffffffffff168273ffffffffffffffffffffffffffffffffffffffff16036130e4576040517f08c379a00000000000000000000000000000000000000000000000000000000081526004016130db90615aa2565b60405180910390fd5b6130f18383836001613811565b8273ffffffffffffffffffffffffffffffffffffffff1661311182611325565b73ffffffffffffffffffffffffffffffffffffffff1614613167576040517f08c379a000000000000000000000000000000000000000000000000000000000815260040161315e90615a10565b60405180910390fd5b6005600082815260200190815260200160002060006101000a81549073ffffffffffffffffffffffffffffffffffffffff02191690556001600460008573ffffffffffffffffffffffffffffffffffffffff1673ffffffffffffffffffffffffffffffffffffffff168152602001908152602001600020600082825403925050819055506001600460008473ffffffffffffffffffffffffffffffffffffffff1673ffffffffffffffffffffffffffffffffffffffff16815260200190815260200160002060008282540192505081905550816003600083815260200190815260200160002060006101000a81548173ffffffffffffffffffffffffffffffffffffffff021916908373ffffffffffffffffffffffffffffffffffffffff160217905550808273ffffffffffffffffffffffffffffffffffffffff168473ffffffffffffffffffffffffffffffffffffffff167fddf252ad1be2c89b69c2b068fc378daa952ba7f163c4a11628f55a4df523b3ef60405160405180910390a46132f3838383600161396f565b505050565b60008073ffffffffffffffffffffffffffffffffffffffff1661331a83613395565b73ffffffffffffffffffffffffffffffffffffffff1614159050919050565b613344848484612fff565b61335084848484613975565b61338f576040517f08c379a000000000000000000000000000000000000000000000000000000000815260040161338690615b34565b60405180910390fd5b50505050565b60006003600083815260200190815260200160002060009054906101000a900473ffffffffffffffffffffffffffffffffffffffff169050919050565b6133da612ea9565b73ffffffffffffffffffffffffffffffffffffffff166133f861175f565b73ffffffffffffffffffffffffffffffffffffffff161461344e576040517f08c379a000000000000000000000000000000000000000000000000000000000815260040161344590615ba0565b60405180910390fd5b565b60008060009054906101000a900473ffffffffffffffffffffffffffffffffffffffff169050816000806101000a81548173ffffffffffffffffffffffffffffffffffffffff021916908373ffffffffffffffffffffffffffffffffffffffff1602179055508173ffffffffffffffffffffffffffffffffffffffff168173ffffffffffffffffffffffffffffffffffffffff167f8be0079c531659141344cd1fd0a4f28419497f9722a3daafe3b4186f6b6457e060405160405180910390a35050565b6001816000016000828254019250508190555050565b600081600001549050919050565b613552828260405180602001604052806000815250613afc565b5050565b8173ffffffffffffffffffffffffffffffffffffffff168373ffffffffffffffffffffffffffffffffffffffff16036135c4576040517f08c379a00000000000000000000000000000000000000000000000000000000081526004016135bb90615c0c565b60405180910390fd5b80600660008573ffffffffffffffffffffffffffffffffffffffff1673ffffffffffffffffffffffffffffffffffffffff16815260200190815260200160002060008473ffffffffffffffffffffffffffffffffffffffff1673ffffffffffffffffffffffffffffffffffffffff16815260200190815260200160002060006101000a81548160ff0219169083151502179055508173ffffffffffffffffffffffffffffffffffffffff168373ffffffffffffffffffffffffffffffffffffffff167f17307eab39ab6107e8899845ad3d59bd9653f200f220920489ca2b5937696c31836040516136b59190614342565b60405180910390a3505050565b606060405180602001604052806000815250905090565b6060600060016136e884613b57565b01905060008167ffffffffffffffff8111156137075761370661469a565b5b6040519080825280601f01601f1916602001820160405280156137395781602001600182028036833780820191505090505b509050600082602001820190505b60011561379c578080600190039150507f3031323334353637383961626364656600000000000000000000000000000000600a86061a8153600a85816137905761378f615c2c565b5b04945060008503613747575b819350505050919050565b60007f01ffc9a7000000000000000000000000000000000000000000000000000000007bffffffffffffffffffffffffffffffffffffffffffffffffffffffff1916827bffffffffffffffffffffffffffffffffffffffffffffffffffffffff1916149050919050565b61381d84848484613caa565b6001811115613861576040517f08c379a000000000000000000000000000000000000000000000000000000000815260040161385890615ccd565b60405180910390fd5b6000829050600073ffffffffffffffffffffffffffffffffffffffff168573ffffffffffffffffffffffffffffffffffffffff16036138a8576138a381613cb0565b6138e7565b8373ffffffffffffffffffffffffffffffffffffffff168573ffffffffffffffffffffffffffffffffffffffff16146138e6576138e58582613cf9565b5b5b600073ffffffffffffffffffffffffffffffffffffffff168473ffffffffffffffffffffffffffffffffffffffff16036139295761392481613e66565b613968565b8473ffffffffffffffffffffffffffffffffffffffff168473ffffffffffffffffffffffffffffffffffffffff1614613967576139668482613f37565b5b5b5050505050565b50505050565b60006139968473ffffffffffffffffffffffffffffffffffffffff16613fb6565b15613aef578373ffffffffffffffffffffffffffffffffffffffff1663150b7a026139bf612ea9565b8786866040518563ffffffff1660e01b81526004016139e19493929190615d42565b6020604051808303816000875af1925050508015613a1d57506040513d601f19601f82011682018060405250810190613a1a9190615da3565b60015b613a9f573d8060008114613a4d576040519150601f19603f3d011682016040523d82523d6000602084013e613a52565b606091505b506000815103613a97576040517f08c379a0000000000000000000000000000000000000000000000000000000008152600401613a8e90615b34565b60405180910390fd5b805181602001fd5b63150b7a0260e01b7bffffffffffffffffffffffffffffffffffffffffffffffffffffffff1916817bffffffffffffffffffffffffffffffffffffffffffffffffffffffff191614915050613af4565b600190505b949350505050565b613b068383613fd9565b613b136000848484613975565b613b52576040517f08c379a0000000000000000000000000000000000000000000000000000000008152600401613b4990615b34565b60405180910390fd5b505050565b600080600090507a184f03e93ff9f4daa797ed6e38ed64bf6a1f0100000000000000008310613bb5577a184f03e93ff9f4daa797ed6e38ed64bf6a1f0100000000000000008381613bab57613baa615c2c565b5b0492506040810190505b6d04ee2d6d415b85acef81000000008310613bf2576d04ee2d6d415b85acef81000000008381613be857613be7615c2c565b5b0492506020810190505b662386f26fc100008310613c2157662386f26fc100008381613c1757613c16615c2c565b5b0492506010810190505b6305f5e1008310613c4a576305f5e1008381613c4057613c3f615c2c565b5b0492506008810190505b6127108310613c6f576127108381613c6557613c64615c2c565b5b0492506004810190505b60648310613c925760648381613c8857613c87615c2c565b5b0492506002810190505b600a8310613ca1576001810190505b80915050919050565b50505050565b600980549050600a600083815260200190815260200160002081905550600981908060018154018082558091505060019003906000526020600020016000909190919091505550565b60006001613d0684611694565b613d109190615dd0565b9050600060086000848152602001908152602001600020549050818114613df5576000600760008673ffffffffffffffffffffffffffffffffffffffff1673ffffffffffffffffffffffffffffffffffffffff168152602001908152602001600020600084815260200190815260200160002054905080600760008773ffffffffffffffffffffffffffffffffffffffff1673ffffffffffffffffffffffffffffffffffffffff168152602001908152602001600020600084815260200190815260200160002081905550816008600083815260200190815260200160002081905550505b6008600084815260200190815260200160002060009055600760008573ffffffffffffffffffffffffffffffffffffffff1673ffffffffffffffffffffffffffffffffffffffff16815260200190815260200160002060008381526020019081526020016000206000905550505050565b60006001600980549050613e7a9190615dd0565b90506000600a6000848152602001908152602001600020549050600060098381548110613eaa57613ea9615427565b5b906000526020600020015490508060098381548110613ecc57613ecb615427565b5b906000526020600020018190555081600a600083815260200190815260200160002081905550600a6000858152602001908152602001600020600090556009805480613f1b57613f1a615e04565b5b6001900381819060005260206000200160009055905550505050565b6000613f4283611694565b905081600760008573ffffffffffffffffffffffffffffffffffffffff1673ffffffffffffffffffffffffffffffffffffffff168152602001908152602001600020600083815260200190815260200160002081905550806008600084815260200190815260200160002081905550505050565b6000808273ffffffffffffffffffffffffffffffffffffffff163b119050919050565b600073ffffffffffffffffffffffffffffffffffffffff168273ffffffffffffffffffffffffffffffffffffffff1603614048576040517f08c379a000000000000000000000000000000000000000000000000000000000815260040161403f90615e7f565b60405180910390fd5b614051816132f8565b15614091576040517f08c379a000000000000000000000000000000000000000000000000000000000815260040161408890615eeb565b60405180910390fd5b61409f600083836001613811565b6140a8816132f8565b156140e8576040517f08c379a00000000000000000000000000000000000000000000000000000000081526004016140df90615eeb565b60405180910390fd5b6001600460008473ffffffffffffffffffffffffffffffffffffffff1673ffffffffffffffffffffffffffffffffffffffff16815260200190815260200160002060008282540192505081905550816003600083815260200190815260200160002060006101000a81548173ffffffffffffffffffffffffffffffffffffffff021916908373ffffffffffffffffffffffffffffffffffffffff160217905550808273ffffffffffffffffffffffffffffffffffffffff16600073ffffffffffffffffffffffffffffffffffffffff167fddf252ad1be2c89b69c2b068fc378daa952ba7f163c4a11628f55a4df523b3ef60405160405180910390a46141f260008383600161396f565b5050565b604051806101a00160405280600073ffffffffffffffffffffffffffffffffffffffff16815260200160008152602001606081526020016060815260200160608152602001606081526020016060815260200160008152602001600015158152602001600073ffffffffffffffffffffffffffffffffffffffff16815260200160008152602001606081526020016000151581525090565b6000604051905090565b600080fd5b600080fd5b60007fffffffff0000000000000000000000000000000000000000000000000000000082169050919050565b6142d7816142a2565b81146142e257600080fd5b50565b6000813590506142f4816142ce565b92915050565b6000602082840312156143105761430f614298565b5b600061431e848285016142e5565b91505092915050565b60008115159050919050565b61433c81614327565b82525050565b60006020820190506143576000830184614333565b92915050565b600081519050919050565b600082825260208201905092915050565b60005b8381101561439757808201518184015260208101905061437c565b60008484015250505050565b6000601f19601f8301169050919050565b60006143bf8261435d565b6143c98185614368565b93506143d9818560208601614379565b6143e2816143a3565b840191505092915050565b6000602082019050818103600083015261440781846143b4565b905092915050565b6000819050919050565b6144228161440f565b811461442d57600080fd5b50565b60008135905061443f81614419565b92915050565b60006020828403121561445b5761445a614298565b5b600061446984828501614430565b91505092915050565b600073ffffffffffffffffffffffffffffffffffffffff82169050919050565b600061449d82614472565b9050919050565b6144ad81614492565b82525050565b60006020820190506144c860008301846144a4565b92915050565b6144d781614492565b81146144e257600080fd5b50565b6000813590506144f4816144ce565b92915050565b6000806040838503121561451157614510614298565b5b600061451f858286016144e5565b925050602061453085828601614430565b9150509250929050565b6000806040838503121561455157614550614298565b5b600061455f85828601614430565b925050602061457085828601614430565b9150509250929050565b6145838161440f565b82525050565b600060208201905061459e600083018461457a565b92915050565b6000806000606084860312156145bd576145bc614298565b5b60006145cb868287016144e5565b93505060206145dc868287016144e5565b92505060406145ed86828701614430565b9150509250925092565b61460081614327565b811461460b57600080fd5b50565b60008135905061461d816145f7565b92915050565b6000806040838503121561463a57614639614298565b5b600061464885828601614430565b92505060206146598582860161460e565b9150509250929050565b60006020828403121561467957614678614298565b5b6000614687848285016144e5565b91505092915050565b600080fd5b600080fd5b7f4e487b7100000000000000000000000000000000000000000000000000000000600052604160045260246000fd5b6146d2826143a3565b810181811067ffffffffffffffff821117156146f1576146f061469a565b5b80604052505050565b600061470461428e565b905061471082826146c9565b919050565b600067ffffffffffffffff8211156147305761472f61469a565b5b614739826143a3565b9050602081019050919050565b82818337600083830152505050565b600061476861476384614715565b6146fa565b90508281526020810184848401111561478457614783614695565b5b61478f848285614746565b509392505050565b600082601f8301126147ac576147ab614690565b5b81356147bc848260208601614755565b91505092915050565b60008060008060008060008060006101208a8c0312156147e8576147e7614298565b5b60006147f68c828d016144e5565b99505060208a013567ffffffffffffffff8111156148175761481661429d565b5b6148238c828d01614797565b98505060408a013567ffffffffffffffff8111156148445761484361429d565b5b6148508c828d01614797565b97505060608a013567ffffffffffffffff8111156148715761487061429d565b5b61487d8c828d01614797565b96505060808a013567ffffffffffffffff81111561489e5761489d61429d565b5b6148aa8c828d01614797565b95505060a08a013567ffffffffffffffff8111156148cb576148ca61429d565b5b6148d78c828d01614797565b94505060c06148e88c828d01614430565b93505060e06148f98c828d01614430565b9250506101008a013567ffffffffffffffff81111561491b5761491a61429d565b5b6149278c828d01614797565b9150509295985092959850929598565b6000806040838503121561494e5761494d614298565b5b600061495c858286016144e5565b925050602061496d8582860161460e565b9150509250929050565b600081519050919050565b600082825260208201905092915050565b6000819050602082019050919050565b6149ac81614492565b82525050565b6149bb8161440f565b82525050565b600082825260208201905092915050565b60006149dd8261435d565b6149e781856149c1565b93506149f7818560208601614379565b614a00816143a3565b840191505092915050565b614a1481614327565b82525050565b60006101a083016000830151614a3360008601826149a3565b506020830151614a4660208601826149b2565b5060408301518482036040860152614a5e82826149d2565b91505060608301518482036060860152614a7882826149d2565b91505060808301518482036080860152614a9282826149d2565b91505060a083015184820360a0860152614aac82826149d2565b91505060c083015184820360c0860152614ac682826149d2565b91505060e0830151614adb60e08601826149b2565b50610100830151614af0610100860182614a0b565b50610120830151614b056101208601826149a3565b50610140830151614b1a6101408601826149b2565b50610160830151848203610160860152614b3482826149d2565b915050610180830151614b4b610180860182614a0b565b508091505092915050565b6000614b628383614a1a565b905092915050565b6000602082019050919050565b6000614b8282614977565b614b8c8185614982565b935083602082028501614b9e85614993565b8060005b85811015614bda5784840389528151614bbb8582614b56565b9450614bc683614b6a565b925060208a01995050600181019050614ba2565b50829750879550505050505092915050565b60006020820190508181036000830152614c068184614b77565b905092915050565b600067ffffffffffffffff821115614c2957614c2861469a565b5b614c32826143a3565b9050602081019050919050565b6000614c52614c4d84614c0e565b6146fa565b905082815260208101848484011115614c6e57614c6d614695565b5b614c79848285614746565b509392505050565b600082601f830112614c9657614c95614690565b5b8135614ca6848260208601614c3f565b91505092915050565b60008060008060808587031215614cc957614cc8614298565b5b6000614cd7878288016144e5565b9450506020614ce8878288016144e5565b9350506040614cf987828801614430565b925050606085013567ffffffffffffffff811115614d1a57614d1961429d565b5b614d2687828801614c81565b91505092959194509250565b600081519050919050565b600082825260208201905092915050565b6000819050602082019050919050565b606082016000820151614d7460008501826149b2565b506020820151614d8760208501826149b2565b506040820151614d9a60408501826149b2565b50505050565b6000614dac8383614d5e565b60608301905092915050565b6000602082019050919050565b6000614dd082614d32565b614dda8185614d3d565b9350614de583614d4e565b8060005b83811015614e16578151614dfd8882614da0565b9750614e0883614db8565b925050600181019050614de9565b5085935050505092915050565b60006020820190508181036000830152614e3d8184614dc5565b905092915050565b60006101a083016000830151614e5e60008601826149a3565b506020830151614e7160208601826149b2565b5060408301518482036040860152614e8982826149d2565b91505060608301518482036060860152614ea382826149d2565b91505060808301518482036080860152614ebd82826149d2565b91505060a083015184820360a0860152614ed782826149d2565b91505060c083015184820360c0860152614ef182826149d2565b91505060e0830151614f0660e08601826149b2565b50610100830151614f1b610100860182614a0b565b50610120830151614f306101208601826149a3565b50610140830151614f456101408601826149b2565b50610160830151848203610160860152614f5f82826149d2565b915050610180830151614f76610180860182614a0b565b508091505092915050565b60006020820190508181036000830152614f9b8184614e45565b905092915050565b600080600060608486031215614fbc57614fbb614298565b5b6000614fca86828701614430565b9350506020614fdb86828701614430565b9250506040614fec86828701614430565b9150509250925092565b6000806040838503121561500d5761500c614298565b5b600061501b858286016144e5565b925050602061502c858286016144e5565b9150509250929050565b7f4e487b7100000000000000000000000000000000000000000000000000000000600052602260045260246000fd5b6000600282049050600182168061507d57607f821691505b6020821081036150905761508f615036565b5b50919050565b7f4552433732313a20617070726f76616c20746f2063757272656e74206f776e6560008201527f7200000000000000000000000000000000000000000000000000000000000000602082015250565b60006150f2602183614368565b91506150fd82615096565b604082019050919050565b60006020820190508181036000830152615121816150e5565b9050919050565b7f4552433732313a20617070726f76652063616c6c6572206973206e6f7420746f60008201527f6b656e206f776e6572206f7220617070726f76656420666f7220616c6c000000602082015250565b6000615184603d83614368565b915061518f82615128565b604082019050919050565b600060208201905081810360008301526151b381615177565b9050919050565b7f4552433732313a2063616c6c6572206973206e6f7420746f6b656e206f776e6560008201527f72206f7220617070726f76656400000000000000000000000000000000000000602082015250565b6000615216602d83614368565b9150615221826151ba565b604082019050919050565b6000602082019050818103600083015261524581615209565b9050919050565b7f455243373231456e756d657261626c653a206f776e657220696e646578206f7560008201527f74206f6620626f756e6473000000000000000000000000000000000000000000602082015250565b60006152a8602b83614368565b91506152b38261524c565b604082019050919050565b600060208201905081810360008301526152d78161529b565b9050919050565b7f4e487b7100000000000000000000000000000000000000000000000000000000600052601160045260246000fd5b60006153188261440f565b91506153238361440f565b92508282026153318161440f565b91508282048414831517615348576153476152de565b5b5092915050565b600081905092915050565b50565b600061536a60008361534f565b91506153758261535a565b600082019050919050565b600061538b8261535d565b9150819050919050565b7f455243373231456e756d657261626c653a20676c6f62616c20696e646578206f60008201527f7574206f6620626f756e64730000000000000000000000000000000000000000602082015250565b60006153f1602c83614368565b91506153fc82615395565b604082019050919050565b60006020820190508181036000830152615420816153e4565b9050919050565b7f4e487b7100000000000000000000000000000000000000000000000000000000600052603260045260246000fd5b7f4552433732313a20696e76616c696420746f6b656e2049440000000000000000600082015250565b600061548c601883614368565b915061549782615456565b602082019050919050565b600060208201905081810360008301526154bb8161547f565b9050919050565b7f4552433732313a2061646472657373207a65726f206973206e6f74206120766160008201527f6c6964206f776e65720000000000000000000000000000000000000000000000602082015250565b600061551e602983614368565b9150615529826154c2565b604082019050919050565b6000602082019050818103600083015261554d81615511565b9050919050565b60008190508160005260206000209050919050565b60006020601f8301049050919050565b600082821b905092915050565b6000600883026155b67fffffffffffffffffffffffffffffffffffffffffffffffffffffffffffffffff82615579565b6155c08683615579565b95508019841693508086168417925050509392505050565b6000819050919050565b60006155fd6155f86155f38461440f565b6155d8565b61440f565b9050919050565b6000819050919050565b615617836155e2565b61562b61562382615604565b848454615586565b825550505050565b600090565b615640615633565b61564b81848461560e565b505050565b5b8181101561566f57615664600082615638565b600181019050615651565b5050565b601f8211156156b45761568581615554565b61568e84615569565b8101602085101561569d578190505b6156b16156a985615569565b830182615650565b50505b505050565b600082821c905092915050565b60006156d7600019846008026156b9565b1980831691505092915050565b60006156f083836156c6565b9150826002028217905092915050565b6157098261435d565b67ffffffffffffffff8111156157225761572161469a565b5b61572c8254615065565b615737828285615673565b600060209050601f83116001811461576a5760008415615758578287015190505b61576285826156e4565b8655506157ca565b601f19841661577886615554565b60005b828110156157a05784890151825560018201915060208501945060208101905061577b565b868310156157bd57848901516157b9601f8916826156c6565b8355505b6001600288020188555050505b505050505050565b60006157dd8261440f565b91507fffffffffffffffffffffffffffffffffffffffffffffffffffffffffffffffff820361580f5761580e6152de565b5b600182019050919050565b600081905092915050565b60006158308261435d565b61583a818561581a565b935061584a818560208601614379565b80840191505092915050565b60006158628285615825565b915061586e8284615825565b91508190509392505050565b7f596f75206e656564206120686967686572206d696c65616765206e756d62657260008201527f2100000000000000000000000000000000000000000000000000000000000000602082015250565b60006158d6602183614368565b91506158e18261587a565b604082019050919050565b60006020820190508181036000830152615905816158c9565b9050919050565b7f4f776e61626c653a206e6577206f776e657220697320746865207a65726f206160008201527f6464726573730000000000000000000000000000000000000000000000000000602082015250565b6000615968602683614368565b91506159738261590c565b604082019050919050565b600060208201905081810360008301526159978161595b565b9050919050565b7f4552433732313a207472616e736665722066726f6d20696e636f72726563742060008201527f6f776e6572000000000000000000000000000000000000000000000000000000602082015250565b60006159fa602583614368565b9150615a058261599e565b604082019050919050565b60006020820190508181036000830152615a29816159ed565b9050919050565b7f4552433732313a207472616e7366657220746f20746865207a65726f2061646460008201527f7265737300000000000000000000000000000000000000000000000000000000602082015250565b6000615a8c602483614368565b9150615a9782615a30565b604082019050919050565b60006020820190508181036000830152615abb81615a7f565b9050919050565b7f4552433732313a207472616e7366657220746f206e6f6e20455243373231526560008201527f63656976657220696d706c656d656e7465720000000000000000000000000000602082015250565b6000615b1e603283614368565b9150615b2982615ac2565b604082019050919050565b60006020820190508181036000830152615b4d81615b11565b9050919050565b7f4f776e61626c653a2063616c6c6572206973206e6f7420746865206f776e6572600082015250565b6000615b8a602083614368565b9150615b9582615b54565b602082019050919050565b60006020820190508181036000830152615bb981615b7d565b9050919050565b7f4552433732313a20617070726f766520746f2063616c6c657200000000000000600082015250565b6000615bf6601983614368565b9150615c0182615bc0565b602082019050919050565b60006020820190508181036000830152615c2581615be9565b9050919050565b7f4e487b7100000000000000000000000000000000000000000000000000000000600052601260045260246000fd5b7f455243373231456e756d657261626c653a20636f6e736563757469766520747260008201527f616e7366657273206e6f7420737570706f727465640000000000000000000000602082015250565b6000615cb7603583614368565b9150615cc282615c5b565b604082019050919050565b60006020820190508181036000830152615ce681615caa565b9050919050565b600081519050919050565b600082825260208201905092915050565b6000615d1482615ced565b615d1e8185615cf8565b9350615d2e818560208601614379565b615d37816143a3565b840191505092915050565b6000608082019050615d5760008301876144a4565b615d6460208301866144a4565b615d71604083018561457a565b8181036060830152615d838184615d09565b905095945050505050565b600081519050615d9d816142ce565b92915050565b600060208284031215615db957615db8614298565b5b6000615dc784828501615d8e565b91505092915050565b6000615ddb8261440f565b9150615de68361440f565b9250828203905081811115615dfe57615dfd6152de565b5b92915050565b7f4e487b7100000000000000000000000000000000000000000000000000000000600052603160045260246000fd5b7f4552433732313a206d696e7420746f20746865207a65726f2061646472657373600082015250565b6000615e69602083614368565b9150615e7482615e33565b602082019050919050565b60006020820190508181036000830152615e9881615e5c565b9050919050565b7f4552433732313a20746f6b656e20616c7265616479206d696e74656400000000600082015250565b6000615ed5601c83614368565b9150615ee082615e9f565b602082019050919050565b60006020820190508181036000830152615f0481615ec8565b905091905056fe4f6e6c79207468652062757965722063616e207265747269657665207468697320636172496e73756666696369656e742066756e647320666f7220627579696e6720746865206361724f6e6c79207468652062757965722063616e2063616e63656c2074686973206f72646572a2646970667358221220f50635c39a86d3774c23bd97981943e8d510d1296e57766b061b3a0b658a724564736f6c63430008110033",
  "immutableReferences": {},
  "source": "// SPDX-License-Identifier: MIT\npragma solidity >=0.8.0 <0.9.0;\n\nimport \"@openzeppelin/contracts/token/ERC721/ERC721.sol\";\nimport \"@openzeppelin/contracts/access/Ownable.sol\";\nimport \"@openzeppelin/contracts/utils/Counters.sol\";\nimport \"@openzeppelin/contracts/token/ERC721/extensions/ERC721Enumerable.sol\";\n\nimport \"./CarDealershipStrings.sol\";\n\ncontract CarDealership is Ownable, ERC721Enumerable {\n  using Counters for Counters.Counter;\n  Counters.Counter private _tokenIdCounter;\n\n  constructor() ERC721(\"carTokens\", \"CAR\") {}\n\n  receive() external payable {}\n\n  fallback() external payable {}\n\n  enum Transmission{ AUTOMATIC, HAND_SHIFTED } // Maybe IPFS\n  enum GasType{ PETROL, OIL } // Maybe IPFS\n\n  struct Car {\n    // The license plate, chassis number, brand, type, and colour of the car\n    address owner;\n    uint256 tokenId;\n    string licensePlate; // Maybe IPFS\n    string chassisNumber; // Maybe IPFS\n    string brand; // Maybe IPFS\n    string carType; // Maybe IPFS\n    string colour;\n    uint256 mileage;\n    bool sold;\n    address buyer;\n    uint256 price;\n    string metadataUri;\n    bool forSale;\n  }\n\n  struct Mileage {\n    uint256 token;\n    uint256 mileage;\n    uint256 date;\n  }\n\n  mapping(uint256 => Car) private cars;\n  mapping(uint256 => Mileage[]) private mileageHistory;\n\n  event CarSold(uint256 indexed tokenId, address indexed buyer, uint256 price);\n\n  function mintCar(\n    address _owner,\n    string memory _licensePlate,\n    string memory _chassisNumber,\n    string memory _brand,\n    string memory _carType,\n    string memory _colour,\n    uint256 _mileage,\n    uint256 _price,\n    string memory _metadataUri\n  ) public returns (uint256) {\n    _tokenIdCounter.increment();\n\n    uint256 newCarId = _tokenIdCounter.current();\n    _safeMint(_owner, newCarId);\n\n    cars[newCarId] = Car(_owner, newCarId, _licensePlate, _chassisNumber, _brand, _carType, _colour, _mileage, false, address(0), _price, _metadataUri, true);\n\n    return newCarId;\n  }\n\n  /// @notice Allows a user to buy a car with a given token ID.\n  /// @param _tokenId the ID of the car being purchased\n  /// @dev Requires that the car with the given token exists, is not already sold, and that the buyer is not the owner of the car\n  function buyCar(uint256 _tokenId) public payable {\n    require(_exists(_tokenId), CarDealershipStrings.CAR_DOES_NOT_EXIST);\n    Car storage _car = cars[_tokenId];\n\n    require(ownerOf(_tokenId) != msg.sender, CarDealershipStrings.CANT_BUY_OWN_CAR);\n    require(!_car.sold, CarDealershipStrings.CAR_ALREADY_SOLD);\n    require(msg.value >= _car.price, CarDealershipStrings.INSUFFICIENT_FUNDS);\n\n    _car.sold = true;\n    _car.buyer = msg.sender;\n    // TODO: Change so that the money will be set on the contract as a broker\n\n    emit CarSold(_tokenId, msg.sender, msg.value);\n  }\n\n  /// @notice Allows the buyer to cancel an order and get the money back\n  /// @param _tokenId the ID of the car being purchased\n  function cancelCarOrder(uint256 _tokenId) public {\n  // TODO: After cancelation check what happens with the money\n    require(_exists(_tokenId), CarDealershipStrings.CAR_DOES_NOT_EXIST);\n    Car storage _car = cars[_tokenId];\n    require(_car.sold, CarDealershipStrings.CAR_NOT_SOLD);\n    require(msg.sender == _car.buyer, CarDealershipStrings.ONLY_BUYER_CANCEL);\n\n    // Transfer the money back to the buyer\n    (bool _sent, ) = payable(_car.buyer).call{value: _car.price * 1 ether}(\"\");\n    require(_sent, CarDealershipStrings.FAILED_TO_SENT_ETHER);\n\n    // Reset the car's sold status, buyer, price, and owner\n    _car.sold = false;\n    _car.buyer = address(0);\n    _car.price = 0;\n  }\n\n  /// @notice Allows the buyer to retrieve the purchased car.\n  /// @param _tokenId The ID of the car to retrieve\n  function retrieveCar(uint256 _tokenId) public payable {\n    // Check if the car exists\n    require(_exists(_tokenId), CarDealershipStrings.CAR_DOES_NOT_EXIST);\n    // Retrieve the car and check the sold status and the buyer\n    Car storage _car = cars[_tokenId];\n    require(_car.sold, CarDealershipStrings.CAR_NOT_SOLD);\n    require(msg.sender == _car.buyer, CarDealershipStrings.ONLY_BUYER);\n\n    // Get the price of the car in WEI\n    // Transfer the price of the car to the original owner\n    (bool sent, ) = payable(ownerOf(_tokenId)).call{value: _car.price * 1 ether}(\"\");\n    require(sent, CarDealershipStrings.FAILED_TO_SENT_ETHER);\n\n    // Transfer the ownership of the car to the buyer\n    _safeTransfer(ownerOf(_tokenId), _car.buyer, _tokenId, \"\");\n\n    // Reset the car's sold status, buyer, price, and owner\n    _car.sold = false;\n    _car.buyer = address(0);\n    _car.price = 0;\n    _car.owner = _car.buyer;\n  }\n\n  /// @notice Get the car data associated with the given token ID\n  /// @dev This function is view-only and does not modify the blockchain state\n  /// @param _tokenId The ID of the car to retrieve\n  /// @return Car The Car associated with the token\n  function getCarByToken(uint256 _tokenId) public view returns (Car memory) {\n    require(_exists(_tokenId), CarDealershipStrings.CAR_DOES_NOT_EXIST);\n\n    return cars[_tokenId];\n  }\n\n  /// @notice Return an array of all the cars owned by a given address\n  /// @param _owner The address of the owner\n  /// @return Car[] A array containing all the cars owned by the given address\n  function getCarsByOwner(address _owner) public view returns (Car[] memory) {\n    // Get the number of tokens owned by the address\n    uint256 tokenCount = balanceOf(_owner);\n\n    // Create a new array to hold the cars with the amount of token\n    Car[] memory _cars = new Car[](tokenCount);\n\n    for (uint256 i = 0; i < tokenCount; i++) {\n      // Get the tokenID by the owner and index\n      uint256 _tokenId = tokenOfOwnerByIndex(_owner, i);\n      _cars[i] = cars[_tokenId];\n    }\n\n    return _cars;\n  }\n\n  /// @notice Returns an array of all the cars in the contract\n  /// @return Car[] An array of all the cars in the contract\n  function getAllCars() public view returns (Car[] memory) {\n    uint256 _tokenCount = totalSupply();\n    Car[] memory _cars = new Car[](_tokenCount);\n\n    for (uint256 i = 0; i < _tokenCount; i++) {\n      // Get the car at the current index and add it to the array\n      _cars[i] = cars[tokenByIndex(i)];\n    }\n\n    return _cars;\n  }\n\n  function addMileageReport(uint256 _token, uint256 _mileageNumber, uint256 _time) external {\n    require(_mileageNumber > cars[_token].mileage, \"You need a higher mileage number!\");\n    mileageHistory[_token].push(Mileage(_token, _mileageNumber, _time));\n    cars[_token].mileage = _mileageNumber;\n  }\n\n  function getCarMileageHistory(uint256 _token) external view returns (Mileage[] memory) {\n    return mileageHistory[_token];\n  }\n\n  function changeCarPrice(uint256 _token, uint256 _price) public {\n    cars[_token].price = _price;\n  }\n\n  function changeCarAvailability(uint256 _token, bool _availability) external {\n    cars[_token].forSale = _availability;\n  }\n}\n",
  "sourcePath": "/Users/dennismoes/car-dealership/contract/contracts/CarDealership.sol",
  "compiler": {
    "name": "solc",
    "version": "0.8.17+commit.8df45f5f.Emscripten.clang"
  },
  "schemaVersion": "3.4.11",
  "updatedAt": "2023-03-16T07:34:16.526Z",
  "networkType": "ethereum",
  "devdoc": {
    "kind": "dev",
    "methods": {
      "approve(address,uint256)": {
        "details": "See {IERC721-approve}."
      },
      "balanceOf(address)": {
        "details": "See {IERC721-balanceOf}."
      },
      "buyCar(uint256)": {
        "details": "Requires that the car with the given token exists, is not already sold, and that the buyer is not the owner of the car",
        "params": {
          "_tokenId": "the ID of the car being purchased"
        }
      },
      "cancelCarOrder(uint256)": {
        "params": {
          "_tokenId": "the ID of the car being purchased"
        }
      },
      "getAllCars()": {
        "returns": {
          "_0": "Car[] An array of all the cars in the contract"
        }
      },
      "getApproved(uint256)": {
        "details": "See {IERC721-getApproved}."
      },
      "getCarByToken(uint256)": {
        "details": "This function is view-only and does not modify the blockchain state",
        "params": {
          "_tokenId": "The ID of the car to retrieve"
        },
        "returns": {
          "_0": "Car The Car associated with the token"
        }
      },
      "getCarsByOwner(address)": {
        "params": {
          "_owner": "The address of the owner"
        },
        "returns": {
          "_0": "Car[] A array containing all the cars owned by the given address"
        }
      },
      "isApprovedForAll(address,address)": {
        "details": "See {IERC721-isApprovedForAll}."
      },
      "name()": {
        "details": "See {IERC721Metadata-name}."
      },
      "owner()": {
        "details": "Returns the address of the current owner."
      },
      "ownerOf(uint256)": {
        "details": "See {IERC721-ownerOf}."
      },
      "renounceOwnership()": {
        "details": "Leaves the contract without owner. It will not be possible to call `onlyOwner` functions anymore. Can only be called by the current owner. NOTE: Renouncing ownership will leave the contract without an owner, thereby removing any functionality that is only available to the owner."
      },
      "retrieveCar(uint256)": {
        "params": {
          "_tokenId": "The ID of the car to retrieve"
        }
      },
      "safeTransferFrom(address,address,uint256)": {
        "details": "See {IERC721-safeTransferFrom}."
      },
      "safeTransferFrom(address,address,uint256,bytes)": {
        "details": "See {IERC721-safeTransferFrom}."
      },
      "setApprovalForAll(address,bool)": {
        "details": "See {IERC721-setApprovalForAll}."
      },
      "supportsInterface(bytes4)": {
        "details": "See {IERC165-supportsInterface}."
      },
      "symbol()": {
        "details": "See {IERC721Metadata-symbol}."
      },
      "tokenByIndex(uint256)": {
        "details": "See {IERC721Enumerable-tokenByIndex}."
      },
      "tokenOfOwnerByIndex(address,uint256)": {
        "details": "See {IERC721Enumerable-tokenOfOwnerByIndex}."
      },
      "tokenURI(uint256)": {
        "details": "See {IERC721Metadata-tokenURI}."
      },
      "totalSupply()": {
        "details": "See {IERC721Enumerable-totalSupply}."
      },
      "transferFrom(address,address,uint256)": {
        "details": "See {IERC721-transferFrom}."
      },
      "transferOwnership(address)": {
        "details": "Transfers ownership of the contract to a new account (`newOwner`). Can only be called by the current owner."
      }
    },
    "version": 1
  },
  "userdoc": {
    "kind": "user",
    "methods": {
      "buyCar(uint256)": {
        "notice": "Allows a user to buy a car with a given token ID."
      },
      "cancelCarOrder(uint256)": {
        "notice": "Allows the buyer to cancel an order and get the money back"
      },
      "getAllCars()": {
        "notice": "Returns an array of all the cars in the contract"
      },
      "getCarByToken(uint256)": {
        "notice": "Get the car data associated with the given token ID"
      },
      "getCarsByOwner(address)": {
        "notice": "Return an array of all the cars owned by a given address"
      },
      "retrieveCar(uint256)": {
        "notice": "Allows the buyer to retrieve the purchased car."
      }
    },
    "version": 1
  }
}