{
  "contractName": "CarDealershipStrings",
  "abi": [
    {
      "inputs": [],
      "name": "CANT_BUY_OWN_CAR",
      "outputs": [
        {
          "internalType": "string",
          "name": "",
          "type": "string"
        }
      ],
      "stateMutability": "view",
      "type": "function",
      "constant": true
    },
    {
      "inputs": [],
      "name": "CAR_ALREADY_SOLD",
      "outputs": [
        {
          "internalType": "string",
          "name": "",
          "type": "string"
        }
      ],
      "stateMutability": "view",
      "type": "function",
      "constant": true
    },
    {
      "inputs": [],
      "name": "CAR_DOES_NOT_EXIST",
      "outputs": [
        {
          "internalType": "string",
          "name": "",
          "type": "string"
        }
      ],
      "stateMutability": "view",
      "type": "function",
      "constant": true
    },
    {
      "inputs": [],
      "name": "CAR_NOT_SOLD",
      "outputs": [
        {
          "internalType": "string",
          "name": "",
          "type": "string"
        }
      ],
      "stateMutability": "view",
      "type": "function",
      "constant": true
    },
    {
      "inputs": [],
      "name": "FAILED_TO_SENT_ETHER",
      "outputs": [
        {
          "internalType": "string",
          "name": "",
          "type": "string"
        }
      ],
      "stateMutability": "view",
      "type": "function",
      "constant": true
    },
    {
      "inputs": [],
      "name": "INSUFFICIENT_FUNDS",
      "outputs": [
        {
          "internalType": "string",
          "name": "",
          "type": "string"
        }
      ],
      "stateMutability": "view",
      "type": "function",
      "constant": true
    },
    {
      "inputs": [],
      "name": "ONLY_BUYER",
      "outputs": [
        {
          "internalType": "string",
          "name": "",
          "type": "string"
        }
      ],
      "stateMutability": "view",
      "type": "function",
      "constant": true
    },
    {
      "inputs": [],
      "name": "ONLY_BUYER_CANCEL",
      "outputs": [
        {
          "internalType": "string",
          "name": "",
          "type": "string"
        }
      ],
      "stateMutability": "view",
      "type": "function",
      "constant": true
    }
  ],
  "bytecode": "0x61044d610053600b82828239805160001a607314610046577f4e487b7100000000000000000000000000000000000000000000000000000000600052600060045260246000fd5b30600052607381538281f3fe73000000000000000000000000000000000000000030146080604052600436106100925760003560e01c806374fe34391161006557806374fe34391461010f578063d51f5e731461012d578063e79314381461014b578063ee86da641461016957610092565b806302caf8e814610097578063254092ed146100b55780632b65ed5e146100d357806347a809de146100f1575b600080fd5b61009f610187565b6040516100ac9190610388565b60405180910390f35b6100bd6101c0565b6040516100ca9190610388565b60405180910390f35b6100db6101f9565b6040516100e89190610388565b60405180910390f35b6100f9610232565b6040516101069190610388565b60405180910390f35b61011761024e565b6040516101249190610388565b60405180910390f35b610135610287565b6040516101429190610388565b60405180910390f35b6101536102a3565b6040516101609190610388565b60405180910390f35b6101716102bf565b60405161017e9190610388565b60405180910390f35b6040518060400160405280601881526020017f4661696c656420746f207472616e73666572206574686572000000000000000081525081565b6040518060400160405280601d81526020017f546865206361722068617320616c7265616479206265656e20736f6c6400000081525081565b6040518060400160405280600d81526020017f436172206e6f7420666f756e640000000000000000000000000000000000000081525081565b6040518060600160405280602481526020016103ab6024913981565b6040518060400160405280601b81526020017f596f752063616e6e6f742062757920796f7572206f776e20636172000000000081525081565b6040518060600160405280602481526020016103f46024913981565b6040518060600160405280602581526020016103cf6025913981565b6040518060400160405280601d81526020017f5468652063617220686173206e6f74206265656e20736f6c642079657400000081525081565b600081519050919050565b600082825260208201905092915050565b60005b83811015610332578082015181840152602081019050610317565b60008484015250505050565b6000601f19601f8301169050919050565b600061035a826102f8565b6103648185610303565b9350610374818560208601610314565b61037d8161033e565b840191505092915050565b600060208201905081810360008301526103a2818461034f565b90509291505056fe4f6e6c79207468652062757965722063616e207265747269657665207468697320636172496e73756666696369656e742066756e647320666f7220627579696e6720746865206361724f6e6c79207468652062757965722063616e2063616e63656c2074686973206f72646572a264697066735822122093cd3c89391f5599908fc31c589b7a7762210c96033ed1a5283a49e840587a2b64736f6c63430008110033",
  "immutableReferences": {},
  "source": "// SPDX-License-Identifier: MIT\npragma solidity >=0.8.0 <0.9.0;\n\nlibrary CarDealershipStrings {\n  string public constant CAR_DOES_NOT_EXIST = \"Car not found\";\n  string public constant CANT_BUY_OWN_CAR = \"You cannot buy your own car\";\n  string public constant CAR_ALREADY_SOLD = \"The car has already been sold\";\n  string public constant INSUFFICIENT_FUNDS = \"Insufficient funds for buying the car\";\n  string public constant CAR_NOT_SOLD = \"The car has not been sold yet\";\n  string public constant ONLY_BUYER = \"Only the buyer can retrieve this car\";\n  string public constant FAILED_TO_SENT_ETHER = \"Failed to transfer ether\";\n  string public constant ONLY_BUYER_CANCEL = \"Only the buyer can cancel this order\";\n}",
  "sourcePath": "/Users/dennismoes/car-dealership/contract/contracts/CarDealershipStrings.sol",
  "compiler": {
    "name": "solc",
    "version": "0.8.17+commit.8df45f5f.Emscripten.clang"
  },
  "schemaVersion": "3.4.11",
  "updatedAt": "2023-03-28T08:41:04.625Z",
  "networkType": "ethereum",
  "devdoc": {
    "kind": "dev",
    "methods": {},
    "version": 1
  },
  "userdoc": {
    "kind": "user",
    "methods": {},
    "version": 1
  }
}