{
  "contractName": "Dealership",
  "abi": [
    {
      "inputs": [
        {
          "internalType": "string",
          "name": "_name",
          "type": "string"
        }
      ],
      "stateMutability": "nonpayable",
      "type": "constructor"
    },
    {
      "anonymous": false,
      "inputs": [
        {
          "indexed": false,
          "internalType": "string",
          "name": "licensePlate",
          "type": "string"
        }
      ],
      "name": "CarMileageChanged",
      "type": "event"
    },
    {
      "anonymous": false,
      "inputs": [
        {
          "indexed": false,
          "internalType": "string",
          "name": "licensePlate",
          "type": "string"
        }
      ],
      "name": "CreateCar",
      "type": "event"
    },
    {
      "inputs": [
        {
          "internalType": "address",
          "name": "_owner",
          "type": "address"
        },
        {
          "internalType": "string",
          "name": "_licenseplate",
          "type": "string"
        },
        {
          "internalType": "uint256",
          "name": "_chassisNumber",
          "type": "uint256"
        },
        {
          "internalType": "string",
          "name": "_brand",
          "type": "string"
        },
        {
          "internalType": "string",
          "name": "_carType",
          "type": "string"
        },
        {
          "internalType": "string",
          "name": "_colour",
          "type": "string"
        },
        {
          "internalType": "uint256",
          "name": "_mileage",
          "type": "uint256"
        },
        {
          "internalType": "string",
          "name": "_imageUrl",
          "type": "string"
        }
      ],
      "name": "addCar",
      "outputs": [],
      "stateMutability": "nonpayable",
      "type": "function"
    },
    {
      "inputs": [
        {
          "internalType": "string",
          "name": "_licenseplate",
          "type": "string"
        }
      ],
      "name": "removeCar",
      "outputs": [],
      "stateMutability": "nonpayable",
      "type": "function"
    },
    {
      "inputs": [
        {
          "internalType": "string",
          "name": "_licensePlate",
          "type": "string"
        }
      ],
      "name": "getCar",
      "outputs": [
        {
          "components": [
            {
              "internalType": "address",
              "name": "owner",
              "type": "address"
            },
            {
              "internalType": "string",
              "name": "licensePlate",
              "type": "string"
            },
            {
              "internalType": "uint256",
              "name": "chassisNumber",
              "type": "uint256"
            },
            {
              "internalType": "string",
              "name": "brand",
              "type": "string"
            },
            {
              "internalType": "string",
              "name": "carType",
              "type": "string"
            },
            {
              "internalType": "string",
              "name": "colour",
              "type": "string"
            },
            {
              "internalType": "uint256",
              "name": "mileage",
              "type": "uint256"
            },
            {
              "internalType": "string",
              "name": "imageUrl",
              "type": "string"
            }
          ],
          "internalType": "struct Dealership.Car",
          "name": "",
          "type": "tuple"
        }
      ],
      "stateMutability": "view",
      "type": "function"
    },
    {
      "inputs": [
        {
          "internalType": "address",
          "name": "_owner",
          "type": "address"
        }
      ],
      "name": "getCarsByOwner",
      "outputs": [
        {
          "components": [
            {
              "internalType": "address",
              "name": "owner",
              "type": "address"
            },
            {
              "internalType": "string",
              "name": "licensePlate",
              "type": "string"
            },
            {
              "internalType": "uint256",
              "name": "chassisNumber",
              "type": "uint256"
            },
            {
              "internalType": "string",
              "name": "brand",
              "type": "string"
            },
            {
              "internalType": "string",
              "name": "carType",
              "type": "string"
            },
            {
              "internalType": "string",
              "name": "colour",
              "type": "string"
            },
            {
              "internalType": "uint256",
              "name": "mileage",
              "type": "uint256"
            },
            {
              "internalType": "string",
              "name": "imageUrl",
              "type": "string"
            }
          ],
          "internalType": "struct Dealership.Car[]",
          "name": "",
          "type": "tuple[]"
        }
      ],
      "stateMutability": "view",
      "type": "function"
    },
    {
      "inputs": [],
      "name": "getAllCars",
      "outputs": [
        {
          "components": [
            {
              "internalType": "address",
              "name": "owner",
              "type": "address"
            },
            {
              "internalType": "string",
              "name": "licensePlate",
              "type": "string"
            },
            {
              "internalType": "uint256",
              "name": "chassisNumber",
              "type": "uint256"
            },
            {
              "internalType": "string",
              "name": "brand",
              "type": "string"
            },
            {
              "internalType": "string",
              "name": "carType",
              "type": "string"
            },
            {
              "internalType": "string",
              "name": "colour",
              "type": "string"
            },
            {
              "internalType": "uint256",
              "name": "mileage",
              "type": "uint256"
            },
            {
              "internalType": "string",
              "name": "imageUrl",
              "type": "string"
            }
          ],
          "internalType": "struct Dealership.Car[]",
          "name": "",
          "type": "tuple[]"
        }
      ],
      "stateMutability": "view",
      "type": "function"
    },
    {
      "inputs": [
        {
          "internalType": "string",
          "name": "_licensePlate",
          "type": "string"
        },
        {
          "internalType": "uint256",
          "name": "_mileage",
          "type": "uint256"
        }
      ],
      "name": "changeMileage",
      "outputs": [],
      "stateMutability": "nonpayable",
      "type": "function"
    }
  ],
  "bytecode": "0x608060405267016345785d8a00006000553480156200001d57600080fd5b50604051620033d7380380620033d78339818101604052810190620000439190620006db565b806001908162000054919062000977565b50600060405180610100016040528073498c2f07f3c28a5ee65c3cc723bed64b9eeaa88f73ffffffffffffffffffffffffffffffffffffffff1681526020016040518060400160405280600881526020017f32382d54474a2d310000000000000000000000000000000000000000000000008152508152602001607b81526020016040518060400160405280600481526020017f466f72640000000000000000000000000000000000000000000000000000000081525081526020016040518060400160405280600381526020017f535556000000000000000000000000000000000000000000000000000000000081525081526020016040518060400160405280600381526020017f7265640000000000000000000000000000000000000000000000000000000000815250815260200161040081526020016040518060400160405280600381526020017f32313300000000000000000000000000000000000000000000000000000000008152508152509050600060405180610100016040528073498c2f07f3c28a5ee65c3cc723bed64b9eeaa88f73ffffffffffffffffffffffffffffffffffffffff1681526020016040518060400160405280600881526020017f32382d54474a2d310000000000000000000000000000000000000000000000008152508152602001607b81526020016040518060400160405280600481526020017f466f72640000000000000000000000000000000000000000000000000000000081525081526020016040518060400160405280600381526020017f535556000000000000000000000000000000000000000000000000000000000081525081526020016040518060400160405280600381526020017f7265640000000000000000000000000000000000000000000000000000000000815250815260200161040081526020016040518060400160405280600381526020017f32313300000000000000000000000000000000000000000000000000000000008152508152509050600282908060018154018082558091505060019003906000526020600020906008020160009091909190915060008201518160000160006101000a81548173ffffffffffffffffffffffffffffffffffffffff021916908373ffffffffffffffffffffffffffffffffffffffff1602179055506020820151816001019081620003c7919062000977565b50604082015181600201556060820151816003019081620003e9919062000977565b50608082015181600401908162000401919062000977565b5060a082015181600501908162000419919062000977565b5060c0820151816006015560e08201518160070190816200043b919062000977565b505050600281908060018154018082558091505060019003906000526020600020906008020160009091909190915060008201518160000160006101000a81548173ffffffffffffffffffffffffffffffffffffffff021916908373ffffffffffffffffffffffffffffffffffffffff1602179055506020820151816001019081620004c8919062000977565b50604082015181600201556060820151816003019081620004ea919062000977565b50608082015181600401908162000502919062000977565b5060a08201518160050190816200051a919062000977565b5060c0820151816006015560e08201518160070190816200053c919062000977565b50505050505062000a5e565b6000604051905090565b600080fd5b600080fd5b600080fd5b600080fd5b6000601f19601f8301169050919050565b7f4e487b7100000000000000000000000000000000000000000000000000000000600052604160045260246000fd5b620005b18262000566565b810181811067ffffffffffffffff82111715620005d357620005d262000577565b5b80604052505050565b6000620005e862000548565b9050620005f68282620005a6565b919050565b600067ffffffffffffffff82111562000619576200061862000577565b5b620006248262000566565b9050602081019050919050565b60005b838110156200065157808201518184015260208101905062000634565b60008484015250505050565b6000620006746200066e84620005fb565b620005dc565b90508281526020810184848401111562000693576200069262000561565b5b620006a084828562000631565b509392505050565b600082601f830112620006c057620006bf6200055c565b5b8151620006d28482602086016200065d565b91505092915050565b600060208284031215620006f457620006f362000552565b5b600082015167ffffffffffffffff81111562000715576200071462000557565b5b6200072384828501620006a8565b91505092915050565b600081519050919050565b7f4e487b7100000000000000000000000000000000000000000000000000000000600052602260045260246000fd5b600060028204905060018216806200077f57607f821691505b60208210810362000795576200079462000737565b5b50919050565b60008190508160005260206000209050919050565b60006020601f8301049050919050565b600082821b905092915050565b600060088302620007ff7fffffffffffffffffffffffffffffffffffffffffffffffffffffffffffffffff82620007c0565b6200080b8683620007c0565b95508019841693508086168417925050509392505050565b6000819050919050565b6000819050919050565b600062000858620008526200084c8462000823565b6200082d565b62000823565b9050919050565b6000819050919050565b620008748362000837565b6200088c62000883826200085f565b848454620007cd565b825550505050565b600090565b620008a362000894565b620008b081848462000869565b505050565b5b81811015620008d857620008cc60008262000899565b600181019050620008b6565b5050565b601f8211156200092757620008f1816200079b565b620008fc84620007b0565b810160208510156200090c578190505b620009246200091b85620007b0565b830182620008b5565b50505b505050565b600082821c905092915050565b60006200094c600019846008026200092c565b1980831691505092915050565b600062000967838362000939565b9150826002028217905092915050565b62000982826200072c565b67ffffffffffffffff8111156200099e576200099d62000577565b5b620009aa825462000766565b620009b7828285620008dc565b600060209050601f831160018114620009ef5760008415620009da578287015190505b620009e6858262000959565b86555062000a56565b601f198416620009ff866200079b565b60005b8281101562000a295784890151825560018201915060208501945060208101905062000a02565b8683101562000a49578489015162000a45601f89168262000939565b8355505b6001600288020188555050505b505050505050565b6129698062000a6e6000396000f3fe608060405234801561001057600080fd5b50600436106100625760003560e01c8063479487e314610067578063603ed2a1146100975780639f5eba2b146100b3578063abfe5d57146100cf578063c75bb4f4146100ed578063dd0c1a5a1461011d575b600080fd5b610081600480360381019061007c9190611c8b565b610139565b60405161008e9190611e79565b60405180910390f35b6100b160048036038101906100ac9190611ec7565b610566565b005b6100cd60048036038101906100c89190611c8b565b610b41565b005b6100d7610e7b565b6040516100e491906120b1565b60405180910390f35b610107600480360381019061010291906120ff565b61121f565b60405161011491906120b1565b60405180910390f35b6101376004803603810190610132919061212c565b6116e0565b005b610141611a27565b6001151560058360405161015591906122aa565b908152602001604051809103902060009054906101000a900460ff161515146040518060600160405280602c81526020016128c0602c9139906101ce576040517f08c379a00000000000000000000000000000000000000000000000000000000081526004016101c5919061230b565b60405180910390fd5b5060026003836040516101e191906122aa565b908152602001604051809103902054815481106102015761020061232d565b5b9060005260206000209060080201604051806101000160405290816000820160009054906101000a900473ffffffffffffffffffffffffffffffffffffffff1673ffffffffffffffffffffffffffffffffffffffff1673ffffffffffffffffffffffffffffffffffffffff1681526020016001820180546102819061238b565b80601f01602080910402602001604051908101604052809291908181526020018280546102ad9061238b565b80156102fa5780601f106102cf576101008083540402835291602001916102fa565b820191906000526020600020905b8154815290600101906020018083116102dd57829003601f168201915b505050505081526020016002820154815260200160038201805461031d9061238b565b80601f01602080910402602001604051908101604052809291908181526020018280546103499061238b565b80156103965780601f1061036b57610100808354040283529160200191610396565b820191906000526020600020905b81548152906001019060200180831161037957829003601f168201915b505050505081526020016004820180546103af9061238b565b80601f01602080910402602001604051908101604052809291908181526020018280546103db9061238b565b80156104285780601f106103fd57610100808354040283529160200191610428565b820191906000526020600020905b81548152906001019060200180831161040b57829003601f168201915b505050505081526020016005820180546104419061238b565b80601f016020809104026020016040519081016040528092919081815260200182805461046d9061238b565b80156104ba5780601f1061048f576101008083540402835291602001916104ba565b820191906000526020600020905b81548152906001019060200180831161049d57829003601f168201915b50505050508152602001600682015481526020016007820180546104dd9061238b565b80601f01602080910402602001604051908101604052809291908181526020018280546105099061238b565b80156105565780601f1061052b57610100808354040283529160200191610556565b820191906000526020600020905b81548152906001019060200180831161053957829003601f168201915b5050505050815250509050919050565b6001151560058360405161057a91906122aa565b908152602001604051809103902060009054906101000a900460ff161515146040518060600160405280602c81526020016128c0602c9139906105f3576040517f08c379a00000000000000000000000000000000000000000000000000000000081526004016105ea919061230b565b60405180910390fd5b506000600260038460405161060891906122aa565b908152602001604051809103902054815481106106285761062761232d565b5b9060005260206000209060080201604051806101000160405290816000820160009054906101000a900473ffffffffffffffffffffffffffffffffffffffff1673ffffffffffffffffffffffffffffffffffffffff1673ffffffffffffffffffffffffffffffffffffffff1681526020016001820180546106a89061238b565b80601f01602080910402602001604051908101604052809291908181526020018280546106d49061238b565b80156107215780601f106106f657610100808354040283529160200191610721565b820191906000526020600020905b81548152906001019060200180831161070457829003601f168201915b50505050508152602001600282015481526020016003820180546107449061238b565b80601f01602080910402602001604051908101604052809291908181526020018280546107709061238b565b80156107bd5780601f10610792576101008083540402835291602001916107bd565b820191906000526020600020905b8154815290600101906020018083116107a057829003601f168201915b505050505081526020016004820180546107d69061238b565b80601f01602080910402602001604051908101604052809291908181526020018280546108029061238b565b801561084f5780601f106108245761010080835404028352916020019161084f565b820191906000526020600020905b81548152906001019060200180831161083257829003601f168201915b505050505081526020016005820180546108689061238b565b80601f01602080910402602001604051908101604052809291908181526020018280546108949061238b565b80156108e15780601f106108b6576101008083540402835291602001916108e1565b820191906000526020600020905b8154815290600101906020018083116108c457829003601f168201915b50505050508152602001600682015481526020016007820180546109049061238b565b80601f01602080910402602001604051908101604052809291908181526020018280546109309061238b565b801561097d5780601f106109525761010080835404028352916020019161097d565b820191906000526020600020905b81548152906001019060200180831161096057829003601f168201915b50505050508152505090508060c00151821160405180608001604052806041815260200161287f60419139906109e9576040517f08c379a00000000000000000000000000000000000000000000000000000000081526004016109e0919061230b565b60405180910390fd5b50818160c0018181525050806002600385604051610a0791906122aa565b90815260200160405180910390205481548110610a2757610a2661232d565b5b906000526020600020906008020160008201518160000160006101000a81548173ffffffffffffffffffffffffffffffffffffffff021916908373ffffffffffffffffffffffffffffffffffffffff1602179055506020820151816001019081610a919190612568565b50604082015181600201556060820151816003019081610ab19190612568565b506080820151816004019081610ac79190612568565b5060a0820151816005019081610add9190612568565b5060c0820151816006015560e0820151816007019081610afd9190612568565b509050507fd392969fd9086e04a98b0caee3015915a72026cfe97c0bd958956ab7b5194d788160200151604051610b34919061230b565b60405180910390a1505050565b60011515600582604051610b5591906122aa565b908152602001604051809103902060009054906101000a900460ff161515146040518060600160405280602c81526020016128c0602c913990610bce576040517f08c379a0000000000000000000000000000000000000000000000000000000008152600401610bc5919061230b565b60405180910390fd5b506000600382604051610be191906122aa565b90815260200160405180910390205490506002805490508110610c39576040517f08c379a0000000000000000000000000000000000000000000000000000000008152600401610c3090612686565b60405180910390fd5b60026001600280549050610c4d91906126d5565b81548110610c5e57610c5d61232d565b5b906000526020600020906008020160028281548110610c8057610c7f61232d565b5b90600052602060002090600802016000820160009054906101000a900473ffffffffffffffffffffffffffffffffffffffff168160000160006101000a81548173ffffffffffffffffffffffffffffffffffffffff021916908373ffffffffffffffffffffffffffffffffffffffff16021790555060018201816001019081610d09919061271f565b506002820154816002015560038201816003019081610d28919061271f565b5060048201816004019081610d3d919061271f565b5060058201816005019081610d52919061271f565b506006820154816006015560078201816007019081610d71919061271f565b509050506002805480610d8757610d86612807565b5b6001900381819060005260206000209060080201600080820160006101000a81549073ffffffffffffffffffffffffffffffffffffffff0219169055600182016000610dd39190611a82565b6002820160009055600382016000610deb9190611a82565b600482016000610dfb9190611a82565b600582016000610e0b9190611a82565b6006820160009055600782016000610e239190611a82565b50509055600582604051610e3791906122aa565b908152602001604051809103902060006101000a81549060ff0219169055600382604051610e6591906122aa565b9081526020016040518091039020600090555050565b60606002805480602002602001604051908101604052809291908181526020016000905b828210156112165783829060005260206000209060080201604051806101000160405290816000820160009054906101000a900473ffffffffffffffffffffffffffffffffffffffff1673ffffffffffffffffffffffffffffffffffffffff1673ffffffffffffffffffffffffffffffffffffffff168152602001600182018054610f299061238b565b80601f0160208091040260200160405190810160405280929190818152602001828054610f559061238b565b8015610fa25780601f10610f7757610100808354040283529160200191610fa2565b820191906000526020600020905b815481529060010190602001808311610f8557829003601f168201915b5050505050815260200160028201548152602001600382018054610fc59061238b565b80601f0160208091040260200160405190810160405280929190818152602001828054610ff19061238b565b801561103e5780601f106110135761010080835404028352916020019161103e565b820191906000526020600020905b81548152906001019060200180831161102157829003601f168201915b505050505081526020016004820180546110579061238b565b80601f01602080910402602001604051908101604052809291908181526020018280546110839061238b565b80156110d05780601f106110a5576101008083540402835291602001916110d0565b820191906000526020600020905b8154815290600101906020018083116110b357829003601f168201915b505050505081526020016005820180546110e99061238b565b80601f01602080910402602001604051908101604052809291908181526020018280546111159061238b565b80156111625780601f1061113757610100808354040283529160200191611162565b820191906000526020600020905b81548152906001019060200180831161114557829003601f168201915b50505050508152602001600682015481526020016007820180546111859061238b565b80601f01602080910402602001604051908101604052809291908181526020018280546111b19061238b565b80156111fe5780601f106111d3576101008083540402835291602001916111fe565b820191906000526020600020905b8154815290600101906020018083116111e157829003601f168201915b50505050508152505081526020019060010190610e9f565b50505050905090565b60606000600460008473ffffffffffffffffffffffffffffffffffffffff1673ffffffffffffffffffffffffffffffffffffffff1681526020019081526020016000208054806020026020016040519081016040528092919081815260200182805480156112ac57602002820191906000526020600020905b815481526020019060010190808311611298575b505050505090506000815167ffffffffffffffff8111156112d0576112cf611b60565b5b60405190808252806020026020018201604052801561130957816020015b6112f6611a27565b8152602001906001900390816112ee5790505b50905060005b82518110156116d557600283828151811061132d5761132c61232d565b5b6020026020010151815481106113465761134561232d565b5b9060005260206000209060080201604051806101000160405290816000820160009054906101000a900473ffffffffffffffffffffffffffffffffffffffff1673ffffffffffffffffffffffffffffffffffffffff1673ffffffffffffffffffffffffffffffffffffffff1681526020016001820180546113c69061238b565b80601f01602080910402602001604051908101604052809291908181526020018280546113f29061238b565b801561143f5780601f106114145761010080835404028352916020019161143f565b820191906000526020600020905b81548152906001019060200180831161142257829003601f168201915b50505050508152602001600282015481526020016003820180546114629061238b565b80601f016020809104026020016040519081016040528092919081815260200182805461148e9061238b565b80156114db5780601f106114b0576101008083540402835291602001916114db565b820191906000526020600020905b8154815290600101906020018083116114be57829003601f168201915b505050505081526020016004820180546114f49061238b565b80601f01602080910402602001604051908101604052809291908181526020018280546115209061238b565b801561156d5780601f106115425761010080835404028352916020019161156d565b820191906000526020600020905b81548152906001019060200180831161155057829003601f168201915b505050505081526020016005820180546115869061238b565b80601f01602080910402602001604051908101604052809291908181526020018280546115b29061238b565b80156115ff5780601f106115d4576101008083540402835291602001916115ff565b820191906000526020600020905b8154815290600101906020018083116115e257829003601f168201915b50505050508152602001600682015481526020016007820180546116229061238b565b80601f016020809104026020016040519081016040528092919081815260200182805461164e9061238b565b801561169b5780601f106116705761010080835404028352916020019161169b565b820191906000526020600020905b81548152906001019060200180831161167e57829003601f168201915b5050505050815250508282815181106116b7576116b661232d565b5b602002602001018190525080806116cd90612836565b91505061130f565b508092505050919050565b60006040518061010001604052808a73ffffffffffffffffffffffffffffffffffffffff1681526020018981526020018881526020018781526020018681526020018581526020018481526020018381525090506000151560058960405161174891906122aa565b908152602001604051809103902060009054906101000a900460ff161515146040518060800160405280604881526020016128ec60489139906117c1576040517f08c379a00000000000000000000000000000000000000000000000000000000081526004016117b8919061230b565b60405180910390fd5b50600281908060018154018082558091505060019003906000526020600020906008020160009091909190915060008201518160000160006101000a81548173ffffffffffffffffffffffffffffffffffffffff021916908373ffffffffffffffffffffffffffffffffffffffff160217905550602082015181600101908161184a9190612568565b5060408201518160020155606082015181600301908161186a9190612568565b5060808201518160040190816118809190612568565b5060a08201518160050190816118969190612568565b5060c0820151816006015560e08201518160070190816118b69190612568565b505050600060016002805490506118cd91906126d5565b9050600160058a6040516118e191906122aa565b908152602001604051809103902060006101000a81548160ff0219169083151502179055508060038a60405161191791906122aa565b9081526020016040518091039020819055506000600460008c73ffffffffffffffffffffffffffffffffffffffff1673ffffffffffffffffffffffffffffffffffffffff16815260200190815260200160002090508082908060018154018082558091505060019003906000526020600020016000909190919091505580600460008d73ffffffffffffffffffffffffffffffffffffffff1673ffffffffffffffffffffffffffffffffffffffff1681526020019081526020016000209080546119e2929190611ac2565b507fd852ece8f09856109c72afd99fb5cb1b08be3d279d2113ea6d9532d99a7dbe7b8a604051611a12919061230b565b60405180910390a15050505050505050505050565b604051806101000160405280600073ffffffffffffffffffffffffffffffffffffffff168152602001606081526020016000815260200160608152602001606081526020016060815260200160008152602001606081525090565b508054611a8e9061238b565b6000825580601f10611aa05750611abf565b601f016020900490600052602060002090810190611abe9190611b14565b5b50565b828054828255906000526020600020908101928215611b035760005260206000209182015b82811115611b02578254825591600101919060010190611ae7565b5b509050611b109190611b14565b5090565b5b80821115611b2d576000816000905550600101611b15565b5090565b6000604051905090565b600080fd5b600080fd5b600080fd5b600080fd5b6000601f19601f8301169050919050565b7f4e487b7100000000000000000000000000000000000000000000000000000000600052604160045260246000fd5b611b9882611b4f565b810181811067ffffffffffffffff82111715611bb757611bb6611b60565b5b80604052505050565b6000611bca611b31565b9050611bd68282611b8f565b919050565b600067ffffffffffffffff821115611bf657611bf5611b60565b5b611bff82611b4f565b9050602081019050919050565b82818337600083830152505050565b6000611c2e611c2984611bdb565b611bc0565b905082815260208101848484011115611c4a57611c49611b4a565b5b611c55848285611c0c565b509392505050565b600082601f830112611c7257611c71611b45565b5b8135611c82848260208601611c1b565b91505092915050565b600060208284031215611ca157611ca0611b3b565b5b600082013567ffffffffffffffff811115611cbf57611cbe611b40565b5b611ccb84828501611c5d565b91505092915050565b600073ffffffffffffffffffffffffffffffffffffffff82169050919050565b6000611cff82611cd4565b9050919050565b611d0f81611cf4565b82525050565b600081519050919050565b600082825260208201905092915050565b60005b83811015611d4f578082015181840152602081019050611d34565b60008484015250505050565b6000611d6682611d15565b611d708185611d20565b9350611d80818560208601611d31565b611d8981611b4f565b840191505092915050565b6000819050919050565b611da781611d94565b82525050565b600061010083016000830151611dc66000860182611d06565b5060208301518482036020860152611dde8282611d5b565b9150506040830151611df36040860182611d9e565b5060608301518482036060860152611e0b8282611d5b565b91505060808301518482036080860152611e258282611d5b565b91505060a083015184820360a0860152611e3f8282611d5b565b91505060c0830151611e5460c0860182611d9e565b5060e083015184820360e0860152611e6c8282611d5b565b9150508091505092915050565b60006020820190508181036000830152611e938184611dad565b905092915050565b611ea481611d94565b8114611eaf57600080fd5b50565b600081359050611ec181611e9b565b92915050565b60008060408385031215611ede57611edd611b3b565b5b600083013567ffffffffffffffff811115611efc57611efb611b40565b5b611f0885828601611c5d565b9250506020611f1985828601611eb2565b9150509250929050565b600081519050919050565b600082825260208201905092915050565b6000819050602082019050919050565b600061010083016000830151611f686000860182611d06565b5060208301518482036020860152611f808282611d5b565b9150506040830151611f956040860182611d9e565b5060608301518482036060860152611fad8282611d5b565b91505060808301518482036080860152611fc78282611d5b565b91505060a083015184820360a0860152611fe18282611d5b565b91505060c0830151611ff660c0860182611d9e565b5060e083015184820360e086015261200e8282611d5b565b9150508091505092915050565b60006120278383611f4f565b905092915050565b6000602082019050919050565b600061204782611f23565b6120518185611f2e565b93508360208202850161206385611f3f565b8060005b8581101561209f5784840389528151612080858261201b565b945061208b8361202f565b925060208a01995050600181019050612067565b50829750879550505050505092915050565b600060208201905081810360008301526120cb818461203c565b905092915050565b6120dc81611cf4565b81146120e757600080fd5b50565b6000813590506120f9816120d3565b92915050565b60006020828403121561211557612114611b3b565b5b6000612123848285016120ea565b91505092915050565b600080600080600080600080610100898b03121561214d5761214c611b3b565b5b600061215b8b828c016120ea565b985050602089013567ffffffffffffffff81111561217c5761217b611b40565b5b6121888b828c01611c5d565b97505060406121998b828c01611eb2565b965050606089013567ffffffffffffffff8111156121ba576121b9611b40565b5b6121c68b828c01611c5d565b955050608089013567ffffffffffffffff8111156121e7576121e6611b40565b5b6121f38b828c01611c5d565b94505060a089013567ffffffffffffffff81111561221457612213611b40565b5b6122208b828c01611c5d565b93505060c06122318b828c01611eb2565b92505060e089013567ffffffffffffffff81111561225257612251611b40565b5b61225e8b828c01611c5d565b9150509295985092959890939650565b600081905092915050565b600061228482611d15565b61228e818561226e565b935061229e818560208601611d31565b80840191505092915050565b60006122b68284612279565b915081905092915050565b600082825260208201905092915050565b60006122dd82611d15565b6122e781856122c1565b93506122f7818560208601611d31565b61230081611b4f565b840191505092915050565b6000602082019050818103600083015261232581846122d2565b905092915050565b7f4e487b7100000000000000000000000000000000000000000000000000000000600052603260045260246000fd5b7f4e487b7100000000000000000000000000000000000000000000000000000000600052602260045260246000fd5b600060028204905060018216806123a357607f821691505b6020821081036123b6576123b561235c565b5b50919050565b60008190508160005260206000209050919050565b60006020601f8301049050919050565b600082821b905092915050565b60006008830261241e7fffffffffffffffffffffffffffffffffffffffffffffffffffffffffffffffff826123e1565b61242886836123e1565b95508019841693508086168417925050509392505050565b6000819050919050565b600061246561246061245b84611d94565b612440565b611d94565b9050919050565b6000819050919050565b61247f8361244a565b61249361248b8261246c565b8484546123ee565b825550505050565b600090565b6124a861249b565b6124b3818484612476565b505050565b5b818110156124d7576124cc6000826124a0565b6001810190506124b9565b5050565b601f82111561251c576124ed816123bc565b6124f6846123d1565b81016020851015612505578190505b612519612511856123d1565b8301826124b8565b50505b505050565b600082821c905092915050565b600061253f60001984600802612521565b1980831691505092915050565b6000612558838361252e565b9150826002028217905092915050565b61257182611d15565b67ffffffffffffffff81111561258a57612589611b60565b5b612594825461238b565b61259f8282856124db565b600060209050601f8311600181146125d257600084156125c0578287015190505b6125ca858261254c565b865550612632565b601f1984166125e0866123bc565b60005b82811015612608578489015182556001820191506020850194506020810190506125e3565b868310156126255784890151612621601f89168261252e565b8355505b6001600288020188555050505b505050505050565b7f496e646578206f7574206f662072616e67650000000000000000000000000000600082015250565b60006126706012836122c1565b915061267b8261263a565b602082019050919050565b6000602082019050818103600083015261269f81612663565b9050919050565b7f4e487b7100000000000000000000000000000000000000000000000000000000600052601160045260246000fd5b60006126e082611d94565b91506126eb83611d94565b9250828203905081811115612703576127026126a6565b5b92915050565b6000815490506127188161238b565b9050919050565b81810361272d575050612805565b61273682612709565b67ffffffffffffffff81111561274f5761274e611b60565b5b612759825461238b565b6127648282856124db565b6000601f8311600181146127935760008415612781578287015490505b61278b858261254c565b8655506127fe565b601f1984166127a1876123bc565b96506127ac866123bc565b60005b828110156127d4578489015482556001820191506001850194506020810190506127af565b868310156127f157848901546127ed601f89168261252e565b8355505b6001600288020188555050505b5050505050505b565b7f4e487b7100000000000000000000000000000000000000000000000000000000600052603160045260246000fd5b600061284182611d94565b91507fffffffffffffffffffffffffffffffffffffffffffffffffffffffffffffffff8203612873576128726126a6565b5b60018201905091905056fe546865206d696c6561676520796f752070726f76696465642063616e2774206265206c6f7765722074686174207468652063757272656e74206d696c6561676521412063617220776974682074686973206c6963656e7365706c61746520646f6573206e6f7420657869737421596f752063616e27742072656769737465722074686973206361722c20626563617573652074686973206c6963656e7365706c61746520697320616c72656164792074616b656e21a2646970667358221220b861dc8f6f5de2afb555139389e6b33c5203f92c865a48306c10c548fede594b64736f6c63430008110033",
  "immutableReferences": {},
  "source": "// SPDX-License-Identifier: GPL-3.0\npragma solidity >=0.8.0 <0.9.0;\n\n// TODO: Create a seperate contract for car types\ncontract Dealership {\n  uint256 COMMISION_FOR_CAR = 0.1 ether;\n\n  string name;\n\n  Car[] cars;\n\n  // Set the index of the plate in the cars array\n  mapping(string => uint256) indexOfPlate;\n  mapping(address => uint256[]) indexOfOwner;\n  mapping(string => bool) plateExists;\n\n  // event Deposit(address indexed _from, bytes32 indexed _id, uint _value);\n  event CreateCar(string licensePlate);\n  event CarMileageChanged(string licensePlate);\n\n  struct Car {\n    address owner;\n    string licensePlate;\n    uint256 chassisNumber;\n    string brand;\n    string carType;\n    string colour;\n    uint256 mileage;\n    string imageUrl; // TODO: Add struct for IPFS and HTTP address\n  }\n\n  string constant LOWER_MILEAGE = \"The mileage you provided can't be lower that the current mileage!\";\n  string constant UNRECOGNIZED_LICENSEPLATE = \"A car with this licenseplate does not exist!\";\n  string constant CAR_ALREADY_EXISTS = \"You can't register this car, because this licenseplate is already taken!\";\n\n  constructor(string memory _name) {\n    name = _name;\n\n    Car memory car1 = Car(\n      0x498C2f07f3C28A5EE65c3Cc723Bed64B9EeaA88f,\n      \"28-TGJ-1\",\n      123,\n      \"Ford\",\n      \"SUV\",\n      \"red\",\n      1024,\n      \"213\"\n    );\n\n    Car memory car2 = Car(\n      0x498C2f07f3C28A5EE65c3Cc723Bed64B9EeaA88f,\n      \"28-TGJ-1\",\n      123,\n      \"Ford\",\n      \"SUV\",\n      \"red\",\n      1024,\n      \"213\"\n    );\n\n    cars.push(car1);\n    cars.push(car2);\n  }\n\n  /// @notice Create a car on this contract\n  function addCar(\n    address _owner,\n    string memory _licenseplate,\n    uint256 _chassisNumber,\n    string memory _brand,\n    string memory _carType,\n    string memory _colour,\n    uint256 _mileage,\n    string memory _imageUrl\n  ) public {\n    Car memory _car = Car(\n      _owner,\n      _licenseplate,\n      _chassisNumber,\n      _brand,\n      _carType,\n      _colour,\n      _mileage,\n      _imageUrl\n    );\n\n    // If there already is a car with the license plate in the dealership return error\n    require(plateExists[_licenseplate] == false, CAR_ALREADY_EXISTS);\n\n    cars.push(_car);\n    uint index = cars.length - 1;\n\n    // TODO: When adding a car, pay a commision for payments. 0.1 ethers\n\n    plateExists[_licenseplate] = true;\n    indexOfPlate[_licenseplate] = index;\n\n    uint256[] storage plates = indexOfOwner[_owner];\n    plates.push(index);\n    indexOfOwner[_owner] = plates;\n\n    emit CreateCar(_licenseplate);\n  }\n\n  /// @notice Remove a car from this contract\n  function removeCar(string memory _licenseplate) public {\n    require(plateExists[_licenseplate] == true, UNRECOGNIZED_LICENSEPLATE);\n\n    // FIXME: THERE IS A KANKER HINDERLIJKE INDEX OUT OF RANGE ERROR\n    uint index = indexOfPlate[_licenseplate];\n    require(index < cars.length, \"Index out of range\");\n\n    cars[index] = cars[cars.length - 1];\n    cars.pop();\n\n    delete plateExists[_licenseplate];\n    delete indexOfPlate[_licenseplate];\n  }\n\n  /// @notice Get the car information by license plate\n  function getCar(string memory _licensePlate) public view returns (Car memory) {\n    require(plateExists[_licensePlate] == true, UNRECOGNIZED_LICENSEPLATE);\n\n    // FIXME: Is the licenseplate isn't correct it will return the first item\n    return cars[indexOfPlate[_licensePlate]];\n  }\n\n  function getCarsByOwner(address _owner) public view returns (Car[] memory) {\n    uint256[] memory _plates = indexOfOwner[_owner];\n    Car[] memory _cars = new Car[](_plates.length);\n\n    for (uint i = 0; i < _plates.length; i++) {\n      _cars[i] = cars[_plates[i]];\n    }\n\n    return _cars;\n  }\n\n  /// @notice Return all cars that are saved in this contract\n  function getAllCars() public view returns (Car[] memory) {\n    return cars;\n  }\n\n  /// @notice change the mileage of the car\n  function changeMileage(string memory _licensePlate, uint256 _mileage) public {\n    require(plateExists[_licensePlate] == true, UNRECOGNIZED_LICENSEPLATE);\n\n    Car memory _car = cars[indexOfPlate[_licensePlate]];\n    require(_mileage > _car.mileage, LOWER_MILEAGE);\n    _car.mileage = _mileage;\n\n    cars[indexOfPlate[_licensePlate]] = _car;\n    emit CarMileageChanged(_car.licensePlate);\n  }\n\n  /// @notice Function to buy a car from an owner\n  // function buyCar() public {\n  //   address payable _to = payable(0x9A52E9cd2b6FafEb2876d63eB9Cda109E45ecE67);\n  //   uint256 _amount = 1 ether;\n\n  //   // payment.sendPayment{value: _amount}(_to, _amount);\n  //   // payment.transferMoney(_to, _amount);\n  // }\n}\n",
  "sourcePath": "/Users/dennismoes/car-dealership/contract/contracts/Dealership.sol",
  "compiler": {
    "name": "solc",
    "version": "0.8.17+commit.8df45f5f.Emscripten.clang"
  },
  "schemaVersion": "3.4.11",
  "updatedAt": "2023-03-07T15:06:31.632Z",
  "networkType": "ethereum",
  "devdoc": {
    "kind": "dev",
    "methods": {},
    "version": 1
  },
  "userdoc": {
    "kind": "user",
    "methods": {
      "addCar(address,string,uint256,string,string,string,uint256,string)": {
        "notice": "Create a car on this contract"
      },
      "changeMileage(string,uint256)": {
        "notice": "change the mileage of the car"
      },
      "getAllCars()": {
        "notice": "Return all cars that are saved in this contract"
      },
      "getCar(string)": {
        "notice": "Get the car information by license plate"
      },
      "removeCar(string)": {
        "notice": "Remove a car from this contract"
      }
    },
    "version": 1
  }
}