{
  "contractName": "Dealership",
  "abi": [
    {
      "inputs": [
        {
          "internalType": "string",
          "name": "_name",
          "type": "string"
        }
      ],
      "stateMutability": "nonpayable",
      "type": "constructor"
    },
    {
      "anonymous": false,
      "inputs": [
        {
          "indexed": false,
          "internalType": "string",
          "name": "licensePlate",
          "type": "string"
        }
      ],
      "name": "CarMileageChanged",
      "type": "event"
    },
    {
      "anonymous": false,
      "inputs": [
        {
          "indexed": false,
          "internalType": "string",
          "name": "licensePlate",
          "type": "string"
        }
      ],
      "name": "CreateCar",
      "type": "event"
    },
    {
      "inputs": [
        {
          "internalType": "address",
          "name": "_owner",
          "type": "address"
        },
        {
          "internalType": "string",
          "name": "_licenseplate",
          "type": "string"
        },
        {
          "internalType": "uint256",
          "name": "_chassisNumber",
          "type": "uint256"
        },
        {
          "internalType": "string",
          "name": "_brand",
          "type": "string"
        },
        {
          "internalType": "string",
          "name": "_carType",
          "type": "string"
        },
        {
          "internalType": "string",
          "name": "_colour",
          "type": "string"
        },
        {
          "internalType": "uint256",
          "name": "_mileage",
          "type": "uint256"
        },
        {
          "internalType": "string",
          "name": "_imageUrl",
          "type": "string"
        }
      ],
      "name": "addCar",
      "outputs": [],
      "stateMutability": "nonpayable",
      "type": "function"
    },
    {
      "inputs": [
        {
          "internalType": "string",
          "name": "_licenseplate",
          "type": "string"
        }
      ],
      "name": "removeCar",
      "outputs": [],
      "stateMutability": "nonpayable",
      "type": "function"
    },
    {
      "inputs": [
        {
          "internalType": "string",
          "name": "_licensePlate",
          "type": "string"
        }
      ],
      "name": "getCar",
      "outputs": [
        {
          "components": [
            {
              "internalType": "address",
              "name": "owner",
              "type": "address"
            },
            {
              "internalType": "string",
              "name": "licensePlate",
              "type": "string"
            },
            {
              "internalType": "uint256",
              "name": "chassisNumber",
              "type": "uint256"
            },
            {
              "internalType": "string",
              "name": "brand",
              "type": "string"
            },
            {
              "internalType": "string",
              "name": "carType",
              "type": "string"
            },
            {
              "internalType": "string",
              "name": "colour",
              "type": "string"
            },
            {
              "internalType": "uint256",
              "name": "mileage",
              "type": "uint256"
            },
            {
              "internalType": "string",
              "name": "imageUrl",
              "type": "string"
            }
          ],
          "internalType": "struct Dealership.Car",
          "name": "",
          "type": "tuple"
        }
      ],
      "stateMutability": "view",
      "type": "function",
      "constant": true
    },
    {
      "inputs": [
        {
          "internalType": "address",
          "name": "_owner",
          "type": "address"
        }
      ],
      "name": "getCarsByOwner",
      "outputs": [
        {
          "components": [
            {
              "internalType": "address",
              "name": "owner",
              "type": "address"
            },
            {
              "internalType": "string",
              "name": "licensePlate",
              "type": "string"
            },
            {
              "internalType": "uint256",
              "name": "chassisNumber",
              "type": "uint256"
            },
            {
              "internalType": "string",
              "name": "brand",
              "type": "string"
            },
            {
              "internalType": "string",
              "name": "carType",
              "type": "string"
            },
            {
              "internalType": "string",
              "name": "colour",
              "type": "string"
            },
            {
              "internalType": "uint256",
              "name": "mileage",
              "type": "uint256"
            },
            {
              "internalType": "string",
              "name": "imageUrl",
              "type": "string"
            }
          ],
          "internalType": "struct Dealership.Car[]",
          "name": "",
          "type": "tuple[]"
        }
      ],
      "stateMutability": "view",
      "type": "function",
      "constant": true
    },
    {
      "inputs": [],
      "name": "getAllCars",
      "outputs": [
        {
          "components": [
            {
              "internalType": "address",
              "name": "owner",
              "type": "address"
            },
            {
              "internalType": "string",
              "name": "licensePlate",
              "type": "string"
            },
            {
              "internalType": "uint256",
              "name": "chassisNumber",
              "type": "uint256"
            },
            {
              "internalType": "string",
              "name": "brand",
              "type": "string"
            },
            {
              "internalType": "string",
              "name": "carType",
              "type": "string"
            },
            {
              "internalType": "string",
              "name": "colour",
              "type": "string"
            },
            {
              "internalType": "uint256",
              "name": "mileage",
              "type": "uint256"
            },
            {
              "internalType": "string",
              "name": "imageUrl",
              "type": "string"
            }
          ],
          "internalType": "struct Dealership.Car[]",
          "name": "",
          "type": "tuple[]"
        }
      ],
      "stateMutability": "view",
      "type": "function",
      "constant": true
    },
    {
      "inputs": [
        {
          "internalType": "string",
          "name": "_licensePlate",
          "type": "string"
        },
        {
          "internalType": "uint256",
          "name": "_mileage",
          "type": "uint256"
        }
      ],
      "name": "changeMileage",
      "outputs": [],
      "stateMutability": "nonpayable",
      "type": "function"
    },
    {
      "inputs": [],
      "name": "buyCar",
      "outputs": [],
      "stateMutability": "nonpayable",
      "type": "function"
    }
  ],
  "bytecode": "0x608060405267016345785d8a00006000553480156200001d57600080fd5b5060405162003022380380620030228339818101604052810190620000439190620001ef565b80600290816200005491906200048b565b505062000572565b6000604051905090565b600080fd5b600080fd5b600080fd5b600080fd5b6000601f19601f8301169050919050565b7f4e487b7100000000000000000000000000000000000000000000000000000000600052604160045260246000fd5b620000c5826200007a565b810181811067ffffffffffffffff82111715620000e757620000e66200008b565b5b80604052505050565b6000620000fc6200005c565b90506200010a8282620000ba565b919050565b600067ffffffffffffffff8211156200012d576200012c6200008b565b5b62000138826200007a565b9050602081019050919050565b60005b838110156200016557808201518184015260208101905062000148565b60008484015250505050565b60006200018862000182846200010f565b620000f0565b905082815260208101848484011115620001a757620001a662000075565b5b620001b484828562000145565b509392505050565b600082601f830112620001d457620001d362000070565b5b8151620001e684826020860162000171565b91505092915050565b60006020828403121562000208576200020762000066565b5b600082015167ffffffffffffffff8111156200022957620002286200006b565b5b6200023784828501620001bc565b91505092915050565b600081519050919050565b7f4e487b7100000000000000000000000000000000000000000000000000000000600052602260045260246000fd5b600060028204905060018216806200029357607f821691505b602082108103620002a957620002a86200024b565b5b50919050565b60008190508160005260206000209050919050565b60006020601f8301049050919050565b600082821b905092915050565b600060088302620003137fffffffffffffffffffffffffffffffffffffffffffffffffffffffffffffffff82620002d4565b6200031f8683620002d4565b95508019841693508086168417925050509392505050565b6000819050919050565b6000819050919050565b60006200036c62000366620003608462000337565b62000341565b62000337565b9050919050565b6000819050919050565b62000388836200034b565b620003a0620003978262000373565b848454620002e1565b825550505050565b600090565b620003b7620003a8565b620003c48184846200037d565b505050565b5b81811015620003ec57620003e0600082620003ad565b600181019050620003ca565b5050565b601f8211156200043b576200040581620002af565b6200041084620002c4565b8101602085101562000420578190505b620004386200042f85620002c4565b830182620003c9565b50505b505050565b600082821c905092915050565b6000620004606000198460080262000440565b1980831691505092915050565b60006200047b83836200044d565b9150826002028217905092915050565b620004968262000240565b67ffffffffffffffff811115620004b257620004b16200008b565b5b620004be82546200027a565b620004cb828285620003f0565b600060209050601f831160018114620005035760008415620004ee578287015190505b620004fa85826200046d565b8655506200056a565b601f1984166200051386620002af565b60005b828110156200053d5784890151825560018201915060208501945060208101905062000516565b868310156200055d578489015162000559601f8916826200044d565b8355505b6001600288020188555050505b505050505050565b612aa080620005826000396000f3fe608060405234801561001057600080fd5b506004361061007d5760003560e01c80639f5eba2b1161005b5780639f5eba2b146100d8578063abfe5d57146100f4578063c75bb4f414610112578063dd0c1a5a146101425761007d565b8063479487e314610082578063603ed2a1146100b25780637826c0b5146100ce575b600080fd5b61009c60048036038101906100979190611d69565b61015e565b6040516100a99190611f57565b60405180910390f35b6100cc60048036038101906100c79190611fa5565b61058b565b005b6100d6610b66565b005b6100f260048036038101906100ed9190611d69565b610c1f565b005b6100fc610f59565b604051610109919061218f565b60405180910390f35b61012c600480360381019061012791906121dd565b6112fd565b604051610139919061218f565b60405180910390f35b61015c6004803603810190610157919061220a565b6117be565b005b610166611b05565b6001151560068360405161017a9190612388565b908152602001604051809103902060009054906101000a900460ff161515146040518060600160405280602c81526020016129f7602c9139906101f3576040517f08c379a00000000000000000000000000000000000000000000000000000000081526004016101ea91906123e9565b60405180910390fd5b5060036004836040516102069190612388565b908152602001604051809103902054815481106102265761022561240b565b5b9060005260206000209060080201604051806101000160405290816000820160009054906101000a900473ffffffffffffffffffffffffffffffffffffffff1673ffffffffffffffffffffffffffffffffffffffff1673ffffffffffffffffffffffffffffffffffffffff1681526020016001820180546102a690612469565b80601f01602080910402602001604051908101604052809291908181526020018280546102d290612469565b801561031f5780601f106102f45761010080835404028352916020019161031f565b820191906000526020600020905b81548152906001019060200180831161030257829003601f168201915b505050505081526020016002820154815260200160038201805461034290612469565b80601f016020809104026020016040519081016040528092919081815260200182805461036e90612469565b80156103bb5780601f10610390576101008083540402835291602001916103bb565b820191906000526020600020905b81548152906001019060200180831161039e57829003601f168201915b505050505081526020016004820180546103d490612469565b80601f016020809104026020016040519081016040528092919081815260200182805461040090612469565b801561044d5780601f106104225761010080835404028352916020019161044d565b820191906000526020600020905b81548152906001019060200180831161043057829003601f168201915b5050505050815260200160058201805461046690612469565b80601f016020809104026020016040519081016040528092919081815260200182805461049290612469565b80156104df5780601f106104b4576101008083540402835291602001916104df565b820191906000526020600020905b8154815290600101906020018083116104c257829003601f168201915b505050505081526020016006820154815260200160078201805461050290612469565b80601f016020809104026020016040519081016040528092919081815260200182805461052e90612469565b801561057b5780601f106105505761010080835404028352916020019161057b565b820191906000526020600020905b81548152906001019060200180831161055e57829003601f168201915b5050505050815250509050919050565b6001151560068360405161059f9190612388565b908152602001604051809103902060009054906101000a900460ff161515146040518060600160405280602c81526020016129f7602c913990610618576040517f08c379a000000000000000000000000000000000000000000000000000000000815260040161060f91906123e9565b60405180910390fd5b506000600360048460405161062d9190612388565b9081526020016040518091039020548154811061064d5761064c61240b565b5b9060005260206000209060080201604051806101000160405290816000820160009054906101000a900473ffffffffffffffffffffffffffffffffffffffff1673ffffffffffffffffffffffffffffffffffffffff1673ffffffffffffffffffffffffffffffffffffffff1681526020016001820180546106cd90612469565b80601f01602080910402602001604051908101604052809291908181526020018280546106f990612469565b80156107465780601f1061071b57610100808354040283529160200191610746565b820191906000526020600020905b81548152906001019060200180831161072957829003601f168201915b505050505081526020016002820154815260200160038201805461076990612469565b80601f016020809104026020016040519081016040528092919081815260200182805461079590612469565b80156107e25780601f106107b7576101008083540402835291602001916107e2565b820191906000526020600020905b8154815290600101906020018083116107c557829003601f168201915b505050505081526020016004820180546107fb90612469565b80601f016020809104026020016040519081016040528092919081815260200182805461082790612469565b80156108745780601f1061084957610100808354040283529160200191610874565b820191906000526020600020905b81548152906001019060200180831161085757829003601f168201915b5050505050815260200160058201805461088d90612469565b80601f01602080910402602001604051908101604052809291908181526020018280546108b990612469565b80156109065780601f106108db57610100808354040283529160200191610906565b820191906000526020600020905b8154815290600101906020018083116108e957829003601f168201915b505050505081526020016006820154815260200160078201805461092990612469565b80601f016020809104026020016040519081016040528092919081815260200182805461095590612469565b80156109a25780601f10610977576101008083540402835291602001916109a2565b820191906000526020600020905b81548152906001019060200180831161098557829003601f168201915b50505050508152505090508060c0015182116040518060800160405280604181526020016129b66041913990610a0e576040517f08c379a0000000000000000000000000000000000000000000000000000000008152600401610a0591906123e9565b60405180910390fd5b50818160c0018181525050806003600485604051610a2c9190612388565b90815260200160405180910390205481548110610a4c57610a4b61240b565b5b906000526020600020906008020160008201518160000160006101000a81548173ffffffffffffffffffffffffffffffffffffffff021916908373ffffffffffffffffffffffffffffffffffffffff1602179055506020820151816001019081610ab69190612646565b50604082015181600201556060820151816003019081610ad69190612646565b506080820151816004019081610aec9190612646565b5060a0820151816005019081610b029190612646565b5060c0820151816006015560e0820151816007019081610b229190612646565b509050507fd392969fd9086e04a98b0caee3015915a72026cfe97c0bd958956ab7b5194d788160200151604051610b5991906123e9565b60405180910390a1505050565b6000739a52e9cd2b6fafeb2876d63eb9cda109e45ece6790506000670de0b6b3a76400009050600160009054906101000a900473ffffffffffffffffffffffffffffffffffffffff1673ffffffffffffffffffffffffffffffffffffffff1663fee666ad83836040518363ffffffff1660e01b8152600401610be9929190612748565b600060405180830381600087803b158015610c0357600080fd5b505af1158015610c17573d6000803e3d6000fd5b505050505050565b60011515600682604051610c339190612388565b908152602001604051809103902060009054906101000a900460ff161515146040518060600160405280602c81526020016129f7602c913990610cac576040517f08c379a0000000000000000000000000000000000000000000000000000000008152600401610ca391906123e9565b60405180910390fd5b506000600482604051610cbf9190612388565b90815260200160405180910390205490506003805490508110610d17576040517f08c379a0000000000000000000000000000000000000000000000000000000008152600401610d0e906127bd565b60405180910390fd5b60036001600380549050610d2b919061280c565b81548110610d3c57610d3b61240b565b5b906000526020600020906008020160038281548110610d5e57610d5d61240b565b5b90600052602060002090600802016000820160009054906101000a900473ffffffffffffffffffffffffffffffffffffffff168160000160006101000a81548173ffffffffffffffffffffffffffffffffffffffff021916908373ffffffffffffffffffffffffffffffffffffffff16021790555060018201816001019081610de79190612856565b506002820154816002015560038201816003019081610e069190612856565b5060048201816004019081610e1b9190612856565b5060058201816005019081610e309190612856565b506006820154816006015560078201816007019081610e4f9190612856565b509050506003805480610e6557610e6461293e565b5b6001900381819060005260206000209060080201600080820160006101000a81549073ffffffffffffffffffffffffffffffffffffffff0219169055600182016000610eb19190611b60565b6002820160009055600382016000610ec99190611b60565b600482016000610ed99190611b60565b600582016000610ee99190611b60565b6006820160009055600782016000610f019190611b60565b50509055600682604051610f159190612388565b908152602001604051809103902060006101000a81549060ff0219169055600482604051610f439190612388565b9081526020016040518091039020600090555050565b60606003805480602002602001604051908101604052809291908181526020016000905b828210156112f45783829060005260206000209060080201604051806101000160405290816000820160009054906101000a900473ffffffffffffffffffffffffffffffffffffffff1673ffffffffffffffffffffffffffffffffffffffff1673ffffffffffffffffffffffffffffffffffffffff16815260200160018201805461100790612469565b80601f016020809104026020016040519081016040528092919081815260200182805461103390612469565b80156110805780601f1061105557610100808354040283529160200191611080565b820191906000526020600020905b81548152906001019060200180831161106357829003601f168201915b50505050508152602001600282015481526020016003820180546110a390612469565b80601f01602080910402602001604051908101604052809291908181526020018280546110cf90612469565b801561111c5780601f106110f15761010080835404028352916020019161111c565b820191906000526020600020905b8154815290600101906020018083116110ff57829003601f168201915b5050505050815260200160048201805461113590612469565b80601f016020809104026020016040519081016040528092919081815260200182805461116190612469565b80156111ae5780601f10611183576101008083540402835291602001916111ae565b820191906000526020600020905b81548152906001019060200180831161119157829003601f168201915b505050505081526020016005820180546111c790612469565b80601f01602080910402602001604051908101604052809291908181526020018280546111f390612469565b80156112405780601f1061121557610100808354040283529160200191611240565b820191906000526020600020905b81548152906001019060200180831161122357829003601f168201915b505050505081526020016006820154815260200160078201805461126390612469565b80601f016020809104026020016040519081016040528092919081815260200182805461128f90612469565b80156112dc5780601f106112b1576101008083540402835291602001916112dc565b820191906000526020600020905b8154815290600101906020018083116112bf57829003601f168201915b50505050508152505081526020019060010190610f7d565b50505050905090565b60606000600560008473ffffffffffffffffffffffffffffffffffffffff1673ffffffffffffffffffffffffffffffffffffffff16815260200190815260200160002080548060200260200160405190810160405280929190818152602001828054801561138a57602002820191906000526020600020905b815481526020019060010190808311611376575b505050505090506000815167ffffffffffffffff8111156113ae576113ad611c3e565b5b6040519080825280602002602001820160405280156113e757816020015b6113d4611b05565b8152602001906001900390816113cc5790505b50905060005b82518110156117b357600383828151811061140b5761140a61240b565b5b6020026020010151815481106114245761142361240b565b5b9060005260206000209060080201604051806101000160405290816000820160009054906101000a900473ffffffffffffffffffffffffffffffffffffffff1673ffffffffffffffffffffffffffffffffffffffff1673ffffffffffffffffffffffffffffffffffffffff1681526020016001820180546114a490612469565b80601f01602080910402602001604051908101604052809291908181526020018280546114d090612469565b801561151d5780601f106114f25761010080835404028352916020019161151d565b820191906000526020600020905b81548152906001019060200180831161150057829003601f168201915b505050505081526020016002820154815260200160038201805461154090612469565b80601f016020809104026020016040519081016040528092919081815260200182805461156c90612469565b80156115b95780601f1061158e576101008083540402835291602001916115b9565b820191906000526020600020905b81548152906001019060200180831161159c57829003601f168201915b505050505081526020016004820180546115d290612469565b80601f01602080910402602001604051908101604052809291908181526020018280546115fe90612469565b801561164b5780601f106116205761010080835404028352916020019161164b565b820191906000526020600020905b81548152906001019060200180831161162e57829003601f168201915b5050505050815260200160058201805461166490612469565b80601f016020809104026020016040519081016040528092919081815260200182805461169090612469565b80156116dd5780601f106116b2576101008083540402835291602001916116dd565b820191906000526020600020905b8154815290600101906020018083116116c057829003601f168201915b505050505081526020016006820154815260200160078201805461170090612469565b80601f016020809104026020016040519081016040528092919081815260200182805461172c90612469565b80156117795780601f1061174e57610100808354040283529160200191611779565b820191906000526020600020905b81548152906001019060200180831161175c57829003601f168201915b5050505050815250508282815181106117955761179461240b565b5b602002602001018190525080806117ab9061296d565b9150506113ed565b508092505050919050565b60006040518061010001604052808a73ffffffffffffffffffffffffffffffffffffffff168152602001898152602001888152602001878152602001868152602001858152602001848152602001838152509050600015156006896040516118269190612388565b908152602001604051809103902060009054906101000a900460ff16151514604051806080016040528060488152602001612a23604891399061189f576040517f08c379a000000000000000000000000000000000000000000000000000000000815260040161189691906123e9565b60405180910390fd5b50600381908060018154018082558091505060019003906000526020600020906008020160009091909190915060008201518160000160006101000a81548173ffffffffffffffffffffffffffffffffffffffff021916908373ffffffffffffffffffffffffffffffffffffffff16021790555060208201518160010190816119289190612646565b506040820151816002015560608201518160030190816119489190612646565b50608082015181600401908161195e9190612646565b5060a08201518160050190816119749190612646565b5060c0820151816006015560e08201518160070190816119949190612646565b505050600060016003805490506119ab919061280c565b9050600160068a6040516119bf9190612388565b908152602001604051809103902060006101000a81548160ff0219169083151502179055508060048a6040516119f59190612388565b9081526020016040518091039020819055506000600560008c73ffffffffffffffffffffffffffffffffffffffff1673ffffffffffffffffffffffffffffffffffffffff16815260200190815260200160002090508082908060018154018082558091505060019003906000526020600020016000909190919091505580600560008d73ffffffffffffffffffffffffffffffffffffffff1673ffffffffffffffffffffffffffffffffffffffff168152602001908152602001600020908054611ac0929190611ba0565b507fd852ece8f09856109c72afd99fb5cb1b08be3d279d2113ea6d9532d99a7dbe7b8a604051611af091906123e9565b60405180910390a15050505050505050505050565b604051806101000160405280600073ffffffffffffffffffffffffffffffffffffffff168152602001606081526020016000815260200160608152602001606081526020016060815260200160008152602001606081525090565b508054611b6c90612469565b6000825580601f10611b7e5750611b9d565b601f016020900490600052602060002090810190611b9c9190611bf2565b5b50565b828054828255906000526020600020908101928215611be15760005260206000209182015b82811115611be0578254825591600101919060010190611bc5565b5b509050611bee9190611bf2565b5090565b5b80821115611c0b576000816000905550600101611bf3565b5090565b6000604051905090565b600080fd5b600080fd5b600080fd5b600080fd5b6000601f19601f8301169050919050565b7f4e487b7100000000000000000000000000000000000000000000000000000000600052604160045260246000fd5b611c7682611c2d565b810181811067ffffffffffffffff82111715611c9557611c94611c3e565b5b80604052505050565b6000611ca8611c0f565b9050611cb48282611c6d565b919050565b600067ffffffffffffffff821115611cd457611cd3611c3e565b5b611cdd82611c2d565b9050602081019050919050565b82818337600083830152505050565b6000611d0c611d0784611cb9565b611c9e565b905082815260208101848484011115611d2857611d27611c28565b5b611d33848285611cea565b509392505050565b600082601f830112611d5057611d4f611c23565b5b8135611d60848260208601611cf9565b91505092915050565b600060208284031215611d7f57611d7e611c19565b5b600082013567ffffffffffffffff811115611d9d57611d9c611c1e565b5b611da984828501611d3b565b91505092915050565b600073ffffffffffffffffffffffffffffffffffffffff82169050919050565b6000611ddd82611db2565b9050919050565b611ded81611dd2565b82525050565b600081519050919050565b600082825260208201905092915050565b60005b83811015611e2d578082015181840152602081019050611e12565b60008484015250505050565b6000611e4482611df3565b611e4e8185611dfe565b9350611e5e818560208601611e0f565b611e6781611c2d565b840191505092915050565b6000819050919050565b611e8581611e72565b82525050565b600061010083016000830151611ea46000860182611de4565b5060208301518482036020860152611ebc8282611e39565b9150506040830151611ed16040860182611e7c565b5060608301518482036060860152611ee98282611e39565b91505060808301518482036080860152611f038282611e39565b91505060a083015184820360a0860152611f1d8282611e39565b91505060c0830151611f3260c0860182611e7c565b5060e083015184820360e0860152611f4a8282611e39565b9150508091505092915050565b60006020820190508181036000830152611f718184611e8b565b905092915050565b611f8281611e72565b8114611f8d57600080fd5b50565b600081359050611f9f81611f79565b92915050565b60008060408385031215611fbc57611fbb611c19565b5b600083013567ffffffffffffffff811115611fda57611fd9611c1e565b5b611fe685828601611d3b565b9250506020611ff785828601611f90565b9150509250929050565b600081519050919050565b600082825260208201905092915050565b6000819050602082019050919050565b6000610100830160008301516120466000860182611de4565b506020830151848203602086015261205e8282611e39565b91505060408301516120736040860182611e7c565b506060830151848203606086015261208b8282611e39565b915050608083015184820360808601526120a58282611e39565b91505060a083015184820360a08601526120bf8282611e39565b91505060c08301516120d460c0860182611e7c565b5060e083015184820360e08601526120ec8282611e39565b9150508091505092915050565b6000612105838361202d565b905092915050565b6000602082019050919050565b600061212582612001565b61212f818561200c565b9350836020820285016121418561201d565b8060005b8581101561217d578484038952815161215e85826120f9565b94506121698361210d565b925060208a01995050600181019050612145565b50829750879550505050505092915050565b600060208201905081810360008301526121a9818461211a565b905092915050565b6121ba81611dd2565b81146121c557600080fd5b50565b6000813590506121d7816121b1565b92915050565b6000602082840312156121f3576121f2611c19565b5b6000612201848285016121c8565b91505092915050565b600080600080600080600080610100898b03121561222b5761222a611c19565b5b60006122398b828c016121c8565b985050602089013567ffffffffffffffff81111561225a57612259611c1e565b5b6122668b828c01611d3b565b97505060406122778b828c01611f90565b965050606089013567ffffffffffffffff81111561229857612297611c1e565b5b6122a48b828c01611d3b565b955050608089013567ffffffffffffffff8111156122c5576122c4611c1e565b5b6122d18b828c01611d3b565b94505060a089013567ffffffffffffffff8111156122f2576122f1611c1e565b5b6122fe8b828c01611d3b565b93505060c061230f8b828c01611f90565b92505060e089013567ffffffffffffffff8111156123305761232f611c1e565b5b61233c8b828c01611d3b565b9150509295985092959890939650565b600081905092915050565b600061236282611df3565b61236c818561234c565b935061237c818560208601611e0f565b80840191505092915050565b60006123948284612357565b915081905092915050565b600082825260208201905092915050565b60006123bb82611df3565b6123c5818561239f565b93506123d5818560208601611e0f565b6123de81611c2d565b840191505092915050565b6000602082019050818103600083015261240381846123b0565b905092915050565b7f4e487b7100000000000000000000000000000000000000000000000000000000600052603260045260246000fd5b7f4e487b7100000000000000000000000000000000000000000000000000000000600052602260045260246000fd5b6000600282049050600182168061248157607f821691505b6020821081036124945761249361243a565b5b50919050565b60008190508160005260206000209050919050565b60006020601f8301049050919050565b600082821b905092915050565b6000600883026124fc7fffffffffffffffffffffffffffffffffffffffffffffffffffffffffffffffff826124bf565b61250686836124bf565b95508019841693508086168417925050509392505050565b6000819050919050565b600061254361253e61253984611e72565b61251e565b611e72565b9050919050565b6000819050919050565b61255d83612528565b6125716125698261254a565b8484546124cc565b825550505050565b600090565b612586612579565b612591818484612554565b505050565b5b818110156125b5576125aa60008261257e565b600181019050612597565b5050565b601f8211156125fa576125cb8161249a565b6125d4846124af565b810160208510156125e3578190505b6125f76125ef856124af565b830182612596565b50505b505050565b600082821c905092915050565b600061261d600019846008026125ff565b1980831691505092915050565b6000612636838361260c565b9150826002028217905092915050565b61264f82611df3565b67ffffffffffffffff81111561266857612667611c3e565b5b6126728254612469565b61267d8282856125b9565b600060209050601f8311600181146126b0576000841561269e578287015190505b6126a8858261262a565b865550612710565b601f1984166126be8661249a565b60005b828110156126e6578489015182556001820191506020850194506020810190506126c1565b8683101561270357848901516126ff601f89168261260c565b8355505b6001600288020188555050505b505050505050565b600061272382611db2565b9050919050565b61273381612718565b82525050565b61274281611e72565b82525050565b600060408201905061275d600083018561272a565b61276a6020830184612739565b9392505050565b7f496e646578206f7574206f662072616e67650000000000000000000000000000600082015250565b60006127a760128361239f565b91506127b282612771565b602082019050919050565b600060208201905081810360008301526127d68161279a565b9050919050565b7f4e487b7100000000000000000000000000000000000000000000000000000000600052601160045260246000fd5b600061281782611e72565b915061282283611e72565b925082820390508181111561283a576128396127dd565b5b92915050565b60008154905061284f81612469565b9050919050565b81810361286457505061293c565b61286d82612840565b67ffffffffffffffff81111561288657612885611c3e565b5b6128908254612469565b61289b8282856125b9565b6000601f8311600181146128ca57600084156128b8578287015490505b6128c2858261262a565b865550612935565b601f1984166128d88761249a565b96506128e38661249a565b60005b8281101561290b578489015482556001820191506001850194506020810190506128e6565b868310156129285784890154612924601f89168261260c565b8355505b6001600288020188555050505b5050505050505b565b7f4e487b7100000000000000000000000000000000000000000000000000000000600052603160045260246000fd5b600061297882611e72565b91507fffffffffffffffffffffffffffffffffffffffffffffffffffffffffffffffff82036129aa576129a96127dd565b5b60018201905091905056fe546865206d696c6561676520796f752070726f76696465642063616e2774206265206c6f7765722074686174207468652063757272656e74206d696c6561676521412063617220776974682074686973206c6963656e7365706c61746520646f6573206e6f7420657869737421596f752063616e27742072656769737465722074686973206361722c20626563617573652074686973206c6963656e7365706c61746520697320616c72656164792074616b656e21a26469706673582212201476ca5403b21dc39d20b61d08727649d6c32d5eba45af755dcccaab22c632b864736f6c63430008110033",
  "immutableReferences": {},
  "source": "// SPDX-License-Identifier: GPL-3.0\npragma solidity >=0.8.0 <0.9.0;\n\nimport \"./Payment.sol\";\n\n// TODO: Create a seperate contract for car types\ncontract Dealership {\n  uint256 COMMISION_FOR_CAR = 0.1 ether;\n\n  Payment private payment;\n\n  string name;\n\n  Car[] cars;\n\n  // Set the index of the plate in the cars array\n  mapping(string => uint256) indexOfPlate;\n  mapping(address => uint256[]) indexOfOwner;\n  mapping(string => bool) plateExists;\n\n  // event Deposit(address indexed _from, bytes32 indexed _id, uint _value);\n  event CreateCar(string licensePlate);\n  event CarMileageChanged(string licensePlate);\n\n  struct Car {\n    address owner;\n    string licensePlate;\n    uint256 chassisNumber;\n    string brand;\n    string carType;\n    string colour;\n    uint256 mileage;\n    string imageUrl; // TODO: Add struct for IPFS and HTTP address\n  }\n\n  string constant LOWER_MILEAGE = \"The mileage you provided can't be lower that the current mileage!\";\n  string constant UNRECOGNIZED_LICENSEPLATE = \"A car with this licenseplate does not exist!\";\n  string constant CAR_ALREADY_EXISTS = \"You can't register this car, because this licenseplate is already taken!\";\n\n  constructor(string memory _name) {\n    name = _name;\n  }\n\n  /// @notice Create a car on this contract\n  function addCar(\n    address _owner,\n    string memory _licenseplate,\n    uint256 _chassisNumber,\n    string memory _brand,\n    string memory _carType,\n    string memory _colour,\n    uint256 _mileage,\n    string memory _imageUrl\n  ) public {\n    Car memory _car = Car(\n      _owner,\n      _licenseplate,\n      _chassisNumber,\n      _brand,\n      _carType,\n      _colour,\n      _mileage,\n      _imageUrl\n    );\n\n    // If there already is a car with the license plate in the dealership return error\n    require(plateExists[_licenseplate] == false, CAR_ALREADY_EXISTS);\n\n    cars.push(_car);\n    uint index = cars.length - 1;\n\n    // TODO: When adding a car, pay a commision for payments. 0.1 ethers\n\n    plateExists[_licenseplate] = true;\n    indexOfPlate[_licenseplate] = index;\n\n    uint256[] storage plates = indexOfOwner[_owner];\n    plates.push(index);\n    indexOfOwner[_owner] = plates;\n\n    emit CreateCar(_licenseplate);\n  }\n\n  /// @notice Remove a car from this contract\n  function removeCar(string memory _licenseplate) public {\n    require(plateExists[_licenseplate] == true, UNRECOGNIZED_LICENSEPLATE);\n\n    // FIXME: THERE IS A KANKER HINDERLIJKE INDEX OUT OF RANGE ERROR\n    uint index = indexOfPlate[_licenseplate];\n    require(index < cars.length, \"Index out of range\");\n\n    cars[index] = cars[cars.length - 1];\n    cars.pop();\n\n    delete plateExists[_licenseplate];\n    delete indexOfPlate[_licenseplate];\n  }\n\n  /// @notice Get the car information by license plate\n  function getCar(string memory _licensePlate) public view returns (Car memory) {\n    require(plateExists[_licensePlate] == true, UNRECOGNIZED_LICENSEPLATE);\n\n    // FIXME: Is the licenseplate isn't correct it will return the first item\n    return cars[indexOfPlate[_licensePlate]];\n  }\n\n  function getCarsByOwner(address _owner) public view returns (Car[] memory) {\n    uint256[] memory _plates = indexOfOwner[_owner];\n    Car[] memory _cars = new Car[](_plates.length);\n\n    for (uint i = 0; i < _plates.length; i++) {\n      _cars[i] = cars[_plates[i]];\n    }\n\n    return _cars;\n  }\n\n  /// @notice Return all cars that are saved in this contract\n  function getAllCars() public view returns (Car[] memory) {\n    return cars;\n  }\n\n  /// @notice change the mileage of the car\n  function changeMileage(string memory _licensePlate, uint256 _mileage) public {\n    require(plateExists[_licensePlate] == true, UNRECOGNIZED_LICENSEPLATE);\n\n    Car memory _car = cars[indexOfPlate[_licensePlate]];\n    require(_mileage > _car.mileage, LOWER_MILEAGE);\n    _car.mileage = _mileage;\n\n    cars[indexOfPlate[_licensePlate]] = _car;\n    emit CarMileageChanged(_car.licensePlate);\n  }\n\n  /// @notice Function to buy a car from an owner\n  function buyCar() public {\n    address payable _to = payable(0x9A52E9cd2b6FafEb2876d63eB9Cda109E45ecE67);\n    uint256 _amount = 1 ether;\n\n    // payment.sendPayment{value: _amount}(_to, _amount);\n    payment.transferMoney(_to, _amount);\n  }\n}\n",
  "sourcePath": "/Users/dennismoes/car-dealership/contract/contracts/Dealership.sol",
  "compiler": {
    "name": "solc",
    "version": "0.8.17+commit.8df45f5f.Emscripten.clang"
  },
  "schemaVersion": "3.4.11",
  "updatedAt": "2023-03-07T09:57:08.749Z",
  "networkType": "ethereum",
  "devdoc": {
    "kind": "dev",
    "methods": {},
    "version": 1
  },
  "userdoc": {
    "kind": "user",
    "methods": {
      "addCar(address,string,uint256,string,string,string,uint256,string)": {
        "notice": "Create a car on this contract"
      },
      "buyCar()": {
        "notice": "Function to buy a car from an owner"
      },
      "changeMileage(string,uint256)": {
        "notice": "change the mileage of the car"
      },
      "getAllCars()": {
        "notice": "Return all cars that are saved in this contract"
      },
      "getCar(string)": {
        "notice": "Get the car information by license plate"
      },
      "removeCar(string)": {
        "notice": "Remove a car from this contract"
      }
    },
    "version": 1
  }
}