{
  "contractName": "Payment",
  "abi": [
    {
      "inputs": [],
      "name": "getBalance",
      "outputs": [
        {
          "internalType": "uint256",
          "name": "",
          "type": "uint256"
        }
      ],
      "stateMutability": "view",
      "type": "function",
      "constant": true
    },
    {
      "inputs": [],
      "name": "payMe",
      "outputs": [],
      "stateMutability": "payable",
      "type": "function",
      "payable": true
    },
    {
      "inputs": [
        {
          "internalType": "address payable",
          "name": "_to",
          "type": "address"
        },
        {
          "internalType": "uint256",
          "name": "_amount",
          "type": "uint256"
        }
      ],
      "name": "transferMoney",
      "outputs": [],
      "stateMutability": "payable",
      "type": "function",
      "payable": true
    },
    {
      "inputs": [
        {
          "internalType": "address payable",
          "name": "recipient",
          "type": "address"
        },
        {
          "internalType": "uint256",
          "name": "amount",
          "type": "uint256"
        }
      ],
      "name": "sendPayment",
      "outputs": [],
      "stateMutability": "payable",
      "type": "function",
      "payable": true
    }
  ],
  "bytecode": "0x608060405234801561001057600080fd5b5061053c806100206000396000f3fe60806040526004361061003f5760003560e01c806312065fe014610044578063935f4c181461006f578063d997ccb31461008b578063fee666ad14610095575b600080fd5b34801561005057600080fd5b506100596100b1565b604051610066919061024d565b60405180910390f35b610089600480360381019061008491906102f7565b6100d0565b005b61009361011b565b005b6100af60048036038101906100aa91906102f7565b61011d565b005b60003373ffffffffffffffffffffffffffffffffffffffff1631905090565b8173ffffffffffffffffffffffffffffffffffffffff166108fc829081150290604051600060405180830381858888f19350505050158015610116573d6000803e3d6000fd5b505050565b565b80471015610160576040517f08c379a0000000000000000000000000000000000000000000000000000000008152600401610157906103ba565b60405180910390fd5b60008273ffffffffffffffffffffffffffffffffffffffff1682848460405160200161018d9291906103e9565b6040516020818303038152906040526040516101a99190610483565b60006040518083038185875af1925050503d80600081146101e6576040519150601f19603f3d011682016040523d82523d6000602084013e6101eb565b606091505b505090508061022f576040517f08c379a0000000000000000000000000000000000000000000000000000000008152600401610226906104e6565b60405180910390fd5b505050565b6000819050919050565b61024781610234565b82525050565b6000602082019050610262600083018461023e565b92915050565b600080fd5b600073ffffffffffffffffffffffffffffffffffffffff82169050919050565b60006102988261026d565b9050919050565b6102a88161028d565b81146102b357600080fd5b50565b6000813590506102c58161029f565b92915050565b6102d481610234565b81146102df57600080fd5b50565b6000813590506102f1816102cb565b92915050565b6000806040838503121561030e5761030d610268565b5b600061031c858286016102b6565b925050602061032d858286016102e2565b9150509250929050565b600082825260208201905092915050565b7f496e73756666696369656e742066756e647320696e2074686520636f6e74726160008201527f6374000000000000000000000000000000000000000000000000000000000000602082015250565b60006103a4602283610337565b91506103af82610348565b604082019050919050565b600060208201905081810360008301526103d381610397565b9050919050565b6103e38161028d565b82525050565b60006040820190506103fe60008301856103da565b61040b602083018461023e565b9392505050565b600081519050919050565b600081905092915050565b60005b8381101561044657808201518184015260208101905061042b565b60008484015250505050565b600061045d82610412565b610467818561041d565b9350610477818560208601610428565b80840191505092915050565b600061048f8284610452565b915081905092915050565b7f4661696c656420746f2073656e64204574686572000000000000000000000000600082015250565b60006104d0601483610337565b91506104db8261049a565b602082019050919050565b600060208201905081810360008301526104ff816104c3565b905091905056fea26469706673582212201f42e001cf4d558a815c843229222068ef82fbe3eb958a0dee6d40446f9fe9f864736f6c63430008110033",
  "immutableReferences": {},
  "source": "// SPDX-License-Identifier: GPL-3.0\npragma solidity >=0.8.0 <0.9.0;\n\ncontract Payment {\n  string name;\n\n  function getBalance() public view returns (uint256) {\n    return msg.sender.balance;\n  }\n\n  function payMe() public payable {}\n\n  // TODO: Add money to the contract before selling. The problem lies with that the function wants to transfer money without money on the contract\n\n  /// Function to transfer money to other user\n  function transferMoney(address payable _to, uint256 _amount) public payable {\n    // bytes memory data\n    // require(msg.value >= _amount, \"Not enough Ether\");\n    require(address(this).balance >= _amount, \"Insufficient funds in the contract\");\n\n    (bool success,) = _to.call{value: _amount}(abi.encode(_to, _amount));\n    require(success, 'Failed to send Ether');\n  }\n\n  function sendPayment(address payable recipient, uint256 amount) public payable {\n    recipient.transfer(amount);\n  }\n}\n",
  "sourcePath": "/Users/dennismoes/car-dealership/contract/contracts/Payment.sol",
  "compiler": {
    "name": "solc",
    "version": "0.8.17+commit.8df45f5f.Emscripten.clang"
  },
  "schemaVersion": "3.4.11",
  "updatedAt": "2023-03-07T09:57:08.756Z",
  "networkType": "ethereum",
  "devdoc": {
    "kind": "dev",
    "methods": {},
    "version": 1
  },
  "userdoc": {
    "kind": "user",
    "methods": {
      "transferMoney(address,uint256)": {
        "notice": "Function to transfer money to other user"
      }
    },
    "version": 1
  }
}